:020000040800F2
:10000000008000205D1F010891C9000899C90008FF
:1000100000000000000000000000000000000000E0
:10002000000000000000000000000000A1C900085E
:100030000000000000000000ABC90008B5C90008BE
:10004000AD1F0108AD1F0108AD1F0108AD1F01085C
:10005000AD1F0108AD1F0108AD1F0108C3C900088D
:10006000AD1F0108AD1F0108D9C90008FDC900086E
:10007000AD1F0108AD1F0108AD1F0108AD1F01082C
:10008000AD1F0108AD1F0108AD1F0108AD1F01081C
:10009000AD1F0108AD1F0108AD1F010839CA0008D6
:1000A000AD1F0108AD1F0108AD1F0108AD1F0108FC
:1000B00069CA0008AD1F010881CA0008AD1F010808
:1000C00010B5064C2378002B07D1054B002B02D02E
:1000D000044800E000BF0123237010BD500300203E
:1000E000000000007CAD0108044B10B5002B03D0CC
:1000F0000349044800E000BF10BDC04600000000F6
:10010000540300207CAD01080023C25C0133002AA7
:10011000FBD1581E70470000002243088B4274D365
:1001200003098B425FD3030A8B4244D3030B8B42F8
:1001300028D3030C8B420DD3FF22090212BA030C01
:100140008B4202D31212090265D0030B8B4219D3E2
:1001500000E0090AC30B8B4201D3CB03C01A524102
:10016000830B8B4201D38B03C01A5241430B8B424A
:1001700001D34B03C01A5241030B8B4201D30B0333
:10018000C01A5241C30A8B4201D3CB02C01A52415A
:10019000830A8B4201D38B02C01A5241430A8B421D
:1001A00001D34B02C01A5241030A8B4201D30B0206
:1001B000C01A5241CDD2C3098B4201D3CB01C01A20
:1001C000524183098B4201D38B01C01A524143092A
:1001D0008B4201D34B01C01A524103098B4201D318
:1001E0000B01C01A5241C3088B4201D3CB00C01A85
:1001F000524183088B4201D38B00C01A52414308FD
:100200008B4201D34B00C01A5241411A00D2014621
:10021000524110467047FFE701B5002000F0F0F8AA
:1002200002BDC0460029F7D076E7704703460B436E
:100230007FD4002243088B4274D303098B425FD3DF
:10024000030A8B4244D3030B8B4228D3030C8B420B
:100250000DD3FF22090212BA030C8B4202D31212F1
:10026000090265D0030B8B4219D300E0090AC30BC6
:100270008B4201D3CB03C01A5241830B8B4201D373
:100280008B03C01A5241430B8B4201D34B03C01A5C
:100290005241030B8B4201D30B03C01A5241C30AD4
:1002A0008B4201D3CB02C01A5241830A8B4201D345
:1002B0008B02C01A5241430A8B4201D34B02C01A2F
:1002C0005241030A8B4201D30B02C01A5241CDD2D4
:1002D000C3098B4201D3CB01C01A524183098B421F
:1002E00001D38B01C01A524143098B4201D34B0108
:1002F000C01A524103098B4201D30B01C01A52416B
:10030000C3088B4201D3CB00C01A524183088B42F1
:1003100001D38B00C01A524143088B4201D34B00DA
:10032000C01A5241411A00D201465241104670474C
:100330005DE0CA0F00D04942031000D34042534051
:1003400000229C4603098B422DD3030A8B4212D311
:10035000FC22890112BA030A8B420CD38901921143
:100360008B4208D3890192118B4204D389013AD080
:10037000921100E08909C3098B4201D3CB01C01A55
:10038000524183098B4201D38B01C01A5241430968
:100390008B4201D34B01C01A524103098B4201D356
:1003A0000B01C01A5241C3088B4201D3CB00C01AC3
:1003B000524183088B4201D38B00C01A5241D9D2DB
:1003C00043088B4201D34B00C01A5241411A00D25C
:1003D0000146634652415B10104601D34042002B58
:1003E00000D54942704763465B1000D3404201B5D7
:1003F000002000F005F802BD0029F8D016E770478C
:100400007047C0468446100062468C461900634619
:1004100000E0C0461FB501F0EDF8002801D400212E
:10042000C8421FBD10B501F031F84042013010BD87
:1004300010B501F0DFF8002801DB002010BD01201D
:1004400010BDC04610B501F0D5F8002801DD002030
:1004500010BD012010BDC04610B501F05BF80028AA
:1004600001DC002010BD012010BDC04610B501F018
:1004700051F8002801DA002010BD012010BDC0464F
:100480001C2101231B04984201D3000C10391B0AC4
:10049000984201D3000A08391B09984201D3000988
:1004A000043902A2105C40187047C04604030202DF
:1004B000010101010000000000000000002B11D12B
:1004C000002A0FD1002900D1002802D00021C94301
:1004D000080007B4024802A14018029003BDC046BC
:1004E00021FFFFFF03B4684601B5029800F024F82D
:1004F000019B9E4602B00CBC7047C04670B50022FE
:100500000C4B04000D00FFF7B1FF002804D12000C0
:10051000290001F0EFFF70BD064B002220002900EA
:1005200001F0BCFB01F0E6FF80231B069C46604403
:10053000F1E7C0460000E041F0B557464E4645465B
:10054000DE46E0B504000D009246994683B08B422A
:1005500030D82DD04946504602F02CF8290006002C
:10056000200002F027F8331A9846203B34D49B46EB
:1005700053465A46934042461F00534693401E003E
:10058000AF423BD8AF4200D179E05B46A41BBD41EE
:10059000002B00DA76E00022002300920193012371
:1005A0005A4693400193012342469340009329E029
:1005B0008242CFD900220023009201930C9B002B92
:1005C00001D01C605D600098019903B0F0BCBB468F
:1005D000B246A946A046F0BD42469B4620239B1A40
:1005E0005246DA40414613004A468A4017004246C6
:1005F0001F43534693401E00AF42C3D9002200233D
:10060000009201934346002BD8D0FB0772081A438F
:1006100046467B080EE0AB4201D1A2420CD8A41A98
:100620009D41012024196D410021013E24184D41B6
:10063000002E06D0AB42EED9013E24196D41002EAA
:10064000F8D1009801995B4600196941002B24DB21
:100650002B005A464446D3402A00E2401C005B4629
:100660001500002B2ADB26009E403300260047465B
:10067000BE403200801A9941009001919EE7A3424A
:10068000BCD882E74246202300219B1A0022009119
:1006900001920122DA40019285E7424620239B1A0B
:1006A0002A0046469A402300F340444613432A005A
:1006B000E2401C005B461500002BD4DA42462F00B6
:1006C0002023260097409B1ADE403B003343CDE7B2
:1006D000F0B54F464646D646C0B582B0009001916F
:1006E0000E034C00CD0F710A009E5F00760F0E4383
:1006F000009900920193C900894619037B0D984621
:10070000019B490ADB0F9C46009B009A5B0F0B4341
:100710004146640DD200611A654500D1A6E000296A
:1007200072DD4746002F00D1DDE0CC4FBC4200D146
:100730009AE10127382917DC80273F043B431F2912
:1007400000DDDDE12027781A1F008740BA46170038
:10075000CF40844638005746074360468240CB402E
:10076000501E8241F61A17434B46DF1BB9458041A4
:100770004042361A330200D4FFE07602760A002E99
:1007800000D13CE13000FFF77BFE0300083B202155
:100790003800CA1AD0409E4002009F4032439C421B
:1007A00000DDA6E1181B0130091A3E008F40C6404B
:1007B0007B1E9F4113008B4037431F43C2403B00C9
:1007C00016000024134300D1DFE17B0700D132E3A0
:1007D0000F233A003B40042B04D03A1DBA42BF41DC
:1007E0007F42F619330200D423E39C4B01349C4230
:1007F00000D1B4E09A4B64051E40640D7707D2081F
:1008000076021743360BACE0002900D17EE041466A
:10081000091B002C00D060E134004846044300D19D
:10082000C9E14C1E012900D12EE28C4DA94200D114
:1008300024E20127382C11DC21001F2900DD0BE206
:10084000202437004846641AA740C840074348465A
:10085000A040CE40441EA0419B1B0743D71BBA4279
:1008600092415242654644469E1A83E7002900DCC5
:100870009CE04746002F67D11F00174300D1E4E0FA
:10088000481E012900D19BE1744FB94200D1EBE031
:1008900001270100382811DC1F2900DDC7E12027CE
:1008A000781A1F00844687401000C84007436046FE
:1008B0008240CB40501E8241F61817434F444F45AB
:1008C000804140423618330257D5644B01349C4274
:1008D00045D00121624B7A081E4039400A43F70790
:1008E0001743760871E71F00174300D1ADE04F1E94
:1008F000BC46012900D182E1584FB94200D190E1B4
:1009000061460127382900DD2EE718E7554F611CA5
:10091000394200D0D0E0310048461F000143174360
:10092000002C00D03DE1002900D1BCE1002F00D017
:10093000BFE14B460021D80877070743F0080603BC
:100940004C05360B640D0CE0444FBC4200D18BE0EB
:1009500001273829B2DC80273F043B439CE700266F
:10096000002724053443ED072C433800210002B052
:10097000E0BCBA46B146A846F0BD7B0704D00F23C1
:100980003B40042B00D028E7F808344B7707074397
:10099000F0089C4200D04AE23B00034359D0802635
:1009A0003603064336032D4C360BDAE7002961D0B7
:1009B0004146091B002C00D1B9E0284CA04500D1CC
:1009C000A5E10127382913DC8024240426431F29AC
:1009D00000DDC8E1202437004846641AA740C8401B
:1009E00007434846A040CE40441EA0419B19074300
:1009F000BF189742924152424446D61863E73800E6
:100A0000FFF73EFD030018331F2B00DCBFE63A0062
:100A1000083882409C4200DD83E01B1B581C1F28C5
:100A200000DCB4E117001F3BDF40202805D0402345
:100A30001B1A9A40531E9A4117430024002F0AD0D4
:100A40007B0700D0C4E626009EE74B460C00D80882
:100A50009BE70027014C002683E7C046FF07000004
:100A6000FFFF7FFFFE0700004B467707D8080743CC
:100A7000F00891E7CD4F611C39426BD131004846F7
:100A80000143002C00D04BE11F001743002900D187
:100A900081E1002F00D14CE74A444A458041F618D5
:100AA00040423618330200D5B0E117009146374373
:100AB00000D03EE7002654E74946891A8846C145DA
:100AC000BF41F11A7F42C91B0F0261D447460F4351
:100AD00000D1BDE00E00474651E6B54CA04500D11F
:100AE00000E10127382900DDB8E6802424042643EC
:100AF000A3E6B04EE41A16407B0700D03FE743E779
:100B00000F001800203FF8408446202903D04027DA
:100B1000791A8B401A43531E9A41634617001F43AC
:100B200022E6A448E11A10404707C00807E734004E
:100B30004846044300D1FAE04C1E012900D1D7E019
:100B40009B4FB94200D1E2E00127382C00DD4FE78E
:100B500021003CE7964CA14200D1DDE04A444A45E1
:100B60008041F31840421818C70752081743460837
:100B7000520705D00F220C003A40042A00D02CE680
:100B80007607FF0837430009D9E600270026E8E684
:100B90004946571ABA4292419E1B52426546B61ABE
:100BA000EDE5002900D0C6E0002F67D180260025A2
:100BB0007F4C3603D5E665460C001E00D008E4E6FF
:100BC0004A444A458041F318404218181100030274
:100BD00000D496E0774B49081840C3070B434408FC
:100BE000490700D129E10F221A40042A00D1EAE086
:100BF0001F1D9F42B641764236190224C4E649467B
:100C00008F1AB9458041F61A4042361A330206D48B
:100C10007307FF0801211F43F00890E66546012491
:100C2000ABE54B467707D8080743F008B4E60F005A
:100C30001800203FF8408446202903D04027791A25
:100C40008B401A43531E9A41634617001F4335E6F3
:100C500000250024002684E60C003500203CE540F9
:100C6000202905D04024611A8E40494631438946E7
:100C70004846411E884107002F43EFE5D2085F0731
:100C800065461743D80887E6171ABA4292419E1B59
:100C90005242B61A3302C1D47307FF0865460121D8
:100CA0001F43F0084BE6002F7BD065461E0091469F
:100CB0003FE6811A8846C145A441F11A6442091BE6
:100CC00080242404214277D0101A824292410700E6
:100CD0009E1B5242B61A374300D0A0E0654600245E
:100CE00000263EE65F07D20865461743D80853E65C
:100CF000811891429241F01852428018030200D5A7
:100D000068E74707C9080F43C008012117E6D20862
:100D10005F071743D8083FE60C000026002720E6AF
:100D2000002956D15F07D2081743D80834E60C00D3
:100D30001E00D00829E6C10870070143F008002F03
:100D400062D080242403204207D0DE08264204D14A
:100D500065463000D1085B0719434F0FC900C90829
:100D60007F070F4318E60C003000203CE04084462B
:100D7000202905D04024611A8E40494631438946D6
:100D80004846411E8841614607000F4330E6202156
:100D90000027091A0EE51E00002F00D022E50024CE
:100DA00058E7002500240026DBE5C046FE070000CA
:100DB000FF070000FFFF7FFF47460F4300D147E7D3
:100DC0000E00C146B5E5DF0864070221274300098C
:100DD000B5E51900C008770707431143F00800295B
:100DE00000D1D9E580210903084207D0DC080C4274
:100DF00004D1D2085B071A43170020007B0FFF00C5
:100E0000FF085B071F43C7E50F00C5E5124BD2087B
:100E100033405F075B02012417431E0BA1E5264206
:100E200012D00D4B6546020001241E40E6E421006D
:100E300085E51700A8E53A00D4E4DB0864071C4305
:100E40002700022100097AE5C008770707436546B5
:100E50000021F00873E5C046FFFF7FFFF0B5DE46D6
:100E6000454657464E46E0B587B0009201930B03C6
:100E70001B0B9B46CA0F4B00040080465B0D029281
:100E800000D198E07C4A934237D05946420FC900BE
:100E90000A43802109041143C2009046774A8946DB
:100EA00092469A44002300240393009E019F3B0333
:100EB0001B0B9B467B0030005B0DFD0F002B59D0B8
:100EC0006D4A934248D05946720FC9000A438021A7
:100ED000090411438B466949F2008C46514663442C
:100EE000CB1A9A460021029E6E40F6B20F2C00D912
:100EF000CEE0634BA4001B599F465A4602439146DD
:100F000000D090E09A460223904608240393CCE751
:100F1000CB464246029D0399022900D1DEE1032916
:100F200000D18DE0012900D079E12E0000220023BC
:100F3000002490461B052343F6073343404619001F
:100F400007B0F0BCBB46B246A946A046F0BD0022A1
:100F500000249046484BEDE75A46009B1A43494B04
:100F60009C46E244002A59D102231C43002302215B
:100F70009B46B8E75A46009B1A4349D05B46002B74
:100F800000D19CE15846FFF77BFA020003000B3AC0
:100F90001D27009EBA1A19005846D64008398840C5
:100FA000320002439346009A8A40374953448A46A6
:100FB00000219A4497E75B460343994621D05B465C
:100FC000002B00D169E15846FFF75AFA0B235B4228
:100FD0009C460200844466461D239B1B260011008C
:100FE0005846DE40083988403300034399462300C1
:100FF0008B409846254B00249B1A9A460023039366
:1010000053E7002398469A460133042403934CE7A0
:1010100001231C43002301219B4664E70323320084
:1010200003211C435FE79A460323D9460C2403930C
:101030003BE700238024984600260F4B240379E7E2
:1010400080245B4624031C4324032E0090460A4B55
:10105000240B6FE780244B462403234202D05B46D7
:101060002342F0D080244B4624031C432403029ED9
:10107000014B240B5EE7C046FF07000001FCFFFFA9
:1010800060AE010801F8FFFFF30300000DFCFFFF55
:10109000CB4500D2F8E000D1F3E001235B429C464F
:1010A000444648460025E2445B46170E1B021F4398
:1010B000190C3B04120200971F0C914602910397F2
:1010C000FFF7B0F802007A430B04210C8046194365
:1010D0008A4209D9009F0123BC465B4261449C4679
:1010E000E0448F4200D85CE1881A0299FFF79AF831
:1010F000039A240442430904240C03000C43A24233
:1011000006D90099013B8C466444A14200D842E1D3
:10111000A01A424612041A4393464B4659461B0CEA
:101120001F0004930B0449460904090C0C001B0C16
:101130005C43120C7B43884651437A43270CBC46E0
:101140005B186344994203D9802149028C4662446A
:10115000190C24041B04240C8A181C19904202D375
:1011600016D1A54214D25B46009F013B4D44059326
:101170004D459B41BC465B426344C018874200D347
:1011800002E1824200D929E100D124E1059B9B467E
:101190002C1BA542AD41009B801A6D42401B83422F
:1011A00000D10FE10299FFF73DF8039A0B04424387
:1011B000210C050019438A4200D9CBE0881A029914
:1011C000FFF730F8039A240442430904240C030077
:1011D0000C43A24200D9CAE04146A41A2A041A4389
:1011E000049F13041B0C594340467B439C46150C3B
:1011F00068430B0C844463447D43984203D98020A8
:10120000400284466544180C09041B04090C40196B
:101210005B18844227D323D0012335001A43944B13
:101220005344002B60DD510700D086E02E00D1082A
:101230005A46D20106D55A468E4B1A408023934611
:10124000DB0053448C4A934200DD80E65A46520745
:101250000A4390465A465B055402240B5B0D69E62F
:101260003500002BDBD0009D511EAC466444AC42DF
:1012700000D29EE0844200D2E1E000D1EEE00A001C
:10128000CAE7424500D908E74B46DC075808434601
:101290005B081C434346DD0706E7FFF7F1F815231B
:1012A0009C4684440200634620321C2B00DC92E6FC
:1012B0002300083883409946002398469AE6FFF7B2
:1012C000DFF802000300153220331C2A00DC5FE641
:1012D00000990838814000228B4666E600222E00E5
:1012E00000249046654B25E62E000121C91A3829B5
:1012F00000DD1BE61F297EDC6148140050445B467C
:1013000082408340CC40501E824123431A435B46B7
:10131000CB40510709D00F211140042905D0111DE0
:101320009142924152429B180A00190200D49BE05C
:101330000022012300249046FCE50F2111400429DE
:1013400000D173E7111D9142924152422E00C9080B
:1013500093446DE7009B013D9C4661448B4200D95C
:101360002CE78A4200D829E7851E614426E70099C8
:10137000013B8C466444A14200D92DE7A24200D82B
:101380002AE7831E644427E7874200D0FEE6A9458A
:1013900000D9FBE6F5E6A24200D8B9E6831E644414
:1013A000B6E68A4200D89FE6BC46831E9846614452
:1013B0009AE60A00844200D02EE74B4500D02BE786
:1013C00035002CE72A4B2F4A5344924543DB012238
:1013D000002193442CE7AC4200D8D7E602235B42BD
:1013E0009C4600994D444D459B41E3448C465B42ED
:1013F0006344C018CCE61F204042C31A5846D84068
:10140000202904D05946204B534499400A43531E87
:101410009A4107231900024300241140134209D0C6
:1014200008331340042B1DD0131D934289411A0029
:1014300049424907D2080A43904600237AE54946C3
:10144000009F4D004D458941BC4649426144A94633
:10145000023A6418AEE70122524246E79945EED3BC
:101460000A00AAE70021E5E759075B021C0BE1E748
:10147000FF030000FFFFFFFEFE070000FF07000064
:101480001E04000002FCFFFF3E040000F0B55746BA
:10149000DE464E464546E0B50D000400E80F8346A3
:1014A0000903D80F090B824619488C461F036900AF
:1014B0005E00490D3F0B760D814218D086420FD059
:1014C0000120B1420DD1BC450BD1944209D1D34585
:1014D0001CD0002905D160462043431E984100E0FE
:1014E0000120F0BCBB46B246A946A046F0BD012093
:1014F0008E42F6D1614639430F0017432743F0D19E
:101500005B465246981A431E9841EAE70020E8E7F6
:10151000FF070000F0B557464E464546DE46E0B5AB
:101520000D000E034900490D8A46DF0FE90FBC4646
:1015300083B02F4F04008046019158001903914653
:10154000360B090B400DBA451DD0B8420DD0574699
:10155000002F2AD13443002824D10A4336D0002C4E
:1015600041D163465800013815E0114338D1534644
:10157000002B01D12643F4D0019B634507D1019B89
:101580005800013807E026432AD1504521D00120D8
:10159000019B5F42384303B0F0BCBB46B246A9464C
:1015A000A046F0BD002CDCD0E6E70028EFD0019B80
:1015B0006345ECD18245EADCE1DB8E42E7D8DED13F
:1015C000C845E4D80020C845E5D2D8E7002CE2D0D1
:1015D000DDE7114304D1019B6345D8D10020DAE750
:1015E00002204042D7E7019B6345E6D0CFE7C046E3
:1015F000FF070000F0B557464E464546DE46E0B5CB
:101600000D000E034900490D8A46DF0FE90FBC4665
:1016100083B02E4F04008046019158001903914673
:10162000360B090B400DBA451ED0B8420DD05746B7
:10163000002F27D13443002833D10A4334D0002C63
:1016400040D163465800013815E0114312D153468A
:10165000002B01D12643F4D0019B63451DD001200E
:10166000019B5F42384306E0264303D15045F6D143
:1016700011431CD0022003B0F0BCBB46B246A946C1
:10168000A046F0BD0028EAD0019B6345E7D1824522
:10169000E5DC02DB8E42E2D80ED0019B5800013817
:1016A000E9E7002CCDD0D7E7002CE4D0D7E7019BA9
:1016B00000206345DFD0D2E7C845D0D80020C84518
:1016C000D9D2EAE7019B6345E4D0C8E7FF070000F1
:1016D000F0B557464E46DE464546E0B51F000B03C3
:1016E0001B0B16009A46CA0F4B000400914685B0AA
:1016F0005B0D00D1CFE1CD4A934255D05146420F08
:10170000C9000A43802109041143C2009046C84A17
:101710008A4693469B440023002502933C037B00AA
:10172000FA0F0196240B5B0D009200D188E1BF4AAD
:10173000934200D192E0BE4A944663449B440A2DF2
:1017400042DCE400730F23438024494624041C43F5
:10175000F3000193009B00205940CBB20393022D6C
:1017600000DC94E00123AB401D00A6232A00DB002F
:101770001A401D4200D029E290239B001D4200D157
:101780004DE20023802499462403A84B10004A46CA
:101790001B052343D2071343190005B0F0BCBB4619
:1017A000B246A946A046F0BD52460243904600D03C
:1017B000ACE19B460223924608250293AEE7009BCC
:1017C000A2469946019B9846029B022B00D1CAE192
:1017D000032B00D192E1012B10D100230024002221
:1017E000D4E701227B083A4013435246D207134301
:1017F000984653465B089A46039B99465B46581C9D
:101800008023DB005B44002B00DCB1E14246520741
:101810000BD00F2241460A40042A06D04246111D31
:10182000414592418846524292445246D20106D5E1
:101830005246804B1A4080239246DB00C3187E4AF2
:10184000934200DD8FE14246D108524652070A43D7
:1018500051465B054C02240B5B0D97E7734B264307
:101860009C46E344002E00D16FE1032349461D430B
:10187000009B5940CBB203930A2D00DD33E10123D5
:10188000AB401D000323029388222A4297D142468F
:1018900043461204120C160001981D0C030C0004A0
:1018A000000C4643B4461E006E4300961600070027
:1018B0005E436146B0466F430E0CB8444644B7429F
:1018C00005D9802149028846009F47440097614618
:1018D0000904090C370C36048C463100614401912F
:1018E0001100260C2404240C61438C46210069431A
:1018F00089466146090C884672434A44424475430E
:10190000914503D98021490288464544110C8846F7
:1019100061460904090C8C4612046244B91802910C
:101920005146090C8C4651460F043F0C3900414387
:1019300045448846614641438A4641466046090C13
:10194000894658437B4353444B449A4503D98021ED
:10195000490289464844190C894641460904090C44
:101960008846390061431B044344884661464C4322
:1019700071438C46414677430E0C3F19F619484493
:10198000B44203D9802149028946CC440299009F80
:10199000894631044F4489464146974292410C049E
:1019A000240C4C44FF1852426419A1189F429B41D9
:1019B000884682465B42994690459241AC42A4419A
:1019C000C244D14452426442144399459B418245EA
:1019D00092415B42524213434A46360CA419E31823
:1019E00063445B02D20D1A43019992467A020A437C
:1019F000501E8241FF0D17434A4652021743B84614
:101A0000DB0100D5EDE60D4B039A5B449146002BBC
:101A100000DCACE03A00520700D110E70F22584634
:101A20003A40042A00D0F9E609E7C046FF07000063
:101A300001FCFFFFFFFFFFFEFE070000FF030000A9
:101A4000220032436FD0002C00D1C2E02000FEF70C
:101A500017FD020003000B3A1D20821A3000190006
:101A6000D04008398C400200224334008C40594653
:101A7000CB1A86498B469B440A2D00DDA4E64946D5
:101A8000009B01945940CBB2140000200393022D17
:101A900000DD67E6FBE65346034398463CD05346D9
:101AA000002B00D1A3E05046FEF7EAFC0B235B427B
:101AB0009C460200844411005046083988401D238A
:101AC000804660461B1A2000D8400300404603436E
:101AD0009A4623008B4098466C4B00259B1A9B46E8
:101AE000002302931AE60F2D00D0C9E0802352464E
:101AF0001B031A4202D01C4200D192E080245346BC
:101B000024031C4324034246240B3EE69B46032346
:101B100080460C25029301E600239A469B4601333A
:101B200004250293FAE501210D430A2D00DD4BE661
:101B3000494600984140C9B20391022D00DC96E06D
:101B400000230024012001930CE649460223009A59
:101B50002B435140CAB203920A2B00DD34E6002D1C
:101B600057D1039B994600240022494B0EE6584664
:101B70000121C91A382900DD2FE61F2956DD1F2251
:101B800054465242D31ADC40202907D0414B4246EA
:101B90009C465346604483401A4390464246072180
:101BA000531E9A410B00224313400024114209D0D6
:101BB0000F231340042B5DD0111D91429B410A005D
:101BC0005B425B07D2081A430023DFE5039B99467B
:101BD000FAE50198FEF754FC0200030015322033A9
:101BE0001C2A00DC38E7019A083882403FE7FEF7FC
:101BF00047FC15239C4684440200634620321C2B7C
:101C000000DC58E7002398462300083883409A46B2
:101C100062E71D000023002402200193A2E5029048
:101C200032E61C43009B019A9946AEE51A4B524698
:101C3000C31840469A40C8400243404698400300BB
:101C4000581E834154461A43CC40530709D00F23F2
:101C50001340042B05D0131D934292415242A41805
:101C60001A00230208D50123002400228EE58946AC
:101C700000248BE50023A5E763076402240BA1E79A
:101C8000009BA2469946019B984637E70DFCFFFF53
:101C9000FF0700003E0400001E040000F0B5574698
:101CA0004E464546DE46E0B583B0009001910C03F8
:101CB0004D00CE0F610A009C5F00640F0C43009939
:101CC00000920193C80019037B0D9946019BCC4FEC
:101CD000DB0F9C464B0A00998046490F1943009B35
:101CE0008B46DA0092466D0DB94500D1BFE0012365
:101CF000614659404B468C46EB1A8E4275D0002BFC
:101D000000DCA3E24946002900D1CEE0BD4200D16B
:101D100000E20127382B19DC802759463F0439435C
:101D20008B461F2B00DDFAE12027F91A8C46594615
:101D30006746B9400F001100D9400F4361468A4001
:101D4000511E8A415946D9401743641AC71BB842ED
:101D500080414042241A230200D440E16402640A14
:101D6000002C00D154E12000FEF78AFB0300083B61
:101D700020213800CA1AD0409C4002009F402243D4
:101D80009D4200DDA6E1581B0130091A3C008F403E
:101D9000C4407B1E9F4113008B4027431F43C2401A
:101DA0003B0014000025134300D1F7E17B0700D16D
:101DB00077E30F2338003B40042B04D0381DB84292
:101DC000BF417F42E419230200D468E38C4B013504
:101DD0009D4200D1F4E08B4B6D051C406D0D6707F3
:101DE000C00864020743240BECE0002B00DC29E36D
:101DF0004946002900D0D6E05946114300D12EE1D2
:101E0000591E012B00D1E6E1BB4200D182E101273E
:101E10000B00382914DC1F2B00DD3CE22027F91AC7
:101E20008C4659466746B9400F001100D9400F4310
:101E300061468A40511E8A415946D9401743641869
:101E40003F188742804140422418230200D4C6E054
:101E50006B4B01359D4200D1B2E00121694B7A08FC
:101E60001C4039400A43E707174364089EE7664B66
:101E700011438A46EB18002928D066452CD0002B48
:101E80005BD0002D00D12CE15B4666465F07D2088F
:101E90001743DD083B002B4300D1E2E080242403FC
:101EA0002C432403564D240B8CE05946114300D19A
:101EB000D5E0591E012B00D1B9E1BB4200D1B1E1FF
:101EC00001270B00382900DD40E72AE7614601279A
:101ED00079408C466645D2D1002B00D1C5E0002D5B
:101EE00000D055E14B462500054300D112E2591EB2
:101EF0008C46012B00D149E2414DAB4200D18FE22B
:101F00000127382911DC63461F2B00DD5BE26146A7
:101F1000202327005B1A050098409F40CD40431EB8
:101F20009841CC402F430743A344BF1897429241A6
:101F300052425A4414004D4687E7344F6B1C3B42D3
:101F400000D0B6E05946230011430F000343002D93
:101F500000D026E1002B00D1C0E1002900D1A1E092
:101F6000831A98465B464045AD41E31A6D425B1BC0
:101F700080252D042B4200D14BE15B46101A824292
:101F800092411C1B0700012663465242A41A2743B4
:101F90001E40002F00D142E12C4200D16DE2194BCE
:101FA00001251C401BE7BD4200D13BE10127382B36
:101FB00000DD45E7802759463F0439438B462AE731
:101FC000002400272D052543F60735433800290056
:101FD00003B0F0BCBB46B246A946A046F0BD7B07A5
:101FE00004D00F233B40042B00D0E7E62B00F80879
:101FF000034A67070743E508934200D14AE7A5E093
:10200000FF070000FFFF7FFF01F8FFFFFE07000052
:102010003800FEF735FA030018331F2B00DCA7E663
:102020003A00083882409D4200DD8AE05B1B581C64
:102030001F2800DCD8E117001F3BDF40202805D017
:1020400040231B1A9A40531E9A4117430025002F24
:1020500000D1E5E07B0700D0ABE62C00C6E7C00866
:10206000C6E700270024D14DACE7D14F6B1C3B42A3
:1020700071D123000343002D00D04EE15746002BC1
:1020800000D1B5E1002F0DD08318834280415C441C
:1020900040422418220200D5C8E11F009846274379
:1020A00000D1BCE043466707DB081F43E508002377
:1020B0004CE0831A98465B464045BF41E31A7F4295
:1020C000DB1B1F027CD447461F4300D1A6E01C0047
:1020D000474645E6B74CED1A14407B0700D080E731
:1020E00084E74B462500054366D05F1E012B00D1D7
:1020F000FCE0AE4DAB4200D15EE16646382F00DC1D
:10210000B4E00120171ABA4292415B4652424D4652
:102110009C1A20E66707C0080743E508BAE61F00D7
:102120005946203FF9400F00202B05D04021CB1A03
:10213000594699400A43924653465A1E93411F43BB
:1021400004E6EB1A9B4D15406F07ED082C035D0567
:10215000240B6D0D36E7954DAB4200D1D6E08218C9
:10216000210082428041594440420818C707520862
:1021700017434408520700D485E10F221D003A405E
:10218000042A00D01AE6FF08640727430509DDE7A3
:102190005B46D2085F071743DD087BE60027002473
:1021A00010E7002B00D0D6E0002900D02FE18024DA
:1021B00000267E4D240305E766465C46D00817E7F7
:1021C0005B46171ABA4292411C1B012663465242D3
:1021D000A41A1E40C4E58318834280415C444042F7
:1021E00025182A0200D4DAE0724A5B081540EA0793
:1021F0001A4369085B0700D44AE10F231340042BFC
:1022000000D1FCE0171D9742A441644202256418E6
:10221000ECE647461C001F4300D043E7002600259C
:102220000024CFE6C00867070743E50832E6871AAF
:102230005B46B8428041E41A4042241A230228D463
:102240006307FF081F43E50801237FE7002B00D148
:1022500073E64B465F1B3B00002D00D142E7382F51
:1022600000DDECE080230E001B041C431F2F25DC47
:1022700020252300ED1B0100A840AB40F940451E7E
:10228000A8410B43FC4018435B461B1B9B4639E7A8
:102290006646012562E51F005946203FF9408C46FD
:1022A000202B05D040275946FB1A99400A439246F5
:1022B00057467B1E9F4163461F43C1E53B002500F7
:1022C000203BDD40202F04D04023DB1B9C402043DB
:1022D00080464046431E9841284313E700299DD07D
:1022E000012663465C4690461E40DBE6171A5B46B5
:1022F000BA4292411C1B5242A41A2302C8D463075B
:10230000FF081F4366460123E5081FE71D00002460
:10231000002757E65C46D0086AE6002B00D137E775
:102320005346C00867070743E508002B00D1B1E515
:1023300080231B031D4208D05946C808184204D107
:10234000D20849070A43170005007B0FFF00FF086A
:102350005B071F439EE5C00863071843E508002993
:1023600053D080231B031D420AD05946CC081C427F
:1023700006D1012663462500D008490708431E40C0
:10238000470FC000C0087F07074383E583189342C7
:1023900092415C445242A5182A0200D524E76F07F7
:1023A000DB081F43ED080123D0E6C046FF0700000D
:1023B000FE070000FFFF7FFF5B46D2085F0766460F
:1023C0001743DD0866E52500203BDD406346202BF2
:1023D00005D0402361465B1A9C4020438046474617
:1023E0007B1E9F412F43A0E520210027091AD2E43C
:1023F000002F00D113E75C4617000025F6E5D7084B
:10240000490702230F432D09A0E6070042E55B467A
:1024100001265F07DD086346D20817431E4039E5F1
:102420005B46D2085F071743DD0833E51E4ADB0829
:1024300022405707520201251F43140BC2E50E002C
:1024400001205FE6002B0DD04B465B1B9C46002D08
:1024500000D148E50127382B00DD66E580231B0409
:102460001C4350E56B1C114D2B4200D073E65946BE
:10247000230011438A46034300E66707C008002390
:102480000743E50862E66407FF08274305095DE6A0
:10249000D208490711430F0002232D0956E6070011
:1024A000A4E538008FE4C046FFFF7FFFFE07000071
:1024B000F0B5C6461E03360BB0460D4E0C034D005C
:1024C0005F0000B5240B6D0D7F0DB5420BD00849A0
:1024D00000208F4204D1464616433000431E9841E7
:1024E00080BCB846F0BD04430120002CF8D1EEE7D3
:1024F000FF0700000B00020070B5164D0C0382B000
:102500004900002000920193240B490DDE0FA942DF
:1025100004DD1148814203DD104BF01802B070BD9C
:102520008020400320430E4C641A1F2C08DD0D4B05
:102530005B1AD84003005842002EEFD11800EDE797
:10254000094B009A9C46030061448B40E2401343D0
:10255000F1E7C046FE0300001D040000FFFFFF7FFF
:102560003304000013040000EDFBFFFF10B5041E50
:1025700010D0FDF785FF0E4B1B1A5B055B0D0A287B
:102580000FDC0B222100121AD14015300A038440BF
:10259000120B01E0002300221B0513432000190049
:1025A00010BD22000B38824012030024120BF3E707
:1025B0001E04000010B5002903D1FDF761FF203093
:1025C00002E00800FDF75CFF10BDC04680B584B096
:1025D00000AF78607B68DB0ADAB20F203B187F21FE
:1025E0000A401A703B181B781800BD4604B080BD25
:1025F000B0B582B000AF786079680A0000210B00A6
:10260000D10ACC0200210B401D0022002B0010003B
:102610001900BD4602B0B0BD90B589B000AF78607A
:10262000C04610F0F1FA031EFBD110243B1918002C
:1026300010231A00002118F0D9F921007B1801227B
:10264000DA607B187A689A607B1802221A6000238D
:10265000FB600C23FA187B181100180010F082FBA5
:10266000064B180013F0B8F8C04610F0F1FA031E3C
:10267000FBD1C046C046BD4609B090BDF004002065
:1026800090B587B000AFF860B960FB1D1A70C04606
:1026900010F0BAFA031EFBD11723FB1800221A70A0
:1026A00015E017243B191B78DB00FA68D3181900D2
:1026B0003B191B78DB00BA68D3181A685B680120E5
:1026C00010F054FA3B191A783B1901321A7017238B
:1026D000FA18FB1D12781B789A42E2D3C04610F01C
:1026E000B7FA031EFBD1C046C046BD4607B090BD39
:1026F000F0B5C64600B5EC4CA54400AFEB4BEC4A38
:102700003024121908218C46BC4462441360E94B02
:102710001B190822BA189A1880231370E6490B195E
:102720000822BA189A1801231370E44B1B190822C7
:10273000BA189A187E231370E14BE24A1019082543
:10274000AC46BC4460440360131908229446BC4460
:1027500063441B681A68D54B9A4225D00B1908228E
:10276000BA189A1800231370D74B9522D2009B18E1
:102770003022944608229046B844C444634418006A
:102780008023DB001A00002118F030F990231B1978
:1027900008229446BC446344CC4A121908218C4652
:1027A000BC446244136045E0C046C94BC54A30246E
:1027B000111908208446BC4461440B601319082297
:1027C0009446BC4463441B681A68C24B9A4200D1C9
:1027D0005DE1C04BB64A121908218C46BC446244E4
:1027E0001360BD4B9522D2009B18302294460822DC
:1027F0009046B844C4446344180090231A00002152
:1028000018F0F4F8AB4B1B190822BA189A181223C7
:1028100013700823E318DB19AC4A121908218C46FF
:10282000BC4462441360A54B1B190822BA189A18BD
:102830007F231370A94B30229B180822BA189A18CC
:1028400000231370D9E09A4E3022B31808218C4629
:10285000BC4463441B681978A048140083180822FC
:102860009446BC4463441B78DA00984B1B19082536
:10287000AC46BC4463441B689B18396200227A62F0
:10288000396A7A6A19605A60031908229446BC446E
:1028900063441B78DA008D490B19082179185918FF
:1028A0000B689B181868596833190822BA189A18C7
:1028B0001368BB61DB17FB61BA691200FA6200237F
:1028C000BB62864B1B1908229446BC4463441B78A8
:1028D000DA007E4B1B190825AC46BC4463441B68D8
:1028E0009B18BA6A02433A61FA6A0A437A61396903
:1028F0007A6919605A60210073180822BA189A1868
:102900001268774B9A425BD36B4A5318082294465D
:10291000BC4463441B78002B52D073180822BA18A9
:102920009A1813680133721808208446BC44624424
:1029300013606A4B08005B1808229446BC44634449
:102940001B78DA006149040009180823FB18C8182D
:1029500003689B181868596823001C00F2180823A4
:102960009C46BC44624413681B783B6300237B6332
:102970003A6B130E7A6B12027A607A681A437A60A5
:102980003A6B13023B60554B26009B190822944674
:10299000BC4463441B78DA004C4B9B190824A446C2
:1029A000BC4463441B689B1802003C682243BA6025
:1029B0000A0079680A43FA60B968FA6819605A60CF
:1029C0003B4A3021531808208446BC4463441B68AA
:1029D0000133521808208446BC44624413603F4AC5
:1029E000531808208446BC4463441B7852180821BD
:1029F0008C46BC44624401331370384B30215B1861
:102A00000822BA189A182B4E731808208446BC4422
:102A1000634412781B789A4200D214E7274B0C00CB
:102A20005B1808229446BC4463441B781800FFF7E7
:102A3000F3FD244B22009B1808218C46BC446344C0
:102A40001B68181F1400331908229446BC446344C1
:102A50001A781E4B1B1908218C46BC4463441B6822
:102A60001900FFF70DFE144920000B1808229446A8
:102A7000BC4463441A7801235340DBB2002B08D0D6
:102A80000B180822BA189A18012313708DE6C04655
:102A900000E0C046134B30229B1808229446BC44E9
:102AA000634400221A7043E020FBFFFF00F003089C
:102AB000A4040000A30400009B0400009A0400008A
:102AC00004F0030894040000E8FBFFFF9C040000EE
:102AD00004F8030800F8030858FBFFFF9304000004
:102AE00010F8030892040000634C30256319082293
:102AF0009446BC4463441A78604BD318180000F025
:102B0000A9FA0200631908218C46BC4463441B786F
:102B1000D1B25B4AD154631908229446BC44634441
:102B20001A78631908218C46BC44634401321A7038
:102B3000514B30229B1808229446BC4463441B78B6
:102B40005BB2002BD0DA4F4B180000F083FA030081
:102B5000DAB24D4B1A704D4B180000F07BFA0300AF
:102B6000DAB24B4B1A704B4B180000F073FA0300AB
:102B7000DAB2494B1A70494B180000F06BFA0300A7
:102B8000DAB2474B1A70474B180000F063FA0300A3
:102B9000DAB2454B1A70454B180000F05BFA03009F
:102BA000DAB2434B1A70434B180000F053FA03009B
:102BB000DAB2414B1A70414B180000F04BFA030097
:102BC000DAB23F4B1A703F4B180000F043FA030093
:102BD000DAB23D4B1A703D4B180000F03BFA03008F
:102BE000DAB23B4B1A703B4B180000F033FA03008B
:102BF000DAB2394B1A70394B180000F02BFA030087
:102C0000DAB2374B1A70374B180000F023FA030082
:102C1000DAB2354B1A70354B180000F01BFA03007E
:102C2000DAB2334B1A70334B180000F013FA03007A
:102C3000DAB2314B1A70314B180000F00BFA030076
:102C4000DAB22F4B1A702F4B180000F003FA030072
:102C50009AB22D4B1A802D4B180000F0FBF903009F
:102C60009AB22B4B1A80C046BD469C23DB009D4484
:102C700080BCB846F0BDC0469204000000F00308D6
:102C8000780C002000F80308B801002001F80308C0
:102C9000B901002002F80308F80C002003F803082B
:102CA000BA01002004F80308F90C002005F8030815
:102CB000FA0C002006F80308FB0C002007F80308B4
:102CC000FC0C002008F80308BB01002009F80308E9
:102CD000BC0100200AF80308BD0100200BF803081E
:102CE000BE0100200CF80308BF0100200DF8030806
:102CF000C00100200EF80308C10100200FF80308EE
:102D0000C201002010F80308FE0C002012F803088E
:102D1000000D0020F0B5C34CA54400AFC24B932674
:102D2000F6009B1958229446BC4463441800802343
:102D3000DB001A00002117F059FEBC4B9B195822EA
:102D40009446BC446344180090231A00002117F0F5
:102D50004DFEB74BB74A58215218D2191360B64BE3
:102D600058229B18DA190023137030E0B148582319
:102D7000C318DB191B683B65DB177B65AE4E582318
:102D8000F318DB1919783B6D1B00FB640023BB644F
:102D9000A54B9322D2009B185822BA189A18CB0040
:102DA000D318B96CFA6C19605A605823C318DB1930
:102DB0001B68013358228218D21913605823F31864
:102DC000DB191B785822B218D219013313709A4BB1
:102DD00058229B18DB191B785BB2002BC6DA924B8A
:102DE0009320C0001B1858229446BC4463441A68C0
:102DF0005B68AA2111430C00002119430D008A4B86
:102E00001B1858229446BC4463441C605D60864B8A
:102E100005001B185822BA189A1882239B00D31851
:102E20001A685B686621114339640021194379648B
:102E30007D4B5B195822BA189A1882239B00D3182D
:102E4000396C7A6C19605A60774B5B195822BA1842
:102E50009A18FE239B00D3181A685B68CC21114393
:102E6000B96300211943F9636F4B5B195822BA18F3
:102E70009A18FE239B00D318B96BFA6B19605A603D
:102E8000694B5B195822BA189A18F6239B00D3187D
:102E900018685968694B1B783B6300237B633B6B65
:102EA0007C6B1A000243BA6223000B43FB625E4B49
:102EB0002C001B195822BA189A18F6239B00D31815
:102EC000B96AFA6A19605A60574B1B195822BA1826
:102ED0009A18F8239B00D3181A685B685849097838
:102EE000396200217962386A796A05001543BD614B
:102EF0001943F9614C4B1B195822BA189A18F82338
:102F00009B00D318B969FA6919605A604D4B494A58
:102F100058215218D21913604B4B58229B18DB19B9
:102F200000221A705AE0484C5823E318DB191B782A
:102F30003E4A9326F600921958218C46BC446244BE
:102F4000DB00D3181A685B683A4858214118C91940
:102F500009683961C917796139690900F960002187
:102F6000B96058216118C91909788C46BC68FD6898
:102F70002100114339602900194379602B4B9B19BB
:102F80005822BA189A186346DB00D31839687A6851
:102F900019605A605823C318DB191A682B4B9A42E0
:102FA00008D35823C318DB191B6801335822821831
:102FB000D21913601F4A5823D318DB191B68013339
:102FC00058215218D21913601F495823CB18DB1906
:102FD0001A785823CB18DB1901321A701A4B582271
:102FE0009B18DB191B78112B9DD97E20FFF714FB52
:102FF0007F20FFF711FB902358229B18DB190C4808
:1030000080221900FFF73CFB5823FB180D481222C1
:103010001900FFF735FBFFF76BFBC046BD460C4BB5
:103020009D44F0BD0CFBFFFFF8FBFFFF68FBFFFFBB
:1030300000F003089404000093040000F0EF01087E
:10304000F1EF010800F803089204000010F80308EB
:10305000F404000080B584B000AF78607B6818008D
:10306000FFF7C6FA02000B001300BB60BB68134AEF
:1030700094466344FB60BB68114A934203D9BB6822
:10308000104A93420ED901235B4213E0FB68083BD0
:10309000FB60FA68BB689A4204D2FFF73BFE01234B
:1030A0005B4207E0FB681B687A689A42EED1FB68D6
:1030B000043B1B681800BD4604B080BDFC0700003F
:1030C000FFEF0308FFFF0308F0B58DB000AF786293
:1030D0003962FA6100220023BA62FB623B6A3B61FB
:1030E00000237B613B691B00FB600023BB60BA6867
:1030F000FB68BA62FB62FB693B6000237B60BA6AD3
:10310000FB6A3868796806001643340019430D00DD
:10311000BC62FD62102318229B18D9197B6A012218
:103120001800FFF7ADFAC046BD460DB0F0BDB0B512
:1031300084B000AF78607B68FF22D200944663447D
:10314000FB6002E0FB68083BFB60FB681A685B6899
:10315000511C01D10133F5D0FB680833FB60FB68DB
:103160001C00DB171D0022002B0010001900BD46BB
:1031700004B0B0BDB0B58CB000AF786039602F241A
:103180003B1901221A702E257B1912221A707B68B6
:103190001800FFF72DFA02000B001300FB61FB691A
:1031A000554A934205D13B1900221A707B1980229F
:1031B0001A70FB69BB61FB691800FFF7B8FF0200DA
:1031C0000B001300BB62BB69FF22D200944663442C
:1031D0007B61BB6A083B7A699A4200D082E02E2369
:1031E000FB181B78180017F02DFB03003B61FB69EF
:1031F0007B622323FB1800221A7023E0796A2323C1
:10320000FB181B789B003A69D4180800FFF722FFCF
:10321000030023607B6A01337B627B6A374A9A42F0
:103220009B415B42DBB21A002F23FB181B78134033
:1032300002D07B6A01337B6223217B181A787B18CA
:1032400001321A702323FA182E23FB1812781B78E8
:103250009A42D3D3FB690F257C191800FFF7B6F902
:10326000030023707B191B781800FFF7D5F9FB6961
:10327000BB62FB697B622223FB1800221A701EE0EE
:10328000796A2223FB181B789B003A69D3181A68C5
:10329000BB6A1800FFF718FF7B6A01337B627A6A0A
:1032A000164B9A4202D97B6A01337B62BB6A0833B0
:1032B000BB6222217B181A787B1801321A702223F4
:1032C000FA182E23FB1812781B789A42D8D33A6842
:1032D0007968BB6A1800FFF7F7FE3B69180017F022
:1032E000BBFA05E03A687968BB6A1800FFF7ECFEA4
:1032F000C046BD460CB0B0BD00F0030810F803088E
:1033000080B582B000AFFB1C00221A70BB1C0022EB
:103310001A703B0000221A8000237B60D8E07B6893
:103320000233704AD35C302B02D1FB1C00221A708E
:103330007B6802336B4AD35C312B02D1FB1C012228
:103340001A707B680233674AD35C322B02D1FB1CB4
:1033500002221A707B680233624AD35C332B02D19B
:10336000FB1C03221A707B6802335E4AD35C342B49
:1033700002D1FB1C04221A707B680233594AD35CC9
:10338000352B02D1FB1C05221A707B680233554A8B
:10339000D35C362B02D1FB1C06221A707B680233E9
:1033A000504AD35C372B02D1FB1C07221A707B6872
:1033B00002334C4AD35C382B02D1FB1C08221A7012
:1033C0007B680233474AD35C392B02D1FB1C0922AC
:1033D0001A707B680233434AD35C412B02D1FB1C39
:1033E0000A221A707B6802333E4AD35C422B02D118
:1033F000FB1C0B221A707B6802333A4AD35C432BC6
:1034000002D1FB1C0C221A707B680233354AD35C54
:10341000442B02D1FB1C0D221A707B680233314A07
:10342000D35C452B02D1FB1C0E221A707B68023341
:103430002C4AD35C462B02D1FB1C0F221A707B68EE
:103440000122134005D1BB1CFA1C127812011A701C
:103450003BE0BB1CB91CFA1C097812780A431A70AD
:103460007B68012B05D07B68052B02D07B68092B7C
:1034700005D1BB1C1B789AB23B0012021A807B68F4
:10348000032B05D07B68072B02D07B680B2B07D161
:10349000BB1C1B7899B23B003A0012880A431A8081
:1034A0007B68032B03D1104B3A0012881A807B688B
:1034B000072B03D10C4B3A0012885A807B680B2BE8
:1034C00003D1094B3A0012889A807B6801337B60F4
:1034D0007B680B2B00DC22E7C046C046BD4602B02D
:1034E00080BDC0465C1E00208800002090B585B0DD
:1034F00000AF3A60BB1D021C1A803B1D0A1C1A80DB
:103500000D217B1800221A700F203B1800221A7020
:103510002C4B1B88BA1D12889A424BD8294B1B880A
:103520003A1D12889A4245D33B1801221A703B1D5E
:103530001B88DAB2234B1B88DBB2D31ADAB27B18B2
:1035400001321A707B181B789AB21F4B1B889A4263
:103550002DD30E217B1800221A707B1800221A70BE
:1035600017E00E243B191878164B1B881A00BB1D58
:103570001B88D21A3B191B78D3185B003A68D31802
:103580001B88190001F07AF83B191A783B190132AF
:103590001A700E23FB181B789AB20B4B1B889A42A9
:1035A000DFD30A4B1B78180001F086F802E00320F5
:1035B00001F0ACF90F23FB181B781800BD4605B0CD
:1035C00090BDC0466E03002070030020BC030020A5
:1035D00090B583B000AFFB1D00221A70754BDA78EE
:1035E000754B5B781343DAB2734B9B781343DBB2B2
:1035F00001225340DBB2002B03D0704B00221A8013
:1036000016E06D4B5B78002B03D06C4B01221A80C7
:103610000EE0694B5B78002B03D0684B02221A80C6
:1036200006E0644BDB78002B02D0644B06221A8044
:10363000634B5B781A00614B5A80624B1B781A000F
:103640005E4B9A805E4B9B781A005C4BDA805C4B39
:103650001B781A00594B1A81574B5B781A00574B4D
:103660005A81564B00229A81544B1B88002B03D160
:10367000524B0122DA8102E0504B0022DA814E4B9C
:103680005B781A004D4B1A824B4B9B781A004B4BC0
:103690005A824A4B00229A82484B0022DA82454BDA
:1036A000DB781A00454B1A83444B00225A83464B61
:1036B0001B781B029BB2454A12789B189AB2444B66
:1036C0001A80444B1B781B029BB2434A12789B180A
:1036D0009AB23F4B5A80414B1B781A1C9200D31868
:1036E000DB189AB23A4B9A80394BDC22DA803C4B99
:1036F000DB791A003B4B1A80394B9B791A00394B06
:103700005A80374B1B791A00364B9A80344B9A7883
:10371000334BDB781343DBB21A00324BDA80314B88
:1037200000221A812E4B1A782D4B5B781343DBB2A3
:103730001A002C4B5A812C4B5B781A00294B9A812A
:10374000294B9B791A00274BDA81254B1A78244B99
:103750005B781343DBB21A00224B1A82234B244AB4
:103760001A80224B234A5A80204BFF229A80FFF76F
:10377000C7FD214B7B229B5C1B029BB21E4A7C2116
:10378000525C9B189AB21D4B1A8001F073F902002B
:10379000FB1D1A70FB1D1B78002B01D000F07DFE75
:1037A000C046174B1B78032B2CD0062B00D185E18C
:1037B00000F036FE640B0020280C00205000002092
:1037C000900B0020CC0B00209C0B00209D0B0020B8
:1037D0006C0000209E0B00209F0B0020BA0B0020E5
:1037E000740B0020740000206C0B00208800002067
:1037F000A2B4FFFF4FEBFFFF780C002090000020E9
:10380000BC030020C046DF4B00221A80DE4B522250
:103810009B5C202B02D1DB4B01221A80DB4B180072
:10382000FFF718FC03009BB21B029CB2D84B180098
:10383000FFF710FC03009BB2E3189AB2D54B1A8035
:10384000D14BDB781B029BB2CF4A12799B189AB2FC
:10385000D14B1A80CC4B72229B5C1A00CF4B1A8042
:10386000C94B49229B5C1A00CD4B1A80CD4A0E23CE
:10387000FF33190080235B001800FFF737FE031E9B
:1038800001D000F0D1FDC84AC84980239B0118002F
:10389000FFF72CFE031E01D000F0C8FDC44A8223AE
:1038A000990080239B001800FFF720FE031E01D023
:1038B00000F0BEFDBF4AC049C0239B001800FFF7BF
:1038C00015FE031E01D000F0B5FDBC4AC4239900CB
:1038D000C4239B001800FFF709FE031E01D000F06F
:1038E000ABFDB74B1A0010211020FFF7FFFD031EA0
:1038F00001D000F0A3FDB34AC0239901C0239B016E
:103900001800FFF7F3FD031E01D000F099FD9D4B59
:10391000AD49AD481A00FFF7E9FD031E01D000F0E4
:1039200091FD9C4BA949A9481A00FFF7DFFD031E32
:1039300001D000F089FD984BA549A5481A00FFF772
:10394000D5FD031E01D000F081FDA24BA249A24883
:103950001A00FFF7CBFD031E01D000F079FD9F4B4D
:103960009F499F481A00FFF7C1FD031E01D000F0D8
:1039700071FD9C4B9C499C481A00FFF7B7FD031E44
:1039800001D000F069FD994B994999481A00FFF759
:10399000ADFD031E01D000F061FD964B964996489F
:1039A0001A00FFF7A3FD031E01D000F059FD934B51
:1039B000934993481A00FFF799FD031E01D000F0C8
:1039C00051FD904B904990481A00FFF78FFD031E60
:1039D00001D000F049FD8D4B8D498D481A00FFF74D
:1039E00085FD031E01D000F041FD8A4B8A498A48BB
:1039F0001A00FFF77BFD031E01D000F039FD874B55
:103A0000874987481A00FFF771FD031E01D000F0B7
:103A100031FD844B844984481A00FFF767FD031E7B
:103A200001D000F029FD5D4B804980481A00FFF766
:103A30005DFD031E01D000F021FD594B7C497C48FF
:103A40001A00FFF753FD031E01D000F019FD794B5A
:103A5000794979481A00FFF749FD031E01D000F0AB
:103A600011FD764B764976481A00FFF73FFD031E9D
:103A700001D000F009FD734B734973481A00FFF73A
:103A800035FD031E01D000F001FD704B70497048F8
:103A90001A00FFF72BFD031E01D000F0F9FC6D4B5F
:103AA0006D496D481A00FFF721FD031E01D000F09B
:103AB000F1FC022000F02AFF00F0EFFC674B1A88AF
:103AC000C0239B019A4210D3644B1A88C0239B01E8
:103AD0009A420AD8624B1B88DBB21A00394B1A8013
:103AE000604B1B78180000F0E7FD5C4B1B885E4ABA
:103AF000934200D8C4E0594B1B88334A934200D903
:103B0000BEE0574B1B88DBB21A001E4B1A801D4BC0
:103B10001B88012B18D11C4B52229B5C202B01D1FE
:103B2000C04611E0514B20221A70504B1B781A00EE
:103B30004F4B1900100003F0E3FB4C4B1978124B6C
:103B400052229954C046FDE70E4B1B88002B00D033
:103B500091E00D4B52229B5C202B00D08AE0434B1E
:103B600000221A70414B1B781A00414B19001000BB
:103B700003F0C6FB3D4B1978034B52229954C046C3
:103B8000FDE7C046F40A0020780C002001F003088D
:103B900002F003089400002096000020AA000020F4
:103BA000AC000020500000206C000020032000002A
:103BB0007400002088000020020300009000002014
:103BC000F20A0020920000200230000004300000C1
:103BD000063000009800002008300000F60A00209F
:103BE0000A3000009A0000200C300000F80A002083
:103BF0000E3000009C000020103000009E000020CD
:103C000012300000A000002014300000A2000020AC
:103C100016300000A400002018300000A60000208C
:103C20001A300000A80000201C3000001E300000E8
:103C300004310000AE00002006310000B00000207A
:103C400008310000B20000200A310000B40000205A
:103C50000C310000B60000200E310000720300207D
:103C600074030020BC03002001300000420B002040
:103C700052F00308C046BD4B1B78180000F01CFD35
:103C8000BB4B1B88BB4A93422ED9B94B1B88BA4AFF
:103C9000934229D8B94B1A88B94B1A80B84B1B8864
:103CA0001B0A9BB2DAB2B74B1A70B54B1B88DAB25B
:103CB000B54B1A70B34B1B781A00B44B19001000A7
:103CC00003F01EFBB04B1B781A00B14B190010001B
:103CD00003F016FBAB4B1A78AE4B5A70AA4B1A780E
:103CE000AC4B9A70C046FDE7A14B1B88AA4A934291
:103CF0002ED99F4B1B88A94A934229D89F4B1A88DB
:103D0000A74B1A80A64B1B881B0A9BB2DAB29D4BAD
:103D10001A70A34B1B88DAB29B4B1A70994B1B7815
:103D20001A00A04B1900100003F0EAFA964B1B781A
:103D30001A009D4B1900100003F0E2FA914B1A781B
:103D4000944BDA70904B1A78924B1A71C046FDE78B
:103D5000874B1B88954A93420FD9854B1B88944A01
:103D600093420AD8854B1B88DBB21A00914B1A800C
:103D70007E4B1B78180000F09FFC7D4B1B888E4A01
:103D800093420FD97A4B1B888C4A93420AD87B4BBB
:103D90001B88DBB21A008A4B1A80744B1B78180000
:103DA00000F08AFC724B1B88864A93420FD9704BF5
:103DB0001B88854A93420AD8704B1B88DBB21A00D5
:103DC000824B1A80694B1B78180000F075FC684B19
:103DD0001B887F4A93420FD9654B1B887D4A9342CB
:103DE0000AD8664B1B88DBB21A007B4B1A805F4BEC
:103DF0001B78180000F060FC5D4B1B88774A9342EB
:103E00000FD95B4B1B88764A93420AD85B4B1B88C1
:103E1000DBB21A00734B1A80544B1B78180000F069
:103E20004BFC534B1B88704A93420FD9504B1B8855
:103E30006E4A93420AD8514B1B88DBB21A006C4B76
:103E40001A804A4B1B78180000F036FC484B1B8840
:103E5000684A93420FD9464B1B88674A93420AD857
:103E6000464B1B88DBB21A00644B1A803F4B1B7811
:103E7000180000F021FC3E4B1B88614A93420FD989
:103E80003B4B1B885F4A93420AD83C4B1B88DBB2F2
:103E90001A005D4B1A80354B1B78180000F00CFCA3
:103EA000334B1B88594A93420FD9314B1B88584AD0
:103EB00093420AD8314B1B88DBB21A00554B1A804B
:103EC0002A4B1B78180000F0F7FB294B1B88524A3D
:103ED00093420FD9264B1B88504A93420AD8274B4E
:103EE0001B88DBB21A004E4B1A80204B1B7818003F
:103EF00000F0E2FB1E4B1B884A4A93420FD91C4B31
:103F00001B88494A93420AD81C4B1B88DBB21A0013
:103F1000464B1A80154B1B78180000F0CDFB144B54
:103F20001B88434A934200D88AE0114B1B88414AC0
:103F3000934200D984E0114B1B88DBB21A003E4B40
:103F40001A803D4B1B88DAB20E4B1A700D4B1B7852
:103F50001A003A4B1900100003F0D2F9094B1978F6
:103F60000C4B72229954C046FDE7C046BC030020AA
:103F700072030020033000000430000074030020AE
:103F800094000020420B0020430B002001F00308A6
:103F900002F00308780C0020053000000630000015
:103FA0009600002003F0030804F003080730000027
:103FB0000830000098000020093000000A3000009E
:103FC000F60A00200B3000000C3000009A000020A0
:103FD0000D3000000E300000F80A00200F30000005
:103FE000103000009C000020113000001230000052
:103FF0009E0000201330000014300000A0000020BC
:104000001530000016300000A2000020173000001C
:1040100018300000A4000020193000001A30000001
:10402000A60000201B3000001C300000A80000206B
:104030001D3000001E300000AA00002072F00308AE
:10404000AA4B1B88AA4A93421ED9A84B1B88A94A8F
:10405000934219D8A84B1B88DBB21A00A74B1A80D1
:10406000A64B1B88DAB2A64B1A70A54B1B781A0018
:10407000A44B1900100003F043F9A14B1978A24B8F
:1040800049229954C046FDE7984B1B889F4A9342AA
:104090000FD9964B1B889E4A93420AD8964B1B8891
:1040A000DBB21A009B4B1A809B4B1B78180000F068
:1040B00003FB8E4B1B88994A93420FD98B4B1B886D
:1040C000974A93420AD88C4B1B88DBB21A00954B57
:1040D0001A80914B1B78180000F0EEFA834B1B8876
:1040E000914A93420FD9814B1B88904A93420AD838
:1040F000814B1B88DBB21A008D4B1A80864B1B78D4
:10410000180000F0D9FA794B1B888A4A93420FD9DC
:10411000764B1B88884A93420AD8774B1B88DBB2C0
:104120001A00864B1A807C4B1B78180000F0C4FAEA
:104130006E4B1B88824A93420FD96C4B1B88814A75
:1041400093420AD86C4B1B88DBB21A007E4B1A8054
:10415000714B1B78180000F0AFFA644B1A88C82323
:104160009B019A4210D3614B1A88C8239B019A4243
:104170000AD8614B1B88DBB21A00744B1A80664B5D
:104180001B78180000F098FA584B1B88704A93422D
:104190000FD9564B1B886F4A93420AD8564B1B883F
:1041A000DBB21A006C4B1A805B4B1B78180000F0D6
:1041B00083FA4E4B1B88694A93420FD94B4B1B889D
:1041C000674A93420AD84C4B1B88DBB21A00654BF6
:1041D0001A80514B1B78180000F06EFA434B1B8875
:1041E000614A93420FD9414B1B88604A93420AD8D7
:1041F000414B1B88DBB21A005D4B1A80464B1B7883
:10420000180000F059FA394B1B885A4A93420FD9CB
:10421000364B1B88584A93420AD8374B1B88DBB26F
:104220001A00564B1A803C4B1B78180000F044FAD9
:104230002E4B1B88524A93420FD92C4B1B88514A54
:1042400093420AD82C4B1B88DBB21A004E4B1A80C3
:10425000314B1B78180000F02FFA244B1B884B4A77
:1042600093420FD9214B1B88494A93420AD8224BCB
:104270001B88DBB21A00474B1A80274B1B781800AB
:1042800000F01AFA194B1B882F2B1AD9174B1B88D1
:10429000302B16D8184B1B88012B04D13E4BDB78F2
:1042A000002B00D0C046144B1B88002B04D13A4B86
:1042B000DB78002B00D1C046174B1B78180000F0AC
:1042C000FBF90A4B1B88302B00D87EE0074B1B887C
:1042D000312B00D979E0084B1B88012B67D12F4B7C
:1042E0005B78002B5CD0C04661E0C04672030020C2
:1042F000033100000431000074030020AC000020F2
:10430000420B002049F00308780C00200531000022
:1043100006310000AE000020BC0300200731000081
:1043200008310000B0000020093100000A3100000F
:10433000B20000200B3100000C310000B40000205E
:104340000D3100000E310000B6000020FA0A0020F6
:104350000132000002320000FC0A0020033200009B
:1043600004320000FE0A0020053200000632000080
:10437000000B00200732000008320000020B002072
:10438000093200000A320000040B00200B3200004A
:104390000C320000060B0020640B0020900B002064
:1043A000404B1B7801221343DAB23E4B1A703E4B4E
:1043B0001B88002B04D13D4B5B78002B00D1C046FD
:1043C0003B4B1B78180000F077F93A4B1B88312BD8
:1043D00000D861E0374B1B88322B00D95CE0324BB0
:1043E0001B88012B08D1314B9B78002B01D0C04694
:1043F00002E0314B01221A702B4B1B88002B09D194
:104400002A4B9B78002B04D0C0462B4B00221A70FD
:1044100000E0C046264B1B78180000F04DF93BE049
:10442000012000F073FA38E0C04636E0C04634E0C0
:10443000C04632E0C04630E0C0462EE0C0462CE028
:10444000C0462AE0C04628E0C04626E0C04624E038
:10445000C04622E0C04620E0C0461EE0C0461CE048
:10446000C0461AE0C04618E0C04616E0C04614E058
:10447000C04612E0C04610E0C0460EE0C0460CE068
:10448000C0460AE0C04608E0C04606E0C04604E078
:10449000C04602E0C04600E0C046C046BD4603B08C
:1044A00090BDC0463C0C002074030020900B0020FF
:1044B000BC03002072030020D40B002080B582B022
:1044C00000AFFB1D00221A703B1D1E221A803B1DEF
:1044D0001A882949294B180014F064FD284B1B68E1
:1044E0005A68BB1C1A80BA1C3B1D12881B889A4252
:1044F0003CD2244BDB691022134037D0C0461F4BFF
:10450000180014F0BBFD1F4BDB691022134003D0D1
:104510001A4B1B6810221A62BB1D00221A700CE095
:10452000BB1D1A78BB1D1B781349895C164AD154F0
:10453000BB1D1A78BB1D01321A70BB1D1A78BB1C3B
:104540001B881E21CB1A9A42EAD3BB1D1B780E4A48
:104550000021D1543B1D1B88D9B2BB1C1B88DAB289
:10456000FB1D8A1A1A70094B01221A70FB1D1B7859
:104570001800BD4602B080BDB40A0020AC06002081
:1045800000080020004C0040D40A00206C030020EA
:1045900080B582B000AF78600A00FB1C1A70C0467C
:1045A000FB1C1A787968084B180016F089FAFB1C76
:1045B0001B789AB20449054B180014F061FCC04600
:1045C000BD4602B080BDC046940A0020AC06002063
:1045D00080B584B000AF0200BB1D1A807B1D0A1C91
:1045E0001A707B1D1B7899B2BB1DBA1D12884A40F8
:1045F0001A800023FB6015E0BB1D1B8801221340BD
:1046000008D0BB1D1B885B089AB2BB1D0A494A40F3
:104610001A8004E0BB1DBA1D128852081A80FB687C
:104620000133FB60FB68072BE6DDBB1D1B88180010
:10463000BD4604B080BDC04601A0FFFF80B500AFFD
:10464000C046BD4680BD000080B582B000AF02000C
:10465000FB1D1A70064BFA1D12781A70054B0022CA
:104660001A70054B00221A80C046BD4602B080BDBC
:104670006D030020B8030020BA03002080B582B08B
:1046800000AF0200FB1D1A703B1D0A1C1A80FB1DA7
:104690001B781F2B08D8FB1D1A78064B5200391DBA
:1046A0000988D152002300E002231800BD4602B061
:1046B00080BDC04678030020F0B5C5B000AF020051
:1046C000894B88256D005B19DB191A701024FF34A3
:1046D0003B1900221A70854B0122042118000EF0AC
:1046E0004CFE20003B181B783A18591C11701A0018
:1046F0007F4B19787F4B5B19DB1999543B181B785A
:104700003A18591C11701A007B4B1978794B5B19B8
:10471000DB199954744B5B19DB191B78042B02DCF1
:10472000032B03DA79E0062B51D076E0734B1B881C
:10473000D9B21022FF32BB181B78BA18581C10705F
:104740001A000B1CDB18D9B26A4B882040001B18DA
:10475000DB19995487235B00FB1800221A702CE0A8
:10476000872464003B191A78654B5200D35A1B0A00
:1047700099B21025FF357B191B787A19581C1070D7
:104780001A00C9B25B4B882676009B19DB19995435
:104790003B191A785A4B5200D15A7B191B787A1957
:1047A000581C10701A00C9B2524B9B19DB1999544E
:1047B0003B191A783B1901321A70504B1B88DBB237
:1047C00087225200BA1812789A42C9D325E087236B
:1047D0005B00FB1802221A7018E0872464003B1962
:1047E0001A781021FF317B181B787918581C087033
:1047F0001900444B9A5C3F4B882040001B18DB1982
:104800005A543B191A783B1901321A7087235B00FE
:10481000FB181B78052BE0D9C04686235B00FB18EC
:10482000012252421A8087235B00FB1800221A7073
:1048300019E087256D007B191B782E4A88214900D5
:104840005218D219D25C86235B00FC18FB181B8817
:1048500011001800FFF7BCFE030023807B191A78B3
:104860007B1901321A7087235B00FA181020FF3081
:104870003B1812781B789A42DBD33B181B783A1806
:10488000591C11701A00862464003B191B88D9B288
:10489000184B88256D005B19DB1999543B191B884F
:1048A0001B0A99B23B181B7804003A18581C107068
:1048B0001A00C9B20F4B5B19DB1999543B191B78CD
:1048C0000C4A5219D2190021D1543B191A780C23E1
:1048D000FB1811001800FFF75BFE0B4B46221A80F5
:1048E000C046BD4645B0F0BDF7FEFFFF00080050D2
:1048F0006D030020FCFEFFFFBC03002070030020BE
:1049000078030020D40A00202E210020B0B5C4B0C6
:1049100000AF0200514B88256D005B19DB191A703E
:104920000C24FF343B1900221A70C0464C4B142251
:104930001A804C4B0122042118000EF01EFD3B1979
:104940001B783A19591C11701A00474B1978474BBC
:104950005B19DB199954464B1A783B191B783919A6
:10496000581C0870190080235B421343DAB23F4B96
:104970005B19DB195A543B191B783A19591C1170F1
:1049800019003A4B5B19DB19344A5219D2191278C3
:104990005A5486235B00FB18012252421A801023CE
:1049A000FF33FB1800221A7019E01025FF357B1920
:1049B0001B782E4A882149005218D219D25C8623CE
:1049C0005B00FC18FB181B8811001800FFF700FEA5
:1049D000030023807B191A787B1901321A70102387
:1049E000FF33FA180C20FF303B1812781B789A42DC
:1049F000DBD33B181B783A18591C11701A00862417
:104A000064003B191B88D9B2184B88256D005B19CF
:104A1000DB1999543B191B881B0A99B23B181B7868
:104A200004003A18581C10701A00C9B20F4B5B19D9
:104A3000DB1999543B191B780C4A5219D2190021E1
:104A4000D1543B191A780823FB1811001800FFF7FE
:104A50009FFDC046BD4644B0B0BDC046F7FEFFFF57
:104A600030210020000800506D030020F8FEFFFFF9
:104A7000BC030020B0B5C2B000AFFB1CFF33002266
:104A80001A703B1DFF33FF221A70FC1CFF34FFF726
:104A900015FD03002370C046C0465A4B1B78002BFF
:104AA00000D1A8E0574B00221A703B1DFF330022B3
:104AB0001A70554B1A78554B1B789A4200D091E0EA
:104AC000514B5A78524B1A704F4B5B781A007F2328
:104AD00013404F4A1278934203D03B1DFF33E1222B
:104AE0001A707B1DFF33012252421A800823FF33C4
:104AF000FB1800221A7015E00825FF357B191B787A
:104B0000414AD25C7C1DFF347B1DFF331B881100A2
:104B10001800FFF75DFD030023807B191A787B19CD
:104B200001321A700823FF33FB181A78FB1CFF337D
:104B30001B78023B9A42DFDB3B1DFF331B78002BC7
:104B40001DD17B1DFF331B88DAB2FB1CFF331B78A2
:104B5000023B2D49CB5C9A420DD17B1DFF331B8854
:104B60001B0A9BB2DAB2FB1CFF331B78013B2649C0
:104B7000CB5C9A4203D03B1DFF33E3221A70244BD7
:104B80001B78062B19D036DC042B34DC032B31DBED
:104B90001D4B9B781B029BB21B4AD2789B189AB282
:104BA0001C4B1A80184B1B791B029BB2164A527978
:104BB0009B189AB2184B1A801DE0134B9B781B026E
:104BC0009BB2114AD2789B189AB2144B1A800E4BA2
:104BD0001B791B029BB20C4A52799B189AB2104B5C
:104BE0001A8008E03B1DFF33E0221A700D4B14229F
:104BF0001A8000E0C0463B1DFF331B781800BD46FD
:104C000042B0B0BD6C030020D40A00206D03002028
:104C1000BC0300206E0300207003002072030020FC
:104C2000740300203021002080B586B000AFF8600A
:104C3000B9607A6000237B610A4B1B78002B0CD093
:104C4000084B00221A707A68074B1100180015F003
:104C5000E3FE031E01D0FB687B617B691800BD4643
:104C600006B080BDBE030020040A002090B585B0C8
:104C700000AF7860C0467B681800FBF745FA020079
:104C80000E243B191A803B191A887968074B1800C3
:104C900015F016FF3B191A880449054B180014F04B
:104CA000EFF8C046BD4605B090BDC046E408002000
:104CB0001806002080B584B000AF78600A00FB1CA5
:104CC0001A70C0460E217B18FA1C12781A807B18C5
:104CD0001A8879680A4B180015F0F2FEC046094B95
:104CE00088229B58212BFAD00E23FB181A880449DE
:104CF000044B180014F0C4F8C046BD4604B080BD93
:104D0000E40800201806002080B582B000AF3B1DEB
:104D100090221A803B1D1A8829492A4B180014F04A
:104D200041F9294B1B685A68BB1C1A80BA1C3B1DF1
:104D300012881B889A423FD2244BDB691022134011
:104D40003AD0C046204B1B685A68BB1C1A803B00F7
:104D5000391DBA1C098812888A1A1A80194B180042
:104D600014F08CF9194BDB691022134003D0154B5A
:104D70001B6810221A62FB1D00221A700CE0FB1D3A
:104D80001A78FB1D1B780E49895C114AD154FB1D12
:104D90001A78FB1D01321A70FB1D1A78BB1C1B8888
:104DA0009021CB1A9A42EAD3FB1D1B78084A0021B6
:104DB000D154084B01221A70C046BD4602B080BDD6
:104DC000740900201806002040070020004400401D
:104DD000040A0020BE03002080B58AB000AFF8604E
:104DE000B9607A603B6000237B62184B1B7801221C
:104DF0005340DBB2002B0CD0144B01221A7004F08C
:104E0000A7FB03001A00124B1A60FB681800FFF79B
:104E10002DFFFFF779FFBA6839687B681800FFF744
:104E200003FF03007B6204F093FB03001A00084BAE
:104E30001B68D31A3A6B9A4202D8044B00221A70AC
:104E40007B6A1800BD460AB080BDC046BD03002085
:104E5000C003002080B500AF00F00CF8044B002226
:104E6000402118000EF089FAC046BD4680BDC046FC
:104E70000008005080B582B002AF234B1B78002B96
:104E800005D0224B0022402118000EF076FA204B6C
:104E90001B68012B02D0052B14D027E01C4B1B688C
:104EA0001A001C491C48FA239B0000930023FFF7BB
:104EB00093FF0200164B1B689A421FD1052000F099
:104EC00033FB1BE0124B1B681A0012491348FA23EC
:104ED000DB0000930023FFF77FFF02000C4B1B68F1
:104EE0009A420DD1062000F01FFB09E00C4B022274
:104EF0001A70012000F018FBC04602E0C04600E036
:104F0000C046C046BD4680BDC7080020000800500E
:104F100000000020A8AD0108B4AD0108C0AD010833
:104F20004C00002080B584B002AFFB1D00221A7037
:104F3000254B0022402118000EF01FFA234B1B685E
:104F4000012B02D0022B33D03AE0204B1B681A0011
:104F50001F492048FA23DB0000930023FFF73CFFA2
:104F600002001A4B1B689A4229D11B4B3D211800A5
:104F700015F044FD03003B60FB1D00221A700FE09A
:104F8000FB1D1B7801333A68D218FB1D1B780233D6
:104F90001178124AD154FB1D1A78FB1D01321A7088
:104FA000FB1D1B780B2BEBD9084B02221A6006E085
:104FB0000B4B03221A70054B01221A6000E0C04619
:104FC000C046BD4602B080BD000800500000002071
:104FD000DCAD0108E8AD0108040A00205C1E0020D9
:104FE0004C00002080B582B000AFC046BB1D00223F
:104FF0001A705B4B0022402118000EF0BEF9FFF73B
:1050000083FE584B1B78002B00D1DAE1554B002270
:105010001A70554B5B78002B02D0534B01229A70CB
:105020005249534B0222180015F0D2FC031E02D144
:10503000504B21221A7050494D4B0222180015F096
:10504000C7FC031E02D14B4B5C221A704B49484BE4
:105050000222180015F0BCFC031E02D1454B802231
:105060001A704749424B0222180015F0B1FC031E8A
:1050700002D1404B81221A7042493D4B0222180056
:1050800015F0A6FC031E02D13A4B3D221A703E4990
:10509000374B0222180015F09BFC031E06D13B4B38
:1050A00072221A7000F056FA00F062FA3849304B5A
:1050B0000222180015F08CFC031E12D1C046354B9D
:1050C0001A78354B1A70344B1A78344B1A70344BAB
:1050D00001221A70324B1A78304B11001800FFF77A
:1050E000E9FD3049224B0222180015F071FC031E25
:1050F0006CD1C046284B1A78FB1D0F210A401A704C
:10510000FB1D1B780B2B05D9234B1A78FB1D0721A0
:105110000A401A70FB1D1B780233234AD25C1E4BD7
:105120001B78D31ADAB27B1D013A1A70104B9B78A8
:105130007A1D12789A4239D1144B72221A70174B89
:10514000F1221A70154B3D225A70154B02221A702B
:10515000134B1A78114B11001800FFF7ABFD35E027
:1051600000080050BE030020581F0020F4AD0108C5
:10517000040A0020A01E0020F8AD0108FCAD0108C3
:1051800000AE010804AE010808AE0108712100203C
:105190000CAE0108CD030020CC030020B41E00207B
:1051A000AE1E002010AE01085C1E00209A4BF122BA
:1051B0001A70994B3E225A70984B02221A70974BE4
:1051C0001A78954B11001800FFF774FD944B1B786B
:1051D000722B04D0934B1B78002B00D1F1E0924945
:1051E000924B0222180015F0F3FB031E02D1904BE4
:1051F00060221A708F498D4B0222180015F0E8FBCF
:10520000031E02D18A4B61221A708B49874B0222FE
:10521000180015F0DDFB031E02D1854B53221A70D6
:105220008649824B0222180015F0D2FB031E02D1E0
:105230007F4B50221A7082497C4B0222180015F0D5
:10524000C7FB031E02D17A4B51221A707D49774B5E
:105250000222180015F0BCFB031E02D1744B46223B
:105260001A707949714B0222180015F0B1FB031E28
:1052700002D16F4B49221A7074496C4B02221800FC
:1052800015F0A6FB031E02D1694B4A221A70704921
:10529000664B0222180015F09BFB031E02D1644BE3
:1052A00054221A706B49614B0222180015F090FBD2
:1052B000031E02D15E4B80221A7067495B4B0222AB
:1052C000180015F085FB031E02D1594B3D221A70C0
:1052D0006249564B0222180015F07AFB031E02D1D8
:1052E000534B55221A705E49504B0222180015F09C
:1052F0006FFB031E02D14E4B56221A7059494B4B7D
:105300000222180015F064FB031E02D1484B5722FD
:105310001A705549454B0222180015F059FB031E1F
:1053200002D1434B58221A705049404B02221800B8
:1053300015F04EFB031E02D13D4B59221A704C4909
:105340003A4B0222180015F043FB031E02D1384BE2
:105350005A221A704749354B0222180015F038FBC3
:10536000031E02D1324B5B221A7043492F4B02229B
:10537000180015F02DFB031E02D12D4B5C221A7074
:105380003E492A4B0222180015F022FB031E02D1CF
:10539000274B5F221A703A49244B0222180015F05D
:1053A00017FB031E02D1224B62221A7035491F4B94
:1053B0000222180015F00CFB031E02D11C4B6322C5
:1053C0001A7004F0C5F803001A002F4B1B68D31A9B
:1053D000072B1DD904F0BCF803001A002A4B1A60F1
:1053E0002A4B1B78552B02D1C04608F0E9FD274B0C
:1053F0001B78552B0CD1C046084B1A78064B110070
:105400001800FFF757FCBB1D1A78BB1D01321A703C
:10541000C046BD4602B080BDB41E0020AE1E0020B6
:10542000712100207321002014AE0108040A00201D
:10543000A01E002018AE01081CAE010820AE010815
:1054400024AE010828AE01082CAE010830AE0108D8
:1054500034AE0108FCAD010804AE010838AE010805
:105460003CAE010840AE010844AE010848AE010858
:105470004CAE010850AE0108F8AD010854AE010869
:1054800058AE01085CAE0108C8030020951E00203C
:1054900080B500AF1F4B1B78002B37D080231B013A
:1054A0001D4A190010000DF04BFF031E17D01B4BB7
:1054B0001B78322B05D8194B1B780133DAB2174B06
:1054C0001A70164B1B78322B20D1154B01221A7003
:1054D000124B33221A70134BFF221A7016E00F4B37
:1054E0001B78002B05D00D4B1B78013BDAB20B4B20
:1054F0001A700A4B1B78012B08D1094B00221A7035
:10550000064B00221A70074B00221A70C046BD4697
:1055100080BDC046C408002000040050C403002021
:10552000C80800207221002080B582B000AF0200C0
:10553000FB1D1A70054B00221A70FB1D1A78044BD4
:105540001A60C046BD4602B080BDC046BD03002003
:105550000000002080B500AF044BF1221A70034B0D
:105560003D225A70C046BD4680BDC0465C1E00202C
:1055700080B500AF0B4B0C4A1A600C4B0A4A1A60FC
:105580000B4B0C4A1A600C4B02221A700B4B012277
:10559000DA700B4B55221A700A4B00221A70C04663
:1055A000BD4680BD901E00205C1E0020881E00208D
:1055B0008C1E00205D1E0020AC1E0020981E0020C6
:1055C000951E0020A01E002080B582B000AF72B6EC
:1055D000C046044B1B687B607B689847C046BD464D
:1055E00002B080BD04F0010880B500AF3A4B5B7893
:1055F000002B06D0394B0122082118000DF0BDFE0A
:1056000005E0364B0022082118000DF0B6FE324BA3
:105610001B78002B08D080239900A023DB050122F2
:1056200018000DF0AAFE07E080239900A023DB05F7
:10563000002218000DF0A1FE274B9B78002B07D00D
:1056400080239B002548012219000DF096FE06E0FC
:1056500080239B002148002219000DF08EFE1E4B76
:105660001B79002B08D080235900A023DB050122E1
:1056700018000DF082FE07E080235900A023DB050F
:10568000002218000DF079FE154B1B780133DAB2B9
:10569000134B1A70104BDB78002B05D0114B0821EF
:1056A000180012F02FFB04E00E4B0821180012F036
:1056B0000BFC0D4B1B780133DAB20B4B1A700A4B03
:1056C0001B78272B04D9C046C046074B00221A700E
:1056D000C046BD4680BDC046440B002000080050B7
:1056E000390B002034050020AA0B002080B500AF44
:1056F000464B1B7801225340DBB2002B14D1444BA4
:105700005B78002B0AD1424B1B7801225340DBB25D
:10571000002B0ED13E4B01225A7000E0C0463D4B9B
:10572000180001F0E6FC05E0C046394B00225A7033
:1057300000E0C046354B5B7801225340DBB2002BC2
:1057400014D1334B9B78002B0AD1314B1B780122AB
:105750005340DBB2002B0ED12D4B01229A7000E09A
:10576000C0462D4B180001F0C4FC05E0C046284B94
:1057700000229A7000E0C046284B1B78012253405B
:10578000DBB2002B14D1224BDB78002B0AD1204B4B
:105790001B7801225340DBB2002B0ED11C4B01229F
:1057A000DA7000E0C0461E4B180001F0A2FC05E0D4
:1057B000C046174B0022DA7000E0C046134B9B78BE
:1057C00001225340DBB2002B14D1114B1B79002B6B
:1057D0000AD10F4B1B7801225340DBB2002B0ED1B4
:1057E0000B4B01221A7100E0C0460E4B180001F06D
:1057F00080FC05E0C046064B00221A7100E0C0465E
:10580000034B00221A70C046BD4680BD900B00209D
:10581000480C0020420C0020430C0020CC0B002040
:10582000440C0020450C002080B500AFC0464B4B17
:1058300000221A604A4B1B88032213409BB2002BA4
:1058400009D1484B1B78022B05D9444B1B68464AAB
:105850009A18424B1A60434B1B78002B13D0414BD4
:105860001B785A1E414B9200D25813005B009B18C4
:105870001A01D21A13019B1ADB011A00374B1B685D
:10588000D218364B1A60364B1B88394A9A181300C7
:105890005B029B189B009B18DB009B181A01D21A15
:1058A000D3011A0013001A002C4B1B68D2182B4B83
:1058B0001A602B4B1B882F4A94466344002B00DA56
:1058C00003339B10DAB22C4B1A702B4B1B781A0047
:1058D00013005B009B181A01D21A13019B1ADB01FB
:1058E0001A001E4B1B68D2181C4B1A60234B1B78E6
:1058F0005A1E13005B009B181A01D21A13019B1A3F
:10590000DB011A00154B1B68D218144B1A601C4B94
:105910001B781A0013001B019B1A1A01D21A1301DB
:105920001A000E4B1B68D2180C4B1A60154B1B78D3
:105930001A0013001B019B1A9B001A00074B1B68DF
:10594000D218064B1A60104B1B781A00034B1B68C9
:10595000D218024B1A60C046BD4680BD14210020FB
:105960000C2100200E21002080510100C4010020E4
:105970004EF8FFFF4FF8FFFF182100200F210020F5
:1059800010210020112100201221002090B585B0A7
:1059900000AF78600A00FB1C1A700E23FB1800226F
:1059A0001A800D23FB1800221A7011E00D203B18FD
:1059B0001B787A68D3181B7819000E22BB18BA1806
:1059C00012888A181A803B181A783B1801321A700C
:1059D0000D23FA18FB1C12781B789A42E6D30E248A
:1059E0003B191A88FB1C1B7819001000FAF71EFCE3
:1059F00003001A003B191A803B191B881800BD468A
:105A000005B090BDB0B588B002AFE34B5B78012222
:105A10005340DBB2002B40D1E04B01225A70E04BE7
:105A200014221A70DF4B00221A70DF4B00221A700A
:105A30001723FB1800221A700AE017203B181B7866
:105A4000DA4A0021D1543B181A783B1801321A70F7
:105A50001723FB181B78072BEFD9D54B3B61D54B90
:105A6000FB60D54BBB603B691800FDF7F3FA030000
:105A7000DAB2FB681A70FB681A78BB681A703B6967
:105A800001333B61FB680133FB60BB680133BB60E2
:105A9000FA68CA4B9A4202D8E5E7C04600E0C04621
:105AA000BE4B5B78002B01D100F028FCC046FB1DEB
:105AB00000221A700DE0FB1D1B78C14AD35C012245
:105AC0005340DBB2002B0CD1FB1D1A78FB1D0132B9
:105AD0001A70FB1D1B78072BEDD9B14B14221A70DD
