:020000040800F2
:1000000000800020E9E60008299B0008319B0008D9
:1000100000000000000000000000000000000000E0
:10002000000000000000000000000000399B0008F4
:100030000000000000000000439B00084D9B0008EA
:1000400039E7000839E700085D9B000839E7000838
:1000500039E7000839E7000839E70008759B000810
:1000600039E7000839E70008899B0008AD9B0008C4
:1000700039E7000839E7000839E7000839E70008E0
:1000800039E7000839E7000839E7000839E70008D0
:1000900039E7000839E7000839E70008E99B00085C
:1000A00039E7000839E7000839E7000839E70008B0
:1000B000199C000839E70008319C000839E700085E
:1000C00010B5064C2378002B07D1054B002B02D02E
:1000D000044800E000BF0123237010BD98030020F6
:1000E00000000000CC880108044B10B5002B03D0A1
:1000F0000349044800E000BF10BDC04600000000F6
:100100009C030020CC8801080023C25C0133002A34
:10011000FBD1581E70470000002243088B4274D365
:1001200003098B425FD3030A8B4244D3030B8B42F8
:1001300028D3030C8B420DD3FF22090212BA030C01
:100140008B4202D31212090265D0030B8B4219D3E2
:1001500000E0090AC30B8B4201D3CB03C01A524102
:10016000830B8B4201D38B03C01A5241430B8B424A
:1001700001D34B03C01A5241030B8B4201D30B0333
:10018000C01A5241C30A8B4201D3CB02C01A52415A
:10019000830A8B4201D38B02C01A5241430A8B421D
:1001A00001D34B02C01A5241030A8B4201D30B0206
:1001B000C01A5241CDD2C3098B4201D3CB01C01A20
:1001C000524183098B4201D38B01C01A524143092A
:1001D0008B4201D34B01C01A524103098B4201D318
:1001E0000B01C01A5241C3088B4201D3CB00C01A85
:1001F000524183088B4201D38B00C01A52414308FD
:100200008B4201D34B00C01A5241411A00D2014621
:10021000524110467047FFE701B5002000F0F0F8AA
:1002200002BDC0460029F7D076E7704703460B436E
:100230007FD4002243088B4274D303098B425FD3DF
:10024000030A8B4244D3030B8B4228D3030C8B420B
:100250000DD3FF22090212BA030C8B4202D31212F1
:10026000090265D0030B8B4219D300E0090AC30BC6
:100270008B4201D3CB03C01A5241830B8B4201D373
:100280008B03C01A5241430B8B4201D34B03C01A5C
:100290005241030B8B4201D30B03C01A5241C30AD4
:1002A0008B4201D3CB02C01A5241830A8B4201D345
:1002B0008B02C01A5241430A8B4201D34B02C01A2F
:1002C0005241030A8B4201D30B02C01A5241CDD2D4
:1002D000C3098B4201D3CB01C01A524183098B421F
:1002E00001D38B01C01A524143098B4201D34B0108
:1002F000C01A524103098B4201D30B01C01A52416B
:10030000C3088B4201D3CB00C01A524183088B42F1
:1003100001D38B00C01A524143088B4201D34B00DA
:10032000C01A5241411A00D201465241104670474C
:100330005DE0CA0F00D04942031000D34042534051
:1003400000229C4603098B422DD3030A8B4212D311
:10035000FC22890112BA030A8B420CD38901921143
:100360008B4208D3890192118B4204D389013AD080
:10037000921100E08909C3098B4201D3CB01C01A55
:10038000524183098B4201D38B01C01A5241430968
:100390008B4201D34B01C01A524103098B4201D356
:1003A0000B01C01A5241C3088B4201D3CB00C01AC3
:1003B000524183088B4201D38B00C01A5241D9D2DB
:1003C00043088B4201D34B00C01A5241411A00D25C
:1003D0000146634652415B10104601D34042002B58
:1003E00000D54942704763465B1000D3404201B5D7
:1003F000002000F005F802BD0029F8D016E770478C
:100400007047C0461C2101231B04984201D3000CF5
:1004100010391B0A984201D3000A08391B09984277
:1004200001D30009043902A2105C40187047C0468D
:1004300004030202010101010000000000000000AD
:10044000002B11D1002A0FD1002900D1002802D0A1
:100450000021C943080007B4024802A140180290D5
:1004600003BDC0469DFFFFFF03B4684601B5029877
:1004700000F006F8019B9E4602B00CBC7047C046D7
:10048000F0B557464E464546DE46E0B504000D0041
:100490009246994683B08B4230D82DD0494650467B
:1004A00000F0BAF829000600200000F0B5F8331A71
:1004B0009846203B34D49B4653465A469340424686
:1004C0001F00534693401E00AF423BD8AF4200D1BD
:1004D00079E05B46A41BBD41002B00DA76E00022E8
:1004E00000230092019301235A4693400193012374
:1004F00042469340009329E08242CFD90022002354
:10050000009201930C9B002B01D01C605D60009851
:10051000019903B0F0BCBB46B246A946A046F0BD67
:1005200042469B4620239B1A5246DA40414613001E
:100530004A468A40170042461F43534693401E00D6
:10054000AF42C3D900220023009201934346002BFF
:10055000D8D0FB0772081A4346467B080EE0AB4230
:1005600001D1A2420CD8A41A9D41012024196D4149
:100570000021013E24184D41002E06D0AB42EED999
:10058000013E24196D41002EF8D1009801995B4677
:1005900000196941002B24DB2B005A464446D34006
:1005A0002A00E2401C005B461500002B2ADB2600D7
:1005B0009E40330026004746BE403200801A9941D3
:1005C000009001919EE7A342BCD882E742462023D7
:1005D00000219B1A0022009101920122DA4001922F
:1005E00085E7424620239B1A2A0046469A4023006C
:1005F000F340444613432A00E2401C005B461500CA
:10060000002BD4DA42462F002023260097409B1A65
:10061000DE403B003343CDE710B5002903D1FFF79F
:10062000F1FE203002E00800FFF7ECFE10BDC046EE
:1006300090B589B000AF7860C0460FF0DBFF031EB5
:10064000FBD110243B19180010231A00002118F0C8
:100650007FF821007B180122DA607B187A689A60A3
:100660007B1802221A600023FB600C23FA187B1807
:100670001100180010F0B2F8C0460FF0DFFF031EA3
:10068000FBD1C046C046BD4609B090BD90B587B00D
:1006900000AFF860B960FB1D1A70C0460FF0AAFFEA
:1006A000031EFBD11723FB1800221A7013E0F96810
:1006B00017243B191B78DB00BA68D3181A685B68EB
:1006C00001200FF049FFFB680833FB603B191A78E3
:1006D0003B1901321A701723FA18FB1D12781B7888
:1006E0009A42E4D3C0460FF0A9FF031EFBD1C046D7
:1006F000C046BD4607B090BDF0B5C64600B5E04C5B
:10070000A54400AFDF4BE04A3024121908218C4683
:10071000BC4462441360DD4B1B190822BA189A18B6
:1007200080231370DA490B190822BA189A1801238A
:100730001370D84B1B190822BA189A187E2313700D
:10074000D54BD64A10190825AC46BC44604403601A
:10075000131908229446BC4463441B681A68C94BA9
:100760009A4225D00B190822BA189A180023137040
:10077000CB4B9522D2009B183022944608229046FB
:10078000B844C444634418008023DB001A000021ED
:1007900017F0DEFF90231B1908229446BC446344E3
:1007A000C04A121908218C46BC446244136045E0DB
:1007B000C046BD4BB94A3024111908208446BC44B8
:1007C00061440B60131908229446BC4463441B68BF
:1007D0001A68B64B9A4200D14AE1B44BAA4A1219A0
:1007E00008218C46BC4462441360B14B9522D20070
:1007F0009B183022944608229046B844C44463446F
:10080000180090231A00002117F0A2FF9F4B1B191C
:100810000822BA189A18122313700823E318DB1958
:10082000A04A121908218C46BC4462441360994BBB
:100830001B190822BA189A187F2313709D4B302277
:100840009B180822BA189A1800231370D9E08E4E0C
:100850003022B31808218C46BC4463441B681978C5
:1008600094481400831808229446BC4463441B78BF
:10087000DA008C4B1B190825AC46BC4463441B684A
:100880009B18396200227A62396A7A6A19605A6062
:10089000031908229446BC4463441B78DA0081495A
:1008A0000B190821791859180B689B181868596892
:1008B00033190822BA189A181368BB61DB17FB6159
:1008C000BA691200FA620023BB627A4B1B19082234
:1008D0009446BC4463441B78DA00724B1B1908250C
:1008E000AC46BC4463441B689B18BA6A02433A6135
:1008F000FA6A0A437A6139697A6919605A60210093
:1009000073180822BA189A1812686B4B9A425BD374
:100910005F4A531808229446BC4463441B78002B5A
:1009200052D073180822BA189A1813680133721833
:1009300008208446BC44624413605E4B08005B1888
:1009400008229446BC4463441B78DA0055490400ED
:1009500009180823FB18C81803689B1818685968F9
:1009600023001C00F21808239C46BC446244136810
:100970001B783B6300237B633A6B130E7A6B120286
:100980007A607A681A437A603A6B13023B60494B8B
:1009900026009B1908229446BC4463441B78DA0065
:1009A000404B9B190824A446BC4463441B689B1815
:1009B00002003C682243BA600A0079680A43FA6080
:1009C000B968FA6819605A602F4A30215318082014
:1009D0008446BC4463441B68013352180820844693
:1009E000BC4462441360334A531808208446BC4414
:1009F00063441B78521808218C46BC44624401337E
:100A000013702C4B30215B180822BA189A181F4E0D
:100A1000731808208446BC44634412781B789A42B9
:100A200000D214E71B4B0C005B1808229446BC4410
:100A300063441B781800FFF7FBFD184B22009B183E
:100A400008218C46BC4463441B68181F1100B3186E
:100A500008229446BC4463441A78124B5B18082160
:100A60008C46BC4463441B681900FFF70FFE00E08E
:100A7000C046BD469C23DB009D4480BCB846F0BD0B
:100A800020FBFFFF00F00308A4040000A304000003
:100A90009B0400009A04000004F003089404000082
:100AA000E8FBFFFF9C04000004F8030800F80308BB
:100AB00058FBFFFF930400009403002080B584B02E
:100AC00000AF786039607B68094A94466344FB60F4
:100AD00002E0FB68083BFB60FB681B683A689A42CF
:100AE000F7D1FB68043B1B681800BD4604B080BD0D
:100AF000FC070000F0B58DB000AF78623962FA6192
:100B000000220023BA62FB623B6A3B6100237B61E7
:100B10003B691B00FB600023BB60BA68FB68BA62DC
:100B2000FB62FB693B6000237B60BA6AFB6A386842
:100B3000796806001643340019430D00BC62FD625B
:100B4000102318229B18D9197B6A01221800FFF77D
:100B50009DFDC046BD460DB0F0BDB0B584B000AF40
:100B600078607B68FF22D20094466344FB6002E019
:100B7000FB68083BFB60FB681A685B68511C01D18D
:100B80000133F5D0FB680833FB60FB681C00DB1702
:100B90001D0022002B0010001900BD4604B0B0BD9E
:100BA00090B58FB000AFF860B9607A6037217B18DC
:100BB00001221A7036203B1812221A70FB68564A1E
:100BC000934205D17B1800221A703B1880221A70BC
:100BD000FB687B62FB681800FFF7BFFF02000B0099
:100BE00013003B637B6AFF22D200944663443B625E
:100BF0003B6B083B3A6A9A4200D083E03623FB18ED
:100C00001B78180017F0D0FC0300FB61FB68FB6247
:100C10002B23FB1800221A7024E0F96A2B23FB18FF
:100C20001B789B00FA69D418FB681800FFF746FF91
:100C300003002360FB6A0133FB62FB6A374A9A4276
:100C40009B415B42DBB21A003723FB181B78134031
:100C500002D0FB6A0133FB622B217B181A787B18C8
:100C600001321A702B23FA183623FB1812781B78DE
:100C70009A42D2D3FB68F822120694466344BB61C1
:100C8000BB69DB0A7B617B691800FFF7D1FCFB685D
:100C90003B63FB68FB622A23FB1800221A701EE0EC
:100CA000F96A2A23FB181B789B00FA69D3181A6883
:100CB0003B6B1800FFF71EFFFB6A0133FB62FA6A09
:100CC000164B9A4202D9FB6A0133FB623B6B083335
:100CD0003B632A217B181A787B1801321A702A2369
:100CE000FA183623FB1812781B789A42D8D37A6800
:100CF000B9683B6B1800FFF7FDFEFB69180017F0A1
:100D00005DFC05E07A68B9683B6B1800FFF7F2FEFE
:100D1000C046BD460FB090BD00F00308940300200C
:100D200080B582B000AFFB1C00221A70BB1C0022F1
:100D30001A703B0000221A8000237B60D8E07B6899
:100D40000233704AD35C302B02D1FB1C00221A7094
:100D50007B6802336B4AD35C312B02D1FB1C01222E
:100D60001A707B680233674AD35C322B02D1FB1CBA
:100D700002221A707B680233624AD35C332B02D1A1
:100D8000FB1C03221A707B6802335E4AD35C342B4F
:100D900002D1FB1C04221A707B680233594AD35CCF
:100DA000352B02D1FB1C05221A707B680233554A91
:100DB000D35C362B02D1FB1C06221A707B680233EF
:100DC000504AD35C372B02D1FB1C07221A707B6878
:100DD00002334C4AD35C382B02D1FB1C08221A7018
:100DE0007B680233474AD35C392B02D1FB1C0922B2
:100DF0001A707B680233434AD35C412B02D1FB1C3F
:100E00000A221A707B6802333E4AD35C422B02D11D
:100E1000FB1C0B221A707B6802333A4AD35C432BCB
:100E200002D1FB1C0C221A707B680233354AD35C5A
:100E3000442B02D1FB1C0D221A707B680233314A0D
:100E4000D35C452B02D1FB1C0E221A707B68023347
:100E50002C4AD35C462B02D1FB1C0F221A707B68F4
:100E60000122134005D1BB1CFA1C127812011A7022
:100E70003BE0BB1CB91CFA1C097812780A431A70B3
:100E80007B68012B05D07B68052B02D07B68092B82
:100E900005D1BB1C1B789AB23B0012021A807B68FA
:100EA000032B05D07B68072B02D07B680B2B07D167
:100EB000BB1C1B7899B23B003A0012880A431A8087
:100EC0007B68032B03D1104B3A0012881A807B6891
:100ED000072B03D10C4B3A0012885A807B680B2BEE
:100EE00003D1094B3A0012889A807B6801337B60FA
:100EF0007B680B2B00DC22E7C046C046BD4602B033
:100F000080BDC046000E00208C00002090B585B04A
:100F100000AF3A60BB1D021C1A803B1D0A1C1A80E0
:100F20000D217B1800221A700F203B1800221A7026
:100F30002C4B1B88BA1D12889A424BD8294B1B8810
:100F40003A1D12889A4245D33B1801221A703B1D64
:100F50001B88DAB2234B1B88DBB2D31ADAB27B18B8
:100F600001321A707B181B789AB21F4B1B889A4269
:100F70002DD30E217B1800221A707B1800221A70C4
:100F800017E00E243B191878164B1B881A00BB1D5E
:100F90001B88D21A3B191B78D3185B003A68D31808
:100FA0001B88190001F096F83B191A783B19013299
:100FB0001A700E23FB181B789AB20B4B1B889A42AF
:100FC000DFD30A4B1B78180001F0A2F802E00320DF
:100FD00001F0C6F90F23FB181B781800BD4605B0B9
:100FE00090BDC046B6030020B803002004040020D2
:100FF00090B583B000AFFB1D00221A707A4BDA78EF
:101000007A4B5B781343DAB2784B9B781343DBB2AD
:1010100001225340DBB2002B03D0754B00221A8013
:1010200016E0724B5B78002B03D0714B01221A80C3
:101030000EE06E4B5B78002B03D06D4B02221A80C2
:1010400006E0694BDB78002B02D0694B06221A8040
:10105000684B5B781A00664B5A80674B1B781A0006
:10106000634B9A80634B9B781A00614BDA80614B2B
:101070001B781A005E4B1A815C4B5B781A005C4B44
:101080005A815B4B00229A81594B1B88002B03D15C
:10109000574B0122DA8102E0554B0022DA81534B93
:1010A0005B781A00524B1A82504B9B781A00504BB7
:1010B0005A824F4B00229A824D4B0022DA824A4BD1
:1010C000DB781A004A4B1A83494B00225A834B4B58
:1010D0001B781B029BB24A4A12789B189AB2494B62
:1010E0001A80494B1B781B029BB2484A12789B1806
:1010F0009AB2444B5A80464B1B781A1C9200D31864
:10110000DB189AB23F4B9A803E4BDC22DA80414B8F
:10111000DB791A00404B1A803E4B9B791A003E4BFC
:101120005A803C4B1B791A003B4B9A80394B9A787A
:10113000384BDB781343DBB21A00374BDA80364B7F
:1011400000221A81334B1A78324B5B781343DBB29F
:101150001A00314B5A81314B5B781A002E4B9A8121
:101160002E4B9B791A002C4BDA812A4B1A78294B8B
:101170005B781343DBB21A00274B1A82284B294AAB
:101180001A80274B284A5A80254BFF229A80FFF766
:10119000C7FD264B264A19001000FFF78FFC0300FD
:1011A0009BB21B029CB2234B214A19001000FFF78F
:1011B00085FC03009BB2E3189AB21F4B1A8001F022
:1011C00083F90200FB1D1A70FB1D1B78002B01D058
:1011D00000F08FFEC046194B1B78032B30D0062B36
:1011E00000D1A5E100F048FE980B00205C0C002027
:1011F00054000020C40B0020000C0020D00B002065
:10120000D10B002070000020D20B0020D30B002057
:10121000EE0B0020A80B002078000020A00B00207F
:101220008C000020A2B4FFFF4FEBFFFF7F030020E4
:1012300000F0030880030020940000200404002034
:10124000C046DE4B00221A80DD4BDE4A190010003A
:10125000FFF734FC0300202B02D1D84B01221A8067
:10126000D94BD84A19001000FFF728FC03009BB2A5
:101270001B029CB2D54BD34A19001000FFF71EFC8D
:1012800003009BB2E3189AB2D14B1A80D14BCD4ADE
:1012900019001000FFF712FC03009BB21B029CB266
:1012A000CD4BC84A19001000FFF708FC03009BB2A1
:1012B000E3189AB2C94B1A80C94BC24A19001000F0
:1012C000FFF7FCFB03009AB2C64B1A80C64BBD4A1F
:1012D00019001000FFF7F2FB03009AB2C34B1A800B
:1012E000C34A0E23FF33190080235B001800FFF769
:1012F0000DFE031E01D000F0C3FDBE4ABE4980238F
:101300009B011800FFF702FE031E01D000F0BAFD9A
:10131000BA4A8223990080239B001800FFF7F6FD4C
:10132000031E01D000F0B0FDB54AB649C0239B00B2
:101330001800FFF7EBFD031E01D000F0A7FDB24A35
:10134000C4239900C4239B001800FFF7DFFD031E90
:1013500001D000F09DFDAD4B1A0010211020FFF7C9
:10136000D5FD031E01D000F095FDA94AC0239901C7
:10137000C0239B011800FFF7C9FD031E01D000F038
:101380008BFD8E4BA349A3481A00FFF7BFFD031E38
:1013900001D000F083FD8E4B9F499F481A00FFF754
:1013A000B5FD031E01D000F07BFD8C4B9B499B4893
:1013B0001A00FFF7ABFD031E01D000F073FD984B40
:1013C000984998481A00FFF7A1FD031E01D000F0CC
:1013D0006BFD954B954995481A00FFF797FD031E45
:1013E00001D000F063FD924B924992481A00FFF73A
:1013F0008DFD031E01D000F05BFD8F4B8F498F48A0
:101400001A00FFF783FD031E01D000F053FD8C4B43
:101410008C498C481A00FFF779FD031E01D000F0BB
:101420004BFD894B894989481A00FFF76FFD031E60
:1014300001D000F043FD864B864986481A00FFF72D
:1014400065FD031E01D000F03BFD834B83498348BB
:101450001A00FFF75BFD031E01D000F033FD804B47
:10146000804980481A00FFF751FD031E01D000F0AB
:101470002BFD7D4B7D497D481A00FFF747FD031E7C
:1014800001D000F023FD7A4B7A497A481A00FFF721
:101490003DFD031E01D000F01BFD524B76497648FE
:1014A0001A00FFF733FD031E01D000F013FD4F4B70
:1014B000724972481A00FFF729FD031E01D000F09F
:1014C0000BFD6F4B6F496F481A00FFF71FFD031E9E
:1014D00001D000F003FD6C4B6C496C481A00FFF71B
:1014E00015FD031E01D000F0FBFC694B69496948FA
:1014F0001A00FFF70BFD031E01D000F0F3FC664B52
:10150000664966481A00FFF701FD031E01D000F08E
:10151000EBFC634B634963481A00FFF7F7FC031EBB
:1015200001D000F0E3FC022000F01AFF00F0E1FC23
:101530005D4B1A88C0239B019A4210D35A4B1A88DC
:10154000C0239B019A420AD8584B1B88DBB21A0071
:101550002F4B1A80564B1B78180000F0D9FD524BC8
:101560001B88544A934200D8CFE04F4B1B88294A2E
:10157000934200D9C9E04D4B1B88DBB21A000F4BD8
:101580001A800E4B1B88012B00D097E00C4B0D4AA4
:1015900019001000FFF792FA0300202B01D1C0467A
:1015A0008CE0454B20221A70434B1B781A00044BE9
:1015B0001900100003F0A8FDC046FDE7540B002001
:1015C0005603002000F00308050300200603002056
:1015D0009800002007030020080300209A00002044
:1015E00076030020AE0000204D030020B000002054
:1015F000540000207000002003200000780000202C
:101600008C0000200203000094000020520B0020F8
:101610009600002002300000043000000630000078
:101620009C00002008300000560B00200A3000000B
:101630009E0000200C300000580B00200E300000EF
:10164000A000002010300000A20000201230000096
:10165000A400002014300000A60000201630000076
:10166000A800002018300000AA0000201A30000056
:10167000AC0000201C3000001E30000004310000CF
:10168000B200002006310000B40000200831000044
:10169000B60000200A310000B80000200C31000024
:1016A000BA0000200E310000BA030020BC03002065
:1016B0000404002001300000760B0020C34B1B887F
:1016C000002B1DD101231A1CC14B202B01D000235C
:1016D0001A1CD3B21A00BF4B11001800FFF7EEF925
:1016E000031E0CD0BC4B00221A70BB4B1B781A0097
:1016F000B74B1900100003F007FDC046FDE7C046D8
:10170000B64B1B78180000F003FDB54B1B88B54A9B
:10171000934226D9B24B1B88B34A934221D8B34B8C
:101720001A88B34B1A80B24B1B881B0A9BB2DAB2E1
:10173000A94B1A70AE4B1B88DAB2AE4B1A70A64B8F
:101740001B781A00AC4B1900100003F0DDFCA94B0C
:101750001B781A00A94B1900100003F0D5FCC046F5
:10176000FDE79F4B1B88A64A934226D99C4B1B88BA
:10177000A44A934221D89D4B1A88A34B1A80A24BAE
:101780001B881B0A9BB2DAB2934B1A709E4B1B88C4
:10179000DAB2984B1A70904B1B781A009B4B1900C9
:1017A000100003F0B1FC934B1B781A00984B190002
:1017B000100003F0A9FCC046FDE7894B1B88954A41
:1017C00093420FD9864B1B88934A93420AD8874B82
:1017D0001B88DBB21A00914B1A80804B1B781800D3
:1017E00000F096FC7E4B1B888D4A93420FD97C4BB0
:1017F0001B888C4A93420AD87C4B1B88DBB21A00A8
:10180000894B1A80754B1B78180000F081FC744BD3
:101810001B88864A93420FD9714B1B88844A934296
:101820000AD8724B1B88DBB21A00824B1A806B4BB2
:101830001B78180000F06CFC694B1B887E4A9342B1
:101840000FD9674B1B887D4A93420AD8674B1B8888
:10185000DBB21A007A4B1A80604B1B78180000F03C
:1018600057FC5F4B1B88774A93420FD95C4B1B8810
:10187000754A93420AD85D4B1B88DBB21A00734B42
:101880001A80564B1B78180000F042FC544B1B8802
:101890006F4A93420FD9524B1B886E4A93420AD823
:1018A000524B1B88DBB21A006B4B1A804B4B1B78D8
:1018B000180000F02DFC4A4B1B88684A93420FD950
:1018C000474B1B88664A93420AD8484B1B88DBB2B9
:1018D0001A00644B1A80414B1B78180000F018FC6A
:1018E0003F4B1B88604A93420FD93D4B1B885F4A90
:1018F00093420AD83D4B1B88DBB21A005C4B1A801E
:10190000364B1B78180000F003FC354B1B88594AF6
:1019100093420FD9324B1B88574A93420AD8334B14
:101920001B88DBB21A00554B1A802C4B1B78180011
:1019300000F0EEFB2A4B1B88514A93420FD9284BEB
:101940001B88504A93420AD8284B1B88DBB21A00E6
:101950004D4B1A80214B1B78180000F0D9FB204B0F
:101960001B884A4A93420FD91D4B1B88484A934211
:101970000AD81E4B1B88DBB21A00464B1A80174B45
:101980001B78180000F0C4FB154B1B88424A934299
:1019900000D889E0124B1B88404A934200D983E06B
:1019A000124B1B88DBB21A003D4B1A803C4B1B8844
:1019B000DAB2094B1A70084B1B781A00394B190020
:1019C000100003F0A1FBC046FDE7C046540B002009
:1019D0005603002000F00308760B002004040020CA
:1019E000BA0300200330000004300000BC030020D4
:1019F00098000020770B002005030020060300203C
:101A000005300000063000009A0000200703002087
:101A10000803002007300000083000009C00002070
:101A2000093000000A300000560B00200B30000087
:101A30000C3000009E0000200D3000000E30000031
:101A4000580B00200F30000010300000A0000020D4
:101A50001130000012300000A200002013300000FE
:101A600014300000A40000201530000016300000E3
:101A7000A60000201730000018300000A800002049
:101A8000193000001A300000AA0000201B300000AE
:101A90001C300000AC0000201D3000001E30000093
:101AA000AE00002076030020A74B1B88A74A934274
:101AB00019D9A54B1B88A64A934214D8A54B1B885D
:101AC000DBB21A00A44B1A80A34B1B88DAB2A34BDB
:101AD0001A70A24B1B781A00A14B1900100003F0DA
:101AE00013FBC046FDE7984B1B889E4A93420FD9D3
:101AF000954B1B889C4A93420AD8964B1B88DBB2B5
:101B00001A009A4B1A809A4B1B78180000F000FBC1
:101B10008D4B1B88974A93420FD98B4B1B88964A53
:101B200093420AD88B4B1B88DBB21A00934B1A8066
:101B30008F4B1B78180000F0EBFA834B1B88904A00
:101B400093420FD9804B1B888E4A93420AD8814B0F
:101B50001B88DBB21A008C4B1A80854B1B7818004F
:101B600000F0D6FA784B1B88884A93420FD9764BFF
:101B70001B88874A93420AD8764B1B88DBB21A002F
:101B8000844B1A807A4B1B78180000F0C1FA6E4B18
:101B90001B88814A93420FD96B4B1B887F4A934223
:101BA0000AD86C4B1B88DBB21A007D4B1A80704B35
:101BB0001B78180000F0ACFA634B1A88C8239B010D
:101BC0009A4210D3604B1A88C8239B019A420AD8C4
:101BD000604B1B88DBB21A00724B1A80644B1B7877
:101BE000180000F095FA584B1B886F4A93420FD9A2
:101BF000554B1B886D4A93420AD8564B1B88DBB263
:101C00001A006B4B1A805A4B1B78180000F080FAB0
:101C10004D4B1B88674A93420FD94B4B1B88664A32
:101C200093420AD84B4B1B88DBB21A00634B1A80D5
:101C30004F4B1B78180000F06BFA434B1B88604A2F
:101C400093420FD9404B1B885E4A93420AD8414BBE
:101C50001B88DBB21A005C4B1A80454B1B781800BE
:101C600000F056FA384B1B88584A93420FD9364B2E
:101C70001B88574A93420AD8364B1B88DBB21A009E
:101C8000544B1A803A4B1B78180000F041FA2E4B47
:101C90001B88514A93420FD92B4B1B884F4A9342C2
:101CA0000AD82C4B1B88DBB21A004D4B1A80304BE4
:101CB0001B78180000F02CFA234B1B88494A9342EA
:101CC0000FD9214B1B88484A93420AD8214B1B88C5
:101CD000DBB21A00454B1A80254B1B78180000F028
:101CE00017FA194B1B882F2B1AD9174B1B88302B2F
:101CF00016D8184B1B88012B04D13D4BDB78002BE9
:101D000000D0C046134B1B88002B04D1384BDB7826
:101D1000002B00D1C046164B1B78180000F0F8F9D4
:101D2000094B1B88302B00D87BE0074B1B88312BDD
:101D300000D976E0074B1B88012B64D12D4B5B78D3
:101D4000002B59D0C0465EE0BA03002003310000EA
:101D500004310000BC030020B0000020760B0020FE
:101D60004D0300200531000006310000B2000020C4
:101D7000040400200731000008310000B4000020F6
:101D8000093100000A310000B60000200B310000CC
:101D90000C310000B80000200D3100000E310000B1
:101DA000BA0000205A0B002001320000023200006D
:101DB0005C0B002003320000043200005E0B0020A8
:101DC0000532000006320000600B002007320000E0
:101DD00008320000620B0020093200000A320000C5
:101DE000640B00200B3200000C320000660B002058
:101DF000980B0020C40B0020404B1B78012213439A
:101E0000DAB23E4B1A703E4B1B88002B04D13D4B7F
:101E10005B78002B00D1C0463B4B1B78180000F0CC
:101E200077F93A4B1B88312B00D861E0374B1B8880
:101E3000322B00D95CE0324B1B88012B08D1314B8F
:101E40009B78002B01D0C04602E0314B01221A7072
:101E50002B4B1B88002B09D12A4B9B78002B04D0DD
:101E6000C0462B4B00221A7000E0C046264B1B7860
:101E7000180000F04DF93BE0012000F071FA38E065
:101E8000C04636E0C04634E0C04632E0C04630E0EE
:101E9000C0462EE0C0462CE0C0462AE0C04628E0FE
:101EA000C04626E0C04624E0C04622E0C04620E00E
:101EB000C0461EE0C0461CE0C0461AE0C04618E01E
:101EC000C04616E0C04614E0C04612E0C04610E02E
:101ED000C0460EE0C0460CE0C0460AE0C04608E03E
:101EE000C04606E0C04604E0C04602E0C04600E04E
:101EF000C046C046BD4603B090BDC046700C002031
:101F0000BC030020C40B002004040020BA030020FE
:101F1000080C002080B582B000AFFB1D00221A70B3
:101F20003B1D1E221A803B1D1A882949294B180087
:101F300014F0EAFE284B1B685A68BB1C1A80BA1CB6
:101F40003B1D12881B889A423CD2244BDB6910222D
:101F5000134037D0C0461F4B180014F041FF1F4BF1
:101F6000DB691022134003D01A4B1B6810221A623F
:101F7000BB1D00221A700CE0BB1D1A78BB1D1B781C
:101F80001349895C164AD154BB1D1A78BB1D013216
:101F90001A70BB1D1A78BB1C1B881E21CB1A9A42D3
:101FA000EAD3BB1D1B780E4A0021D1543B1D1B8870
:101FB000D9B2BB1C1B88DAB2FB1D8A1A1A70094BF6
:101FC00001221A70FB1D1B781800BD4602B080BDAF
:101FD000140B00200C07002060080020004C00407B
:101FE000340B0020B403002080B582B000AF7860CD
:101FF0000A00FB1C1A70C046FB1C1A787968084B53
:10200000180016F00FFCFB1C1B789AB20449054B14
:10201000180014F0E7FDC046BD4602B080BDC046C2
:10202000F40A00200C07002080B584B000AF020045
:10203000BB1D1A807B1D0A1C1A707B1D1B7899B270
:10204000BB1DBA1D12884A401A800023FB6015E0B0
:10205000BB1D1B880122134008D0BB1D1B885B08D9
:102060009AB2BB1D0A494A401A8004E0BB1DBA1D42
:10207000128852081A80FB680133FB60FB68072B4B
:10208000E6DDBB1D1B881800BD4604B080BDC04600
:1020900001A0FFFF80B500AFC046BD4680BD000077
:1020A00080B582B000AF0200FB1D1A70064BFA1D0E
:1020B00012781A70054B00221A70054B00221A8004
:1020C000C046BD4602B080BDB5030020000400201C
:1020D0000204002080B582B000AF0200FB1D1A7020
:1020E0003B1D0A1C1A80FB1D1B781F2B08D8FB1DEB
:1020F0001A78064B5200391D0988D152002300E09E
:1021000002231800BD4602B080BDC046C0030020B7
:10211000F0B5C5B000AF0200884B88256D005B1993
:10212000DB191A701024FF343B1900221A70844BFB
:102130000122042118000EF0B8FF20003B181B7884
:102140003A18591C11701A007E4B19787E4B5B1996
:10215000DB1999543B181B783A18591C11701A0056
:102160007A4B1978784B5B19DB199954734B5B19CF
:10217000DB191B78042B02DC032B03DA77E0062B38
:102180004FD074E0724B1B8859001022FF32BB18ED
:102190001B78BA18581C10701A00C9B26A4B8820F4
:1021A00040001B18DB19995487235B00FB180022A1
:1021B0001A702CE0872464003B191A78654B520092
:1021C000D35A1B0A99B21025FF357B191B787A194F
:1021D000581C10701A00C9B25B4B882676009B19F8
:1021E000DB1999543B191A785A4B5200D15A7B1972
:1021F0001B787A19581C10701A00C9B2524B9B19DF
:10220000DB1999543B191A783B1901321A70504B5B
:102210001B88DBB287225200BA1812789A42C9D3BF
:1022200025E087235B00FB1802221A7018E0872440
:1022300064003B191A781021FF317B181B7879183C
:10224000581C08701900444B9A5C3F4B8820400092
:102250001B18DB195A543B191A783B1901321A70B2
:1022600087235B00FB181B78052BE0D9C04686232B
:102270005B00FB18012252421A8087235B00FB1887
:1022800000221A7019E087256D007B191B782E4AF1
:10229000882149005218D219D25C86235B00FC18B1
:1022A000FB181B8811001800FFF7BEFE03002380F7
:1022B0007B191A787B1901321A7087235B00FA1890
:1022C0001020FF303B1812781B789A42DBD33B1862
:1022D0001B783A18591C11701A00862464003B19A7
:1022E0001B88D9B2184B88256D005B19DB199954EE
:1022F0003B191B881B0A99B23B181B7804003A183B
:10230000581C10701A00C9B20F4B5B19DB19995495
:102310003B191B780C4A5219D2190021D1543B1990
:102320001A780C23FB1811001800FFF75DFE0B4B09
:1023300046221A80C046BD4645B0F0BDF7FEFFFFFD
:1023400000080050B5030020FCFEFFFF040400203D
:10235000B8030020C0030020340B0020D21000205E
:10236000B0B5C4B000AF0200514B88256D005B19B9
:10237000DB191A700C24FF343B1900221A70C04676
:102380004C4B14221A804C4B0122042118000EF0F1
:102390008CFE3B191B783A19591C11701A00474BD7
:1023A0001978474B5B19DB199954464B1A783B193E
:1023B0001B783919581C0870190080235B4213439D
:1023C000DAB23F4B5B19DB195A543B191B783A19A7
:1023D000591C117019003A4B5B19DB19344A521918
:1023E000D21912785A5486235B00FB1801225242FC
:1023F0001A801023FF33FB1800221A7019E01025F1
:10240000FF357B191B782E4A882149005218D219B2
:10241000D25C86235B00FC18FB181B881100180097
:10242000FFF702FE030023807B191A787B19013223
:102430001A701023FF33FA180C20FF303B18127863
:102440001B789A42DBD33B181B783A18591C117041
:102450001A00862464003B191B88D9B2184B8825C2
:102460006D005B19DB1999543B191B881B0A99B243
:102470003B181B7804003A18581C10701A00C9B297
:102480000F4B5B19DB1999543B191B780C4A5219F5
:10249000D2190021D1543B191A780823FB181100D6
:1024A0001800FFF7A1FDC046BD4644B0B0BDC04610
:1024B000F7FEFFFFD410002000080050B5030020F5
:1024C000F8FEFFFF04040020B0B5C2B000AFFB1C53
:1024D000FF3300221A703B1DFF33FF221A70FC1CD1
:1024E000FF34FFF717FD03002370C046C0465A4B68
:1024F0001B78002B00D1A8E0574B00221A703B1D1F
:10250000FF3300221A70554B1A78554B1B789A42AC
:1025100000D091E0514B5A78524B1A704F4B5B7878
:102520001A007F2313404F4A1278934203D03B1D79
:10253000FF33E1221A707B1DFF33012252421A80C1
:102540000823FF33FB1800221A7015E00825FF3519
:102550007B191B78414AD25C7C1DFF347B1DFF3305
:102560001B8811001800FFF75FFD030023807B1913
:102570001A787B1901321A700823FF33FB181A7876
:10258000FB1CFF331B78023B9A42DFDB3B1DFF3312
:102590001B78002B1DD17B1DFF331B88DAB2FB1C7F
:1025A000FF331B78023B2D49CB5C9A420DD17B1D3A
:1025B000FF331B881B0A9BB2DAB2FB1CFF331B786C
:1025C000013B2649CB5C9A4203D03B1DFF33E322FB
:1025D0001A70244B1B78062B19D036DC042B34DC04
:1025E000032B31DB1D4B9B781B029BB21B4AD2781D
:1025F0009B189AB21C4B1A80184B1B791B029BB27A
:10260000164A52799B189AB2184B1A801DE0134B48
:102610009B781B029BB2114AD2789B189AB2144B3A
:102620001A800E4B1B791B029BB20C4A52799B18E5
:102630009AB2104B1A8008E03B1DFF33E0221A705B
:102640000D4B14221A8000E0C0463B1DFF331B785F
:102650001800BD4642B0B0BDB4030020340B0020CA
:10266000B503002004040020B6030020B8030020B6
:10267000BA030020BC030020D410002080B586B02F
:1026800000AFF860B9607A6000237B610A4B1B7869
:10269000002B0CD0084B00221A707A68074B1100EF
:1026A000180016F06BF8031E01D0FB687B617B6994
:1026B0001800BD4606B080BD06040020640A002054
:1026C00090B585B000AF7860C0467B681800FDF714
:1026D0001BFD02000E243B191A803B191A887968E9
:1026E000074B180016F09EF83B191A880449054B51
:1026F000180014F077FAC046BD4605B090BDC0463C
:10270000440900207806002090B585B000AF7860BD
:102710000A00FB1C1A70C0460E217B18FA1C1278A6
:102720001A800C007B181A887968074B180016F07D
:1027300079F83B191A880449044B180014F052FA2E
:10274000C046BD4605B090BD440900207806002073
:1027500080B582B000AF3B1D90221A803B1D1A88C5
:1027600029492A4B180014F0CFFA294B1B685A68E4
:10277000BB1C1A80BA1C3B1D12881B889A423FD290
:10278000244BDB69102213403AD0C046204B1B6813
:102790005A68BB1C1A803B00391DBA1C0988128874
:1027A0008A1A1A80194B180014F01AFB194BDB69AE
:1027B0001022134003D0154B1B6810221A62FB1D18
:1027C00000221A700CE0FB1D1A78FB1D1B780E49C5
:1027D000895C114AD154FB1D1A78FB1D01321A7015
:1027E000FB1D1A78BB1C1B889021CB1A9A42EAD396
:1027F000FB1D1B78084A0021D154084B01221A7096
:10280000C046BD4602B080BDD40900207806002035
:10281000A007002000440040640A002006040020B5
:1028200080B58AB000AFF860B9607A603B60002381
:102830007B62184B1B7801225340DBB2002B0CD07B
:10284000144B01221A7004F0BBFC03001A00124B57
:102850001A60FB681800FFF733FFFFF779FFBA68CB
:1028600039687B681800FFF709FF03007B6204F0FA
:10287000A7FC03001A00084B1B68D31A3A6B9A4254
:1028800002D8044B00221A707B6A1800BD460AB0B9
:1028900080BDC046050400200804002080B500AFBC
:1028A0000D4B0E4A19001000FEF708F9031E02D165
:1028B00000F01CF80CE00A4B1B78002B08D0094BE9
:1028C00002221A70084B0022402118000EF0EDFB86
:1028D000C046BD4680BDC0466503002000F0030829
:1028E00027090020500000200008005080B582B069
:1028F00002AF5B4B1B78002B05D05A4B00224021C6
:1029000018000EF0D2FB584B1B68052B00D993E042
:102910009A00564BD3181B689F46534B1B681A00EE
:1029200053495448FA239B0000930023FFF778FF94
:1029300002004D4B1B689A4200D085E0052000F054
:1029400077FB81E0C046484B1B681A004A494A4859
:10295000FA23DB0000930023FFF762FF0200424BE3
:102960001B689A4203D1032000F062FB6EE0434BE8
:102970001B7801225340DBB2002B67D03A4B032275
:102980001A6063E0C046384B1B681A003C493D485A
:10299000FA231B0100930023FFF742FF0200324B92
:1029A0001B689A4203D1052000F042FB50E0334BF4
:1029B0001B7801225340DBB2002B49D02A4B042262
:1029C0001A6045E0284B1B681A002D492E482F4BF2
:1029D00000930023FFF724FF0200234B1B689A4259
:1029E0000BD1012000F024FB294B08221A60E123BF
:1029F0005B02180000F052F82CE0204B1B780122FB
:102A00005340DBB2002B25D0174B01221A6021E086
:102A1000154B1B681A0016491E48FA23DB00009369
:102A20000023FFF7FDFE02000F4B1B689A4213D1F3
:102A3000062000F0FDFA0FE0174B02221A70012069
:102A400000F0F6FAC04608E0C04606E0C04604E0E2
:102A5000C04602E0C04600E0C046C046BD4680BD5C
:102A6000270900200008005000000020C889010844
:102A7000F88801080489010810890108050400206C
:102A8000148901081C89010828890108B80B000075
:102A900004000020348901085000002080B582B075
:102AA00000AF7860C046BD4602B080BD80B584B03E
:102AB00002AFFB1D00221A70244B00224021180097
:102AC0000EF0F3FA224B1B68012B02D0022B33D0FD
:102AD00037E01F4B1B681A001E491F48FA23DB0012
:102AE00000930023FFF79CFE0200194B1B689A42DB
:102AF00026D11A4B3D21180015F032FE03003B6031
:102B0000FB1D00221A700FE0FB1D1B7801333A6891
:102B1000D218FB1D1B7802331178114AD154FB1DCA
:102B20001A78FB1D01321A70FB1D1B780B2BEBD999
:102B3000074B02221A6003E00A4B03221A7000E0DE
:102B4000C046C046BD4602B080BDC0460008005029
:102B500000000020508901085C890108640A0020F7
:102B6000000E00205000002080B582B000AFC046AB
:102B7000554B0022402118000EF097FAFFF7E8FDB0
:102B8000524B1B78002B00D1B9E1504B00221A7038
:102B90004F4B5B78002B02D04D4B01229A704D4970
:102BA0004D4B0222180015F0C5FD031E02D14B4B00
:102BB00021221A704A49484B0222180015F0BAFD2A
:102BC000031E02D1454B5C221A704649424B022239
:102BD000180015F0AFFD031E02D1404B80221A7081
:102BE00041493D4B0222180015F0A4FD031E02D1FD
:102BF0003A4B3D221A703D49374B0222180015F01E
:102C000099FD031E06D13A4BFF221A7000F026FAF6
:102C100000F032FA3749304B0222180015F08AFDD5
:102C2000031E12D1C046344B1A78344B1A70334B02
:102C30001A78334B1A70334B01221A70314B1A78C1
:102C40002F4B11001800FFF75FFD2F49224B022286
:102C5000180015F06FFD031E6CD1C046274B1A7883
:102C6000FB1D0F210A401A70FB1D1B780B2B05D989
:102C7000224B1A78FB1D07210A401A70FB1D1B7896
:102C80000233224AD25C1D4B1B78D31ADAB2BB1D29
:102C9000013A1A70104B9B78BA1D12789A4239D1BA
:102CA0001B4B72221A70164BF1221A70144B3D22E4
:102CB0005A70144B02221A70124B1A78104B1100E2
:102CC0001800FFF721FD35E0000800500604002041
:102CD000FC0E002068890108640A0020440E0020D0
:102CE0006C890108708901087489010878890108D4
:102CF000070F00207C89010815040020140400201F
:102D0000580E0020520E002080890108000E00207D
:102D1000160400208D4BF1221A708C4B3E225A7003
:102D20008B4B02221A708A4B1A78884B11001800BC
:102D3000FFF7EAFC874B1B78722B04D0864B1B787D
:102D4000002B00D1DBE08549854B0222180015F0ED
:102D5000F1FC031E02D1834B60221A708249804B22
:102D60000222180015F0E6FC031E02D17D4B612201
:102D70001A707E497A4B0222180015F0DBFC031E04
:102D800002D1784B53221A707949754B02221800F0
:102D900015F0D0FC031E02D1724B50221A707549F7
:102DA0006F4B0222180015F0C5FC031E02D16D4BBB
:102DB00051221A7070496A4B0222180015F0BAFCB1
:102DC000031E02D1674B46221A706C49644B0222E3
:102DD000180015F0AFFC031E02D1624B49221A7095
:102DE00067495F4B0222180015F0A4FC031E02D1B4
:102DF0005C4B4A221A706349594B0222180015F0A5
:102E000099FC031E02D1574B54221A705E49544B51
:102E10000222180015F08EFC031E02D1514B8022B5
:102E20001A705A494E4B0222180015F083FC031EFB
:102E300002D14C4B3D221A705549494B02221800D1
:102E400015F078FC031E02D1464B55221A705149E9
:102E5000434B0222180015F06DFC031E02D1414BBA
:102E600056221A704C493E4B0222180015F062FCA3
:102E7000031E02D13B4B57221A704849384B02229D
:102E8000180015F057FC031E02D1364B58221A7059
:102E90004349334B0222180015F04CFC031E02D1AB
:102EA000304B59221A703F492D4B0222180015F061
:102EB00041FC031E02D12B4B5A221A703A49284B6F
:102EC0000222180015F036FC031E02D1254B5B22AE
:102ED0001A703649224B0222180015F02BFC031EF3
:102EE00002D1204B5C221A7031491D4B022218007E
:102EF00015F020FC031E02D11A4B5F221A7004F059
:102F00005FF903001A002B4B1B68D31A072B18D943
:102F100004F056F903001A00264B1A60264B1B7862
:102F2000552B02D1C04608F071F8234B1B78552B66
:102F300007D1C046064B1A78044B11001800FFF762
:102F4000E3FBC046BD4602B080BDC046580E00201F
:102F5000520E002016040020070F0020848901086B
:102F6000640A0020440E0020888901088C89010829
:102F70009089010894890108988901089C890108B1
:102F8000A0890108A48901087089010874890108D1
:102F9000A8890108AC890108B0890108B489010831
:102FA000B8890108BC890108C08901086C89010839
:102FB000C489010810040020390E002080B500AF3C
:102FC000164B1B78002B26D080231B01144A1900B6
:102FD00010000EF04DF8031E14D0124B1B78322B4C
:102FE00005D8104B1B780133DAB20E4B1A700D4B1B
:102FF0001B78322B0FD10C4B01221A70094B332254
:103000001A7008E0074B00221A70074B00221A7052
:10301000064B00221A70C046BD4680BD2409002020
:10302000000400500C040020280900201604002091
:1030300080B582B000AF0200FB1D1A70054B002264
:103040001A70FB1D1A78044B1A60C046BD4602B0C8
:1030500080BDC046050400200000002080B500AF00
:10306000044BF1221A70034B3D225A70C046BD46F4
:1030700080BDC046000E002080B500AF0B4B0C4A4F
:103080001A600C4B0A4A1A600B4B0C4A1A600C4B24
:1030900002221A700B4B0122DA700B4B55221A7068
:1030A0000A4B00221A70C046BD4680BD340E002077
:1030B000000E00202C0E0020300E0020010E0020FB
:1030C000500E00203C0E0020390E0020440E00203F
:1030D00080B500AF404B5B78002B06D03F4B012200
:1030E000082118000DF0E1FF05E03C4B002208210B
:1030F00018000DF0DAFF384B1B78002B08D0802326
:103100009900A023DB05012218000DF0CEFF07E097
:1031100080239900A023DB05002218000DF0C5FFD5
:103120002D4B9B78002B07D080239B002B4801223E
:1031300019000DF0BAFF06E080239B00274800220B
:1031400019000DF0B2FF244B1B79002B08D080230F
:103150005900A023DB05012218000DF0A6FF07E0AF
:1031600080235900A023DB05002218000DF09DFFED
:103170001B4B1B780133DAB2194B1A70164BDB78F4
:10318000002B0ED0164B1B781A000123134008D0D9
:103190008023D900A023DB05012218000DF085FF54
:1031A00007E08023D900A023DB05002218000DF0E2
:1031B0007CFF0C4B1B780133DAB20A4B1A70094BB7
:1031C0001B78272B04D9C046C046064B00221A7034
:1031D000C046BD4680BDC046780B002000080050A8
:1031E0006B0B0020DE0B002080B500AF464B1B7838
:1031F00001225340DBB2002B14D1444B5B78002BEF
:103200000AD1424B1B7801225340DBB2002B0ED176
:103210003E4B01225A7000E0C0463D4B180001F0C1
:103220006EFE05E0C046394B01221A7000E0C04630
:10323000354B5B7801225340DBB2002B14D1334B6A
:103240009B78002B0AD1314B1B7801225340DBB213
:10325000002B0ED12D4B01229A7000E0C0462D4B61
:10326000180001F04CFE05E0C046284B00229A7081
:1032700000E0C046284B1B7801225340DBB2002BF4
:1032800014D1224BDB78002B0AD1204B1B78012272
:103290005340DBB2002B0ED11C4B0122DA7000E050
:1032A000C0461E4B180001F02AFE05E0C046174B31
:1032B0000022DA7000E0C046134B9B780122534095
:1032C000DBB2002B14D1114B1B79002B0AD10F4B11
:1032D0001B7801225340DBB2002B0ED10B4B012295
:1032E0001A7100E0C0460E4B180001F008FE05E020
:1032F000C046064B00221A7100E0C046034B002274
:103300001A70C046BD4680BDC40B00207C0C002056
:10331000760C0020770C0020000C0020780C002098
:10332000790C002080B500AFC0464B4B00221A60DC
:103330004A4B1B88032213409BB2002B09D1484BF8
:103340001B78022B05D9444B1B68464A9A18424BFE
:103350001A60434B1B78002B13D0414B1B785A1E2D
:10336000414B9200D25813005B009B181A01D21AED
:1033700013019B1ADB011A00374B1B68D218364B1E
:103380001A60364B1B88394A9A1813005B029B1847
:103390009B009B18DB009B181A01D21AD3011A005C
:1033A00013001A002C4B1B68D2182B4B1A602B4BA6
:1033B0001B882F4A94466344002B00DA03339B108A
:1033C000DAB22C4B1A702B4B1B781A0013005B00DF
:1033D0009B181A01D21A13019B1ADB011A001E4B0B
:1033E0001B68D2181C4B1A60234B1B785A1E130003
:1033F0005B009B181A01D21A13019B1ADB011A00F9
:10340000154B1B68D218144B1A601C4B1B781A0002
:1034100013001B019B1A1A01D21A13011A000E4B3A
:103420001B68D2180C4B1A60154B1B781A0013003E
:103430001B019B1A9B001A00074B1B68D218064BF6
:103440001A60104B1B781A00034B1B68D218024BF2
:103450001A60C046BD4680BDB8100020B0100020E4
:10346000B210002080510100BC0100204EF8FFFF87
:103470004FF8FFFFBC100020B3100020B410002054
:10348000B5100020B610002090B585B000AF786070
:103490000A00FB1C1A700E23FB1800221A800D2351
:1034A000FB1800221A7011E00D203B181B787A6877
:1034B000D3181B7819000E22BB18BA1812888A1864
:1034C0001A803B181A783B1801321A700D23FA182B
:1034D000FB1C12781B789A42E6D30E243B191A88FB
:1034E000FB1C1B7819001000FCF7A0FE03001A005B
:1034F0003B191A803B191B881800BD4605B090BDCA
:10350000B0B586B002AFDF4B5B7801225340DBB22F
:10351000002B39D1DC4B01225A70DC4B14221A707B
:10352000DB4B00221A70DB4B00221A700F23FB18B2
:1035300000221A700AE00F203B181B78D64A00219F
:10354000D1543B181A783B1801321A700F23FB181C
:103550001B78072BEFD9D14BBB60D14B7B60BB688D
:10356000D04A19001000FDF7A9FA0300DAB27B680F
:103570001A70BB680133BB607B6801337B607A687B
:10358000C94B9A4202D8EAE7C04600E0C046BE4BAB
:103590005B78002B01D100F035FCC046FB1C0022FB
:1035A0001A700DE0FB1C1B78C04AD35C012253400B
:1035B000DBB2002B0CD1FB1C1A78FB1C01321A70F9
:1035C000FB1C1B78072BEDD9B04B14221A7000E0BE
:1035D000C046AE4B1B78002B01D100F0FEFBC0466D
:1035E000A94B9B7801225340DBB2002B14D1A64B90
:1035F0001B79002B00D170E2C046C046AC4B1B7853
:1036000007221340DAB2AB4B1A70AA4B1B78042B7B
:1036100001D900F0D0FB0DE3C0469B4BDB780122C3
:103620005340DBB2002B00D1CCE0C0469F4B0022C0
:103630005A709E4B00225A71964B1A789D4B1A7005
:103640009D4B09221A809D4B00221A8000F0E6FB58
:103650009B4B1A788F4B1A708E4B1B780F2213409E
:10366000DAB2944B1A70934B1B78092B40D89A000E
:10367000944BD3181B689F46C0462521052001F0B6
:1036800069FD3AE0C0460F210D2001F063FD34E0F2
:10369000C0460A21202001F05DFD2EE0C0460B212E
:1036A000202001F057FD28E0C0460F21002001F046
:1036B00051FD22E0C0460521252001F04BFD1CE014
:1036C000C04627210F2001F045FD16E0C0460A2123
:1036D0000F2001F03FFD10E0C0460E21052001F053
:1036E00039FD0AE0C0460E211F2001F033FD04E041
:1036F000C0462621262001F02DFD01F045FD6B4B33
:103700009B7801225340DBB2002B57D15E4B012244
:10371000DA70604B1B78092B00D160E3C0465D4B2B
:103720001B78082B4CD15C4B1B7801225340DBB239
:10373000002B03D1644B01221A7000E0C046564BA7
:103740005B7801225340DBB2002B2FD1524B002279
:103750005A70534B39229A5C514B5A70504B3A2253
:103760009A5C4F4B9A704E4B3B229A5C4C4BDA70F2
:103770004B4B3C229A5C4A4B1A71494B3D22995C57
:10378000474B2D229954464B3E22995C444B2E22A6
:103790009954434B3F22995C414B2F229954404B03
:1037A0004022995C3E4B3022995400E0C046474B82
:1037B00000221A70464BAA221A7013E3C04622E375
:1037C000C04620E3C046334B1B780F221340DAB2C9
:1037D000384B1A70374B1B78092B00D93AE19A0005
:1037E0003C4BD3181B689F46C0463B4B180000F06B
:1037F000EFFB03001C00394B180000F0E9FB03004D
:103800001D00374B180000F0E3FB03001A000223F1
:10381000009301232900200001F0F0FC1FE1C046C5
:10382000304B180000F0D4FB03001A00042300936F
:1038300003230021632001F0E1FC10E1C046264B88
:10384000180000F0C5FB030096331C00244B180041
:1038500000F0BEFB03001D00224B180000F0B8FB77
:103860000300EB180A331D001F4B180000F0B0FBDB
:1038700003001A002E2300932D232900200001F0BD
:10388000BDFCECE0380C0020080C0020920B00205E
:10389000200C00201F0C0020680C002004030020D6
:1038A0003C01002000F00308BB010020100C0020A8
:1038B0001E0C002020090020220C0020240C0020D7
:1038C000770B0020E0890108700C0020840C002098
:1038D000830C0020088A01084B01002049010020C8
:1038E0003D0100203F01002069010020C046D94B66
:1038F000180000F06DFB03000A3B1C00D64B1800BB
:1039000000F066FB0300963B1D00D44B180000F04E
:103910005FFB03001A00302300932F2329002000AF
:1039200001F06CFC9BE0C046CD4B1B78002B04D112
:10393000CB4B1B79002B0CD000E0C046C94B1B7849
:1039400001225340DBB25A1E9341DAB2C54B1A70C2
:1039500000E0C0460121282001F0FCFBC14B1B7890
:1039600001225340DBB2002B04D11D21002001F0C5
:10397000F1FB00E0C04601F007FC70E0C046052105
:10398000252001F0E7FBB84B63221A80B74B0022D9
:103990001A80B74B1A78B74B1A7000F03FFAB64B43
:1039A0001A78B34B1A7000F047FD01F0EDFB56E0BA
:1039B000C046B24BB24A19001000FDF77FF8030071
:1039C000DCB2B04BAE4A19001000FDF777F80300E7
:1039D0000A211800FCF7A0FB0300DBB2190020004D
:1039E00001F0B8FB3BE0C0469D4B1B78002B04D197
:1039F0009B4B1B79002B0CD000E0C046994B5B78A9
:103A000001225340DBB25A1E9341DAB2954B5A70F1
:103A100000E0C0460121282001F09CFB914B5B781F
:103A200001225340DBB2002B04D11D21002001F004
:103A300091FB00E0C04601F0A7FB10E0C0460E215C
:103A4000052001F087FB0AE0C0460E211F2001F08F
:103A500081FB04E0C0462621262001F07BFB804B41
:103A60009B7801225340DBB2002B2ED1864B0022E3
:103A7000DA70864B1B78052B29D1854B73229A5C13
:103A80007B4B1B789A4224D176497F48032302223C
:103A900007F044F87F4B00221A707B4B1B78012201
:103AA0005340DBB2002B03D16E4B0122DA7000E0F1
:103AB000C0466C4B00221A71754B52229B5C202B26
:103AC00009D1684B01221A719DE1C0469BE1C046B5
:103AD00099E1C04697E1C04695E1C046604960481B
:103AE0000523012207F035F86A4B1A78614B1A70EA
:103AF0005D4B04221A805D4B00221A8000F08EF983
:103B00005D4B1A78634B1A70624B1B780722134087
:103B1000DAB2584B1A70574B1B78042B22D89A00F4
:103B20005D4BD3181B689F46C0460F21002001F053
:103B300011FB1CE0C0462721112001F00BFB16E011
:103B4000C0461D21272001F005FB10E0C0460E21D4
:103B5000052001F0FFFA0AE0C0460E211F2001F007
:103B6000F9FA04E0C0462621262001F0F3FA01F01C
:103B70000BFB3B4B9B7801225340DBB2002B55D112
:103B8000414B01221A71434B1B78042B00D128E1D1
:103B9000C046404B1B78032B4AD13B4B00221A7086
:103BA000304BDB7801225340DBB2002B03D1364B84
:103BB00001221A7000E0C0462A4B9B780122534034
:103BC000DBB2002B03D1354B78221A7000E0C046DF
:103BD000334B522200219954224B1B79012253402E
:103BE000DBB2002B04D12E4B52222021995400E04D
:103BF000C0462B4B52229B5C1C002A4B204A1900CA
:103C00001000FCF75BFF03009C420DD0244B5222B6
:103C10009A5C254B1A70244B1B781A00214B190013
:103C2000100001F071FADDE0C046DBE0C046EAE0DA
:103C3000C046E8E09A001D4BD3181B689F46C0465B
:103C4000074B1B78002B33D1054B1B79002B3BD046
:103C50002FE0C0463D010020490100206B010020FB
:103C6000100C0020680C0020220C0020240C0020E6
:103C7000200C002020090020770B00207F0300206B
:103C800000F0030880030020080C00201F0C002017
:103C9000BC0000201E0C0020308A0108710C00209E
:103CA0003C01002056030020760B0020448A0108C6
:103CB000C046574B9B781A00022353405A1E93412B
:103CC000DAB2534B9A7000E0C0460121282001F07F
:103CD00041FA4F4B9B7801225340DBB2002B04D1B9
:103CE0001D21002001F036FA00E0C04601F04CFA38
:103CF00066E0C046474B1B78002B04D1454B1B792F
:103D0000002B0CD000E0C046414BDB780122534031
:103D1000DBB25A1E9341DAB23D4BDA7000E0C04686
:103D20000F21002001F016FA394BDB7801225340B5
:103D3000DBB2002B04D11D21002001F00BFA00E0C2
:103D4000C04601F021FA3BE0C046324B1B78002B05
:103D500004D1304B1B79002B0CD000E0C0462C4B1B
:103D60001B7901225340DBB25A1E9341DAB2284B31
:103D70001A7100E0C0460C21292001F0EBF9244B18
:103D80001B7901225340DBB2002B04D10F212920E3
:103D900001F0E0F900E0C04601F0F6F910E0C0469D
:103DA0000E21052001F0D6F90AE0C0460E211F20A1
:103DB00001F0D0F904E0C0462621262001F0CAF91E
:103DC000144B9B7801225340DBB2002B03D1124BE2
:103DD00000221A7117E0C04615E0C04602E0C04656
:103DE00000E0C0460C490C480323012206F0B1FE56
:103DF000094909480223052206F0ABFE064B0022C2
:103E00001A7100E0C046C046BD4604B0B0BDC04611
:103E1000680C0020100C0020080C002080B500AFBA
:103E2000064B01229A71064B1B781A00054B1A802B
:103E300000F00AF8C046BD4680BDC046080C002010
:103E4000200900202209002080B500AF4B4B1B78D1
:103E5000002B21D1494B1B79002B4FD1484B1B78AC
:103E6000002B17D1464B19221A70464B1B78002B9A
:103E700003D1434B0A221A7000E0C0463F4B5B78E7
:103E8000002B0BD13D4B5B79002B39D13D4B0522EB
:103E90001A7067E0C04665E0C04600E0C0463A4B95
:103EA0001B881AB2394B1B881BB29A4204DB384B71
:103EB0001A88354B1A8052E0C046364B9B79002B4E
:103EC0000AD1314B1B881BB2632B0DDC2E4B1B8898
:103ED0001BB264330ADB00E0C0462B4B1B88013366
:103EE0009AB2294B1A803AE0C04600E0C046264B01
:103EF0001B880A339AB2244B1A8030E0C04600E097
:103F0000C046214B1B881AB2214B1B881BB29A4218
:103F100004DC1E4B1A881C4B1A8020E0C0461D4B47
:103F20009B79002B0AD1184B1B881BB2642B0DDC2C
:103F3000154B1B881BB263330ADB00E0C046124BF3
:103F40001B88013B9AB2104B1A8008E0C04600E083
:103F5000C0460D4B1B880A3B9AB20B4B1A800E4B86
:103F60001E221A700B4B00229A71074B1B88DAB283
:103F70000A4B1A70C046BD4680BDC046100C0020DA
:103F8000420C0020930B002022090020220C00206C
:103F9000240C0020080C0020920B0020770B00203E
:103FA00080B582B000AF084B1B781B029AB2074B5A
:103FB0001B781900BB1D52181A80BB1D1B881800E6
:103FC000BD4602B080BDC046D00B0020D10B002002
:103FD00080B584B000AF78607B681B781B029AB212
:103FE0007B6801331B7819000E203B1852181A8089
:103FF0003B181B881800BD4604B080BD80B500AFDB
:10400000C046C046C046BD4680BD000080B500AF7A
:10401000054B49229B5C1A003C2353439AB2034B45
:104020001A80C046BD4680BDBC000020860B002023
:1040300080B500AF0B4B46229B5C1B01DAB20A4BEA
:104040001A70084B56229B5C1A00074B1B78DB0842
:10405000DBB253439AB2054B1A80C046C046BD46F8
:1040600080BDC046BC000020D60B0020DC0B002029
:1040700080B582B000AFBB1D00221A80BB1D0E4A66
:1040800012881A80BA1DBB1D1B88DB181380BA1D4D
:10409000BB1D1B88DB181380BB1D1B88DAB2074BC6
:1040A0001A70BB1D1B881B0A9BB2DAB2044B1A7034
:1040B000C046BD4602B080BD6E0B0020760B0020CE
:1040C000770B002080B500AF034B1B88180000F071
:1040D000AFF8C046BD4680BDCC0B002080B582B095
:1040E00000AFBB1D00221A80074B1988074B1A88A6
:1040F000BB1D8A1A1A80BB1D1B88180000F098F897
:10410000C046BD4602B080BDCE0B0020CC0B0020C7
:1041100080B500AF094B65229A5C094B1A7000F01C
:104120009FF9084B1B781B029BB2074A12789B1819
:104130009AB2064B1A80C046BD4680BDBC00002026
:10414000770B0020690B00206A0B0020820B0020F7
:1041500090B583B000AFBB1D00221A80BB1D314A51
:1041600012881A80304B1800FFF732FF0300190045
:10417000BB1DBA1D12888A181A802C4B52229B5CD8
:10418000202B45D1BB1D00229B5E002B22DABB1DDC
:10419000BA1D128852421A80BB1DBA1D12885208DD
:1041A0001A80BA1DBB1D1B88191CC900CB18DB184F
:1041B0001380BC1DBB1D1B8805211800FBF7ACFF3D
:1041C00003002380BB1DBA1D1288A02149008A1A52
:1041D0001A801EE0C046BB1DBA1D128852081A8004
:1041E000BA1DBB1D1B88191CC900CB18DB18138016
:1041F000BC1DBB1D1B8805211800FBF78DFF0300AC
:104200002380BB1DBA1D12884132FF321A8000E0A4
:10421000C046BB1D1B88180000F00AF8C046BD460A
:1042200003B090BDD40B0020C1000020BC000020D2
:1042300080B584B000AF0200BB1D1A8000F0CEFA3A
:104240000F23FB1800221A700E23FB1800221A708D
:10425000BB1D00229B5E002B08DABB1DBA1D128815
:1042600052421A80454B01225A7000E0C046BB1DE5
:104270001B880A211800FBF7D5FF0B009AB20E230A
:10428000FB181A70BB1D1B880A211800FBF744FF9E
:1042900003009AB20F23FB181A70384B5B78012287
:1042A0005340DBB2002B16D1354B23221A70354B0D
:1042B0005B7801225340DBB2002B03D1304B6422E8
:1042C0001A7000E0C0462E4B1B780F22BA181278E5
:1042D0009A4218D33DE0C046294B63221A70294BFD
:1042E0005B7801225340DBB2002B03D1244B6422C4
:1042F0001A7000E0C046224B1B780F22BA181278C1
:104300009A4225D200E0C0460F217B181B78092B6A
:104310000DD8C046194B01221A700E23FB181A78CB
:104320007B181B781100180000F014FF21E0C04634
:10433000134B0F22BA1812781A7000F091F8124B32
:104340001A780F4B1B781900100000F003FF10E0E3
:10435000C0460E4B1B88DBB21A002023134002D14B
:1043600000F03CFA05E0C0461121102000F0F2FEFA
:10437000C046C046BD4604B080BDC046B00B00205C
:10438000770B0020080C0020760B00206E0B00201D
:1043900080B584B000AF0200FB1D1A700F217B189E
:1043A00000221A70FB1D1B78092B0CD8C046104B3D
:1043B00001221A707B181A78FB1D1B781100180057
:1043C00000F0C8FE0FE0C0460A4BFA1D12781A70C2
:1043D00000F046F8084B1A78064B1B7819001000BD
:1043E00000F0B8FEC046C046BD4604B080BDC04621
:1043F000B00B0020770B0020760B002080B582B038
:1044000000AF0200FB1D1A70094BFA1D12781A70DA
:1044100000F026F8074B1A78054B1B78190010009E
:1044200000F098FEC046C046BD4602B080BDC04602
:10443000770B0020760B002080B500AF00F010F85D
:10444000054B1A78054B1B781900100000F082FE0E
:10445000C046C046BD4680BD760B0020770B0020CD
:1044600080B500AF114B00221A70114B1B781A0057
:10447000104B1A800F4B1B88DBB20A211800FBF788
:10448000D1FE0B00DAB20A4B1A700A4B1B88DBB262
:104490000A211800FBF740FE0300DAB2034B1A7042
:1044A00000F00AF8C046BD4680BDC046760B00202D
:1044B000770B00202209002080B582B000AFBB1D21
:1044C00000221A80114B1B78BA1D191C0B1CDB181B
:1044D0005B18DB1813800E4B1B781A003C235343E8
:1044E00099B2BB1DBA1D12888A181A80BB1D1B8881
:1044F0001B0A9BB2DAB2074B1A70BB1D1B88DAB2DB
:10450000054B1A70C046BD4602B080BD770B002037
:10451000760B0020690B00206A0B002080B582B06A
:1045200000AFA34B00221A70A24B1B78002B01D1C5
:10453000C04638E1C0469F4B1B78012B03D09E4BF1
:1045400000225A7100E0C04600237B6014E09B4AC1
:104550007B68D3181A789A497B68CB181B78134369
:10456000DAB298497B68CB181B781343DBB2002B77
:1045700007D17B6801337B607B68072BE7DDC04692
:10458000D7E7C046904B1B78002B2CD18A4B0122D9
:104590005A71874B01221A708C4B1F221A70874B5D
:1045A0001B7801225340DBB2002B09D0C046834B5D
:1045B0005B78002B19D0C046844B1F221A7000E094
:1045C000C04600F0CFFA00F0EFFA00F0DDFD804BBE
:1045D00013221A707D4B1A787D4B1B78190010003E
:1045E00000F0B8FDDFE0C046DDE0C046734BDB798C
:1045F00001225340DBB2002B05D1012227211F20CD
:1046000000F0D0FD00E0C0466C4B9B790122534086
:10461000DBB2002B05D101222721262000F0C2FDAC
:1046200000E0C046664B1B7801225340DBB2002BF2
:1046300005D100222F210E2000F0B4FD00E0C0467D
:10464000604B1B7801225340DBB2002B05D10122C5
:104650000A210B2000F0A6FD00E0C046574B5B7915
:10466000002B07D1564BDB7901225340DBB2002BE4
:1046700007D100E0C046012213211F2000F092FD67
:1046800000E0C0464E4B1B79002B07D14C4B5B79A9
:1046900001225340DBB2002B07D100E0C0460122CB
:1046A00013211F2000F07EFD00E0C046434B9B78A5
:1046B000002B07D1414BDB7801225340DBB2002BAA
:1046C00007D100E0C046012213211F2000F06AFD3F
:1046D00000E0C046394B1B7901225340DBB2002B6E
:1046E00005D101221E211F2000F05CFD00E0C04624
:1046F000334B9B7901225340DBB2002B05D10122C1
:104700000A211F2000F04EFD00E0C0462C4B9B7894
:1047100001225340DBB2002B05D101220C212020C5
:1047200000F040FD00E0C046254BDB7801225340FD
:10473000DBB2002B05D101220B21202000F032FD3D
:1047400000E0C0461E4B5B7801225340DBB2002BD9
:1047500005D101220C211F2000F024FD00E0C046FD
:10476000144B1B78012B0CD01A4B1B881B0A9BB2D5
:10477000DBB2194A5A21525C1340DBB2002B11D133
:1047800000E0C046C046124B1A78104B1B78190047
:10479000100000F0DFFC084B00221A70064B0022CC
:1047A0005A7000E0C046C0461800BD4602B080BD49
:1047B000B80F0020B80B0020B00B0020A80B002081
:1047C000A00B0020C8100020F80B0020760B002062
:1047D000770B00206E0B0020BC00002080B500AFDE
:1047E0001F211F2000F0B6FC044B00221A70034B5F
:1047F00000225A70C046BD4680BDC046B00B0020A6
:10480000F0B5A7B000AFD24B1B78AA2B00D05CE16B
:10481000C046D04B18000EF01BFECF4B1B68F82291
:104820001206944663448C22B9180B60BB181B68AF
:104830005B055B0D2FD1BB181B68DB0A8822B918FA
:104840000B600023FB676C26BB19180010231A00AD
:10485000002113F07DFF31007A180123D3607A180C
:104860008823FB181B6893607A1802231360C046E4
:104870000BF0C0FE031EFBD1142368229B18DA192B
:104880006C23FB18110018000BF0A8FFC0460BF0BA
:10489000D5FE031EFBD1B04B1B689422BA181360DF
:1048A0002B2368229B18DA190023137003E1AB4B0A
:1048B0001B681B788026BA19136000238422BA185B
:1048C0001360A64B1B685A1CA44B1A60A34B1B68B1
:1048D0001B78BB650023FB65B96DFA6D0B001B0EE1
:1048E000100000027866786E184378660B001B0291
:1048F0003B66BB191A685B68386E796E12184B41BB
:10490000B9190A604B60954B1B685A1C934B1A608F
:10491000924B1B681B783B6500237B65396D7A6D74
:104920000B001B0C100005041D430B001C04BB19DD
:104930001A685B6812196B413000B9190A604B6044
:10494000864B1B685A1C854B1A60844B1B681B786E
:10495000BB640023FB64BA6CFB6C1100090A796428
:1049600013001B063B6406003B181A685B68386C32
:10497000796C12184B413100781802604360774B14
:104980001B685A1C754B1A60744B1B681B78BB6301
:104990000023FB63BB6B1B007B6300233B630E00A8
:1049A0007B181A685B68386B796B12184B413100C1
:1049B000781802604360694B1B685A1C674B1A6089
:1049C000664B1B681B78BB620023FB62BB6A1B0241
:1049D0007B6200233B620E007B181A685B68386AB2
:1049E000796A12184B4131007818026043605B4BC2
:1049F0001B685A1C594B1A60584B1B681B78BB61CB
:104A00000023FB61BB691B047B6100233B610E003B
:104A10007B181A685B683869796912184B41310054
:104A20007818026043604D4B1B685A1C4B4B1A6050
:104A30004A4B1B681B78BB600023FB60BB681B06EE
:104A40007B6000233B600E007B181A685B68386847
:104A5000796812184B41B9190A604B603F4B1B68CB
:104A60005A1C3E4B1A60C0460BF0C4FD031EFBD11E
:104A70009423FB1819688023FB181A685B680120CF
:104A80000BF06AFDC0460BF0D9FD031EFBD194224A
:104A9000BB181B680833BA1813602E4B18000EF0B1
:104AA000D7FCC0462B2268215318DB191B785218FB
:104AB000D219013313702B2368229B18DB191B7842
:104AC0000F2B00D8F3E6C0463AE0C046214B180051
:104AD0000EF0BEFC1F4B18000EF0BAFC2A23682211
:104AE0009B18DB1900221A7021E01B4B1B68190070
:104AF0001A4B1B681B781A00194B1800FCF750F86A
:104B0000164B1B685A1C154B1A60134B1B685A1C1A
:104B1000114B1A600F4B18000EF09AFC2A216820E6
:104B20000B18DB191A780B18DB1901321A702A23BB
:104B300068229B18DB191B785BB2002BD5DAC046C4
:104B4000044B18000EF084FCC046BD4627B0F0BDF3
:104B5000AC0D00209C050020B00D0020B40D0020FD
:104B600000F0030880B582B000AFBB1D00221A80A0
:104B70000A4B0B4A19001000FBF7A0FF03009AB282
:104B8000BB1DB42149004A431A80064BBA1D128846
:104B90001A80C046BD4602B080BDC04673030020E7
:104BA00000F00308500C002080B582B000AFBB1DA0
:104BB00000221A800A4B0B4A19001000FBF77EFFF7
:104BC00003009AB2BB1DB42149004A431A80064B28
:104BD000BA1D12881A80C046BD4602B080BDC046CC
:104BE0007403002000F00308520C002080B500AFD1
:104BF000074B084A19001000FBF760FF03009BB247
:104C00003C2253439AB2044B1A80C046BD4680BD35
:104C10004F03002000F00308640C002080B582B030
:104C200000AF164B1B683B60154B1B78DB019AB23B
:104C3000144B1A80144B1B68124A12889B187B6015
:104C4000124B00221A707B681A783B681A707B68D6
:104C500001337B603B6801333B600C4B1B780133B5
:104C6000DAB20A4B1A70094B1B785BB2002B00DBDF
:104C7000E9E7C046C046BD4602B080BDC40D002075
:104C8000BA0D002022090020C00D0020770B002063
:104C900080B582B000AF174B1B687B60164B1B883A
:104CA0001B0A9BB2DAB2154B1A70144B1B781A0010
:104CB0007B681900100000F027FA114B18000EF065
:104CC000C7FB0D4B1B88DAB20C4B1A707B680433A0
:104CD0007B600A4B1B781A007B681900100000F0FB
:104CE00013FA074B18000EF0B3FBC046BD4602B0E6
:104CF00080BDC046601000205E100020760B0020B2
:104D00009C05002080B500AF254B1B881B0A9BB279
:104D1000DAB2244B1A70234B1B781A00224B19006D
:104D2000100000F0F1F9214B18000EF091FB1C4B24
:104D30001B88DAB21B4B1A701A4B1B781A001C4BDB
:104D40001900100000F0E0F9184B18000EF080FB7D
:104D5000184B1B881B0A9BB2DAB2124B1A70114B0C
:104D60001B781A00144B1900100000F0CDF90F4BFE
:104D700018000EF06DFB0F4B1B88DAB2094B1A704E
:104D8000084B1B781A000D4B1900100000F0BCF9FD
:104D9000064B18000EF05CFBC046BD4680BDC04609
:104DA000D00D0020760B0020880300209C050020F9
:104DB00089030020D20D00208A0300208B030020ED
:104DC00080B584B000AF78600A00FB1C1A7011E057
:104DD0000F217B187A6812781A707B181B781800DC
:104DE00000F060F87B6801337B60FB1C1A78FB1CC9
:104DF000013A1A70FB1C1B78002BE9D1C046C04653
:104E0000BD4604B080BD000080B500AF054B4E220A
:104E10009B5C1A003C2353439AB2034B1A80C04652
:104E2000BD4680BDBC000020C00F002080B582B010
:104E300000AF00237B6007E0074A7B68D31800229D
:104E40001A707B6801337B607B687F2BF4DDC04682
:104E5000C046BD4602B080BDAC0C002080B584B019
:104E600000AF786039600023FB600CE07B681A7843
:104E70003B681A707B6801337B603B6801333B60A1
:104E8000FB680133FB60064B1B781A00FB689342FA
:104E9000ECDB034B00221A70C046BD4604B080BD57
:104EA000770B002080B582B000AF0200FB1D1A70A6
:104EB000C046FB1D1A78044B1B68D218024B1A60BF
:104EC000C046BD4602B080BD540E002080B500AF84
:104ED000FFF796FCC046BD4680BD80B582B000AFEE
:104EE00078607B681B88002B05D07B681B88013BA2
:104EF0009AB27B681A80C046BD4602B080BD80B5BC
:104F000082B000AF78607B681B78002B05D07B688F
:104F10001B78013BDAB27B681A70C046BD4602B00E
:104F200080BD000080B582B000AF404B00221A70F7
:104F30003F4B1B88002B07D13C4B1B7801221343AE
:104F4000DAB23A4B1A7000E0C046BB1D00221A804C
:104F5000384B23229B5C1B029BB2364A2421525CB5
:104F60009B189AB2BB1D1A80334B1B781B029BB255
:104F7000324A12789B189AB2314B1A80304B1B88F8
:104F80001BB2BA1D0021525E9A4207DC274B1B78E8
:104F900002221343DAB2254B1A7000E0C046254BBB
:104FA00059229B5C012B25D0264B1B781B029BB200
:104FB000254A12789B189AB2214B1A801D4B212248
:104FC0009B5C1B029BB21B4A2221525C9B189AB22B
:104FD000BB1D1A801A4B1B881BB2BA1D0021525EE2
:104FE0009A4209DC114B1B7810221343DAB20F4BA3
:104FF0001A7002E0C04600E0C046144B1B78012244
:105000005340DBB2002B08D1084B1B788022524260
:105010001343DAB2054B1A7000E0C046034B1A780E
:105020000B4B1A70C046BD4602B080BD760B002007
:10503000DA0B0020BC000020D00B0020D10B002098
:1050400022090020D20B0020D30B0020980B002057
:10505000740B002080B582B000AF254B7B60254BE0
:105060003B60254B1B78AA2B15D1C046204B1A78E4
:10507000224B1B789A4223D0204B1B781A00204BDE
:105080009B5C18001D4B1B781A001A4BD318190093
:1050900000F03AF815E0C046184B1B781A00154B83
:1050A000D3181A00174B11001800FBF707FD010079
:1050B000124B1B781A007B689B18CAB21A7000E06A
:1050C000C0460E4B1B780133DAB20C4B1A700B4BF7
:1050D0001B785BB2002B06DA074B00221A70074BD5
:1050E00000221A7000E0C046C046BD4602B080BD36
:1050F000BC00002004030020830C0020840C00204E
:105100003C01002000F0030880B584B000AF02002D
:105110003960FB1D1A70FB1D1B78FB603B680A4A57
:10512000934206D9FA683B6808481900FBF738FD36
:1051300005E0FA683B6806481900FBF731FDC046F8
:10514000BD4604B080BDC046FFF7030800F8030861
:1051500000F0030880B582B000AF0200FB1D1A709A
:10516000BB1D0A1C1A70064BFA1D12781A70054BEB
:10517000BA1D12781A70C046BD4602B080BDC04646
:10518000730B0020720B002080B500AF044B00228F
:105190001A70034B00225A70C046BD4680BDC046FF
:1051A000B00B002090B583B000AF040008001100E0
:1051B000FB1D221C1A70BB1D021C1A707B1D0A1CD1
:1051C0001A700B4BFA1D12781A700A4BBA1D12781E
:1051D0001A707B1D1B78002B03D0074B01221A701D
:1051E00002E0054B00221A70C046BD4603B090BDD8
:1051F000770B0020760B0020B80F0020B0B582B0EE
:1052000000AF05000C0010001900BB1D2A1C1A80FD
:105210003B1D221C1A80BB1C021C1A807B1C0A1C12
:105220001A70144BBA1D12881A80134B3A1D12883B
:105230001A80124BBA1C12881A80FEF705FE0F4B1B
:105240001B881B0A9AB27B1C1B78D1B20C4AD15422
:105250000A4B1A881823FB181B78D1B2084AD1547C
:10526000064B1B881800FEF7E3FFC046BD4602B0A0
:10527000B0BDC046220C0020240C002022090020D2
:105280003C01002080B584B000AF794B1B78013B16
:10529000DAB2774B1A70764B1B78FF2B03D1754B24
:1052A00000225A70DDE0724B1B78FE2B03D1714B4C
:1052B00001225A70D5E06E4B1B78002B00D0CDE058
:1052C000C0466B4B05221A706B4B18000CF011FB9B
:1052D0000300202B00D0AEE0684B00221A70684B10
:1052E0001B68BB60664B00221A600F23FB1800226C
:1052F0001A700AE00F203B181B78624A0021D15433
:105300003B181A783B1801321A700F23FB181B78D0
:10531000062BEFD95B4B07221A705A4B09225A70A1
:10532000594B1A78574B9A70584B1A78554BDA707C
:10533000544B00221A710E23FB1800221A7015E03C
:10534000504B1A790E203B181B785149CB5C190041
:105350003B181B7899400B00DBB21343DAB2494B80
:105360001A713B181A783B1801321A700E23FB1879
:105370001B78072BE4D9434B00225A71414B7B60C9
:105380007B6806211800FFF71BFD3D4B1B68DAB256
:105390003C4B9A713A4BBA681A603E4B1B78002B13
:1053A00034D03D4A3448092354210CF0D1F8031E6F
:1053B00023D10D23FB1800221A7015E0364B9B7980
:1053C0001A000D203B181B781A41130001221A40C5
:1053D0003B181B78511E8A41D1B2304AD1543B1838
:1053E0001A783B1801321A700D23FB181B78072B13
:1053F000E4D9284B00221A7033E01F4B18000BF041
:1054000071FF1D4B18000BF0C7FE2AE01D4A1A4819
:10541000072354210BF096FF031E03D11D4B0122DD
:105420001A701EE0144B18000BF05CFF124B1800B2
:105430000BF0B2FE15E0114B1B780133DAB20F4BC3
:105440001A700E4B1B78002B0AD10B4B18000BF077
:1054500049FF094B18000BF09FFE02E0C04600E038
:10546000C04600F01DF8C046BD4604B080BDC04631
:10547000980C0020780B002088040020D610002013
:10548000540E002008000020990C00209A0C0020E7
:105490009C0C00201704002018040020A40C0020FD
:1054A00090B583B000AFB04B1B78012B01D100F059
:1054B00039FCC046AD4B5B229B5C1A0001231340B4
:1054C00004D0FFF74FFBFFF76FFBCCE1C046A74BC3
:1054D00053229B5C1A000823134045D0C046FB1D95
:1054E00000221A703AE0FB1D1A78A14B9200D058A6
:1054F000FB1D1B789F4AD35C012219000BF0D5FDE0
:10550000BB1D00221A7013E0BB1D1A78984B920045
:10551000D058BB1D1B78974AD35C19000BF0A8FD2F
:10552000031E00D1CEE1BB1D1A78BB1D01321A70DB
:10553000BB1D1B78042BE7D9FB1D1A788C4B9200FE
:10554000D058FB1D1B788B4AD35C002219000BF04E
:10555000ACFDFB1D1A78FB1D01321A70FB1D1B7878
:10556000032BC0D9C04674E1C046834B1B785A4216
:105570005341DBB21A00814B1B78134022D0804B81
:105580005868804B5B78012219000BF08EFD0A20D1
:1055900009F04EF9764B1A68764B1B78190010000B
:1055A0000BF066FD031E02D0774B01221A71744B7B
:1055B0005868744B5B78012219000BF076FD6F4B35
:1055C00000221A706C4B1B780A2B00D083E07B1DE5
:1055D00000221A7048E07B1D1A78654B9200D05863
:1055E0007B1D1B78634AD35C19000BF041FD031E41
:1055F0000FD0664B1B781A0013009B009A187B1D76
:105600001B78D318624AD25C0132D1B2604AD154BD
:1056100025E07B1D1A78564B9200D0587B1D1B78D5
:10562000544AD35C19000BF023FD031E17D1574BCE
:105630001B781A0013009B009A187B1D1B78D31847
:10564000514A0021D154514B1B781A0013009B0082
:105650009A187B1D1B78D3184D4A0021D1547B1D0D
:105660001A787B1D01321A707B1D1B78042BB2D96E
:10567000464B1B781A00424B9200D058434B1B7884
:105680001A00404B9B5C002219000BF00EFD3F4BB3
:105690001B78032B05D83D4B1B780133DAB23B4B0B
:1056A0001A703A4B1B78042B02D1384B00221A7027
:1056B000364B1B781A00324B9200D058334B1B7874
:1056C0001A00304B9B5C012219000BF0EEFC2A4BB8
:1056D00000221A7009E0284B1B78092B05D8264BAD
:1056E0001B780133DAB2244B1A703B1D00221A706A
:1056F000A5E0FB1C00221A7097E03B1D1A781300EE
:105700009B009A18FB1C1B78D318214AD35C5A1EA5
:105710009341DAB2184B19780920002388425B4183
:10572000DBB21340DBB2002B00D179E0FB1C1A780E
:105730000F4B9200D058FB1C1B780E4AD35C19000B
:105740000BF096FC031E25D03B1D1A7813009B001E
:105750009A18FB1C1B78D3180D4AD25C0132D1B2C7
:105760000B4AD1543AE0C046B80B0020BC000020E0
:10577000EC01002000020020001100201C0200208B
:105780000802002018020020D8100020011100207B
:10579000EC100020FB1C1A78CF4B9200D058FB1C59
:1057A0001B78CE4AD35C19000BF062FC031E15D1A6
:1057B0003B1D1A7813009B009A18FB1C1B78D3180A
:1057C000C74A0021D1543B1D1A7813009B009A1838
:1057D000FB1C1B78D318C34A0021D1543B1D1A78F7
:1057E00013009B009A18FB1C1B78D318BD4AD35C8E
:1057F0000A2B15D13B1D1A7813009B009A18FB1C2D
:105800001B78D318B64A0121D1543B1D1A781300D6
:105810009B009A18FB1C1B78D318B24A0021D15464
:10582000FB1C1A78FB1C01321A70FB1C1B78042B22
:1058300000D862E73B1D1A783B1D01321A703B1DF0
:105840001B78032B00D854E7A54B1B79002B3BD1C9
:10585000C046A54B1800FFF752FBA34B1B78002B4B
:1058600000D0A8E0C046A14B00221A70A04B4822ED
:105870009A5CA04B1A70A04B00221A71FEF7C6FB6F
:105880009E4B5B78002B00D197E0C0469B4B0022DB
:105890005A709A4BDB7801225340DBB2002B00D1C7
:1058A0008DE0C046FFF7A2F9954B00221A70954B88
:1058B00000221A70914B0122DA70934B01221A7167
:1058C000C04661E0C04600E0C046874B1B785BB233
:1058D000002B06DB844B1B780133DAB2824B1A7043
:1058E00000E0C046804B1B785BB2002B2CDA7F4B6C
:1058F00001221A70854B05221A707D4B4F229A5C4B
:10590000834B1A70834B05221A70834B834A19000C
:105910001000FBF7D3F8031E03D1764B63221A70F5
:1059200000E0C046754BDB78002B0FD0C0467C4BA7
:1059300001221A70714B0022DA70734B00221A7127
:10594000784B00221A801FE0C04600E0C046764B2C
:105950001B88002B13D1674B1B78002B08D0644B9E
:1059600049229B5C002B05D0634B01221A710BE08E
:10597000C04600E0C046604B00221A7104E0C046F9
:1059800002E0C04600E0C046584B5B78012253401D
:10599000DBB2002B03D1654BF0221A7000E0C04649
:1059A000524B00225A70514B00229A70FFF7DAF8DE
:1059B000FFF7FAF847E0C04602E0C04600E0C04604
:1059C0004A4B5B78002B0CD1FEF7EAFA03001CB2BD
:1059D000574B1800FEF7FCFA03001BB29C42D0DACA
:1059E00000E0C046414BDB79002BCCD0C046514B88
:1059F0001B88002B08D0FFF7D7F83C4B00225A70C9
:105A00003A4B00229A701EE0C046384B5B78002B60
:105A100003D1464BF0221A7000E0C046334B0122FE
:105A20005A70454B1B88002B0CD1304B9B78002BB8
:105A300003D13E4BF0221A7000E0C0462B4B0122EE
:105A40009A7000E0C046BB1C00221A7013E0BB1C19
:105A50001B783A4A0021D154BB1C1B78384A0021DC
:105A6000D154BB1C1B78374A0021D154BB1C1A7877
:105A7000BB1C01321A70BB1C1B78072BE7D9284BC3
:105A80005B78002B17D1304B1B7801225340DBB2DF
:105A9000002B12D12C4B9B7801225340DBB2002B00
:105AA0000DD12A4B1B78002B03D1264B01225A70B3
:105AB00041E1C0463FE1C04602E0C04600E0C046CA
:105AC000224B1B78952B43D8204B1B780333DAB23B
:105AD0001E4B1A703DE0C046EC0100200002002081
