:020000040800F2
:1000000000800020BD12010879C1000881C10008EC
:1000100000000000000000000000000000000000E0
:1000200000000000000000000000000089C100087E
:10003000000000000000000093C100089DC10008FE
:100040000D1301080D130108ADC100080D130108BF
:100050000D1301080D1301080D130108C5C1000897
:100060000D1301080D130108D9C10008FDC10008D6
:100070000D1301080D1301080D1301080D130108DC
:100080000D1301080D1301080D1301080D130108CC
:100090000D1301080D1301080D13010839C20008E2
:1000A0000D1301080D1301080D1301080D130108AC
:1000B00069C200080D13010881C200080D13010870
:1000C00010B5064C2378002B07D1054B002B02D02E
:1000D000044800E000BF0123237010BD4803002046
:1000E000000000009CB40108044B10B5002B03D0A5
:1000F0000349044800E000BF10BDC04600000000F6
:100100004C0300209CB401080023C25C0133002A88
:10011000FBD1581E70470000002243088B4274D365
:1001200003098B425FD3030A8B4244D3030B8B42F8
:1001300028D3030C8B420DD3FF22090212BA030C01
:100140008B4202D31212090265D0030B8B4219D3E2
:1001500000E0090AC30B8B4201D3CB03C01A524102
:10016000830B8B4201D38B03C01A5241430B8B424A
:1001700001D34B03C01A5241030B8B4201D30B0333
:10018000C01A5241C30A8B4201D3CB02C01A52415A
:10019000830A8B4201D38B02C01A5241430A8B421D
:1001A00001D34B02C01A5241030A8B4201D30B0206
:1001B000C01A5241CDD2C3098B4201D3CB01C01A20
:1001C000524183098B4201D38B01C01A524143092A
:1001D0008B4201D34B01C01A524103098B4201D318
:1001E0000B01C01A5241C3088B4201D3CB00C01A85
:1001F000524183088B4201D38B00C01A52414308FD
:100200008B4201D34B00C01A5241411A00D2014621
:10021000524110467047FFE701B5002000F0F0F8AA
:1002200002BDC0460029F7D076E7704703460B436E
:100230007FD4002243088B4274D303098B425FD3DF
:10024000030A8B4244D3030B8B4228D3030C8B420B
:100250000DD3FF22090212BA030C8B4202D31212F1
:10026000090265D0030B8B4219D300E0090AC30BC6
:100270008B4201D3CB03C01A5241830B8B4201D373
:100280008B03C01A5241430B8B4201D34B03C01A5C
:100290005241030B8B4201D30B03C01A5241C30AD4
:1002A0008B4201D3CB02C01A5241830A8B4201D345
:1002B0008B02C01A5241430A8B4201D34B02C01A2F
:1002C0005241030A8B4201D30B02C01A5241CDD2D4
:1002D000C3098B4201D3CB01C01A524183098B421F
:1002E00001D38B01C01A524143098B4201D34B0108
:1002F000C01A524103098B4201D30B01C01A52416B
:10030000C3088B4201D3CB00C01A524183088B42F1
:1003100001D38B00C01A524143088B4201D34B00DA
:10032000C01A5241411A00D201465241104670474C
:100330005DE0CA0F00D04942031000D34042534051
:1003400000229C4603098B422DD3030A8B4212D311
:10035000FC22890112BA030A8B420CD38901921143
:100360008B4208D3890192118B4204D389013AD080
:10037000921100E08909C3098B4201D3CB01C01A55
:10038000524183098B4201D38B01C01A5241430968
:100390008B4201D34B01C01A524103098B4201D356
:1003A0000B01C01A5241C3088B4201D3CB00C01AC3
:1003B000524183088B4201D38B00C01A5241D9D2DB
:1003C00043088B4201D34B00C01A5241411A00D25C
:1003D0000146634652415B10104601D34042002B58
:1003E00000D54942704763465B1000D3404201B5D7
:1003F000002000F005F802BD0029F8D016E770478C
:100400007047C0468446100062468C461900634619
:1004100000E0C0461FB501F091F8002801D400218A
:10042000C8421FBD10B500F0D1FF4042013010BDE1
:1004300010B501F083F8002801DB002010BD012079
:1004400010BDC04610B501F079F8002801DD00208C
:1004500010BD012010BDC04610B500F0FBFF002804
:1004600001DC002010BD012010BDC04610B500F019
:10047000F1FF002801DA002010BD012010BDC046A8
:100480001C2101231B04984201D3000C10391B0AC4
:10049000984201D3000A08391B09984201D3000988
:1004A000043902A2105C40187047C04604030202DF
:1004B000010101010000000000000000002B11D12B
:1004C000002A0FD1002900D1002802D00021C94301
:1004D000080007B4024802A14018029003BDC046BC
:1004E00021FFFFFF03B4684601B5029800F024F82D
:1004F000019B9E4602B00CBC7047C04670B50022FE
:100500000C4B04000D00FFF7B1FF002804D12000C0
:10051000290001F00BFF70BD064B002220002900CE
:1005200001F046FB01F002FF80231B069C4660445D
:10053000F1E7C0460000E041F0B557464E4645465B
:10054000DE46E0B504000D009246994683B08B422A
:1005500030D82DD04946504601F048FF290006000A
:10056000200001F043FF331A9846203B34D49B46C9
:1005700053465A46934042461F00534693401E003E
:10058000AF423BD8AF4200D179E05B46A41BBD41EE
:10059000002B00DA76E00022002300920193012371
:1005A0005A4693400193012342469340009329E029
:1005B0008242CFD900220023009201930C9B002B92
:1005C00001D01C605D600098019903B0F0BCBB468F
:1005D000B246A946A046F0BD42469B4620239B1A40
:1005E0005246DA40414613004A468A4017004246C6
:1005F0001F43534693401E00AF42C3D9002200233D
:10060000009201934346002BD8D0FB0772081A438F
:1006100046467B080EE0AB4201D1A2420CD8A41A98
:100620009D41012024196D410021013E24184D41B6
:10063000002E06D0AB42EED9013E24196D41002EAA
:10064000F8D1009801995B4600196941002B24DB21
:100650002B005A464446D3402A00E2401C005B4629
:100660001500002B2ADB26009E403300260047465B
:10067000BE403200801A9941009001919EE7A3424A
:10068000BCD882E74246202300219B1A0022009119
:1006900001920122DA40019285E7424620239B1A0B
:1006A0002A0046469A402300F340444613432A005A
:1006B000E2401C005B461500002BD4DA42462F00B6
:1006C0002023260097409B1ADE403B003343CDE7B2
:1006D000F0B557464E464546DE46E0B583B000903D
:1006E00001910C034F00CE0F610A009C1D03640FA3
:1006F0000C43009900920193C80059004B0D994694
:10070000009A019B6D0AD90F530F2B439A46009B09
:100710007F0DDA0094464A46B046BA1A8E4200D19E
:10072000B0E0002A00DC78E04946002900D1E9E089
:10073000C9498F4200D195E10125382A16DC802174
:10074000534609040B439A461F2A00DDE7E12021A6
:1007500055468B1A61469D40D1400D4361469940F4
:100760004B1E99415346D3400D43E41A451BA84202
:1007700080414042241A230200D40FE16402640A3B
:10078000002C00D139E12000FFF77AFE0300083B7E
:1007900020212800CA1AD0409C4002009D402243DC
:1007A0009F4200DD73E1D81B0130091A2C008D40F7
:1007B000C4406B1E9D411300C2408B40254300275F
:1007C00014001D436B0709D00F232B40042B05D0C9
:1007D0002B1DAB42AD416D4264191D00230200D4B4
:1007E0002DE19D4A0137974200D1D3E046469B490F
:1007F000ED0821404A072A437C054D022D0B640D6C
:1008000024052C43F60734431000210003B0F0BC4C
:10081000BB46B246A946A046F0BD002A00D184E0FE
:100820004A46D21B002F00D06DE12500054300D1C0
:1008300027E1561E012A00D13BE2874DAA4200D192
:100840006AE20125382E12DC32001F2A00DDF8E1B1
:1008500020262500B61A07005346B040D440B540C4
:10086000D740461EB0411B1B9A463D430543624696
:10087000551BAC459241534652420E004F468846A6
:100880009C1A78E7002A00DC8EE04946002975D1E1
:1008900061465346194300D1F6E0511E012A00D1AA
:1008A00091E16D4DAA4200D1DCE00125382914DC2C
:1008B0000A001F2A00DDA2E120215346891A8B403D
:1008C0001D006346D3401D4363468B4019004B1EF9
:1008D00099415346D3400D43E4182D188542804179
:1008E00040422418230259D55B4B01379F4251D017
:1008F00001215A4B6A081C4029400A43E507154369
:1009000064085FE761465346194300D1BCE0511EBD
:10091000012A00D164E1504DAA4200D16AE10125CB
:10092000382900DD22E70A000EE74D4A7D1C1542FA
:1009300000D0D0E025006246534605431A43002FFD
:1009400000D037E1002D00D1A8E1002A00D16AE1F2
:100950006346C51A5346E21AA8429B415B42D31A2A
:100960001A0200D403E263461D1AAC459241534675
:1009700052421C1B0E008846A41A23E736498F42B8
:1009800070D00125382AA8DC8021534609040B4386
:100990009A468EE73C000025002231E707232B40D2
:1009A000002B00D010E793E0002A74D04A46D21BF7
:1009B000002F00D1C7E02849894500D185E10125F4
:1009C000382A12DC802109040C431F2A00DDABE128
:1009D00020212500891A070088408D40D740411EFC
:1009E0008841D4403D430543A24465446545924156
:1009F0005242524414004F4674E72800FFF740FD6E
:100A0000030018331F2B00DCC2E62A00083882409E
:100A10009F4200DDA9E0DB1B581C1F2800DCACE175
:100A200015001F3BDD40202805D040231B1A9A40AB
:100A3000531E9A411543072300272B40B0E7ED08CA
:100A4000054B62072A43E4089F420FD02403250B7D
:100A50007C05640DD4E6C046FF070000FFFF7FFF62
:100A6000FE070000C00862070243E40813002343A6
:100A700000D186E180252D0325432D03C34C2D0B8A
:100A8000BEE6604654460E001700C508D8E7C04CC5
:100A9000FF1A144096E6BF4A791C11426BD122001E
:100AA0000243002F00D0DBE0002A00D12DE1624696
:100AB00053461A4300D1B6E06346C51885428041CB
:100AC000544440422418230202D50F00B04B1C406E
:100AD0003A002800D8E76246851AA8429241534658
:100AE00052429146E31A1A004B46D21A130091461D
:100AF0001A0254D44A464C462A4300D040E6002607
:100B0000002400257CE6A14DA94500D190E00125F7
:100B1000382A00DDABE680252D042C4395E6110034
:100B200055462039CD40A946202A06D040215346BB
:100B30008A1A934062461A43944665466B1E9D414D
:100B40004B461D4312E62100014300D1C4E0511E73
:100B5000012A00D1FBE08D4DAA4200D1B5E001256C
:100B6000382900DD41E70A002FE7894CFF1A1440BD
:100B70006207E4086AE7854A914200D1E3E06346F0
:100B8000C218824280412300404253441B18DD07B3
:100B90005C080723520815430F002B4000E763460B
:100BA0001D1AAC459241534652421C1B0E0088460A
:100BB000A41AE5E5002D00D091E0002A38D1802468
:100BC0000026240356E76346C518854280415444F5
:100BD000404224180127230200D4DFE6022787E6DB
:100BE0006346C51AA842804153464042E41A012791
:100BF000241AC0E56207C0080243E40836E7110082
:100C000053462039CB409946202A06D040215346EE
:100C10008A1A934062461A43944665466B1E9D416C
:100C20004B461D4359E66207C0080243E4080DE73E
:100C300053465A076346D80853460E000243DC0861
:100C400014E715002600203DEE40202A03D0402561
:100C5000AA1A94402043421E90410500354306E6FF
:100C6000002A7CD062465346C0081A4300D1FAE6F7
:100C7000620710438022E4081203144208D0D90806
:100C8000114205D16346D80853460C005B07184350
:100C9000420FC000C00852070243E7E6002A00D115
:100CA0002DE76346D80853465A070E000243DC0876
:100CB000CCE663461D1AAC459241534652421C1B7A
:100CC0000E008846A41A013755E56346D9085346F5
:100CD0005A070A43DC08C9E660465446D4E6C00811
:100CE000002A00D1BFE6620710438022E408120305
:100CF0001442CDD0DD081542CAD16346D808534608
:100D00005B070E002C001843C2E76346D908534620
:100D10005A070A43DC0899E66346D80853465A073F
:100D20000E000243DC08A1E6110027002039CF4065
:100D3000202A03D040218A1A94402043421E904129
:100D400005003D4351E60C000025002258E56044B3
:100D500060459241544452420500A4183AE7534674
:100D60005A076346D90853460A43DC087EE61A0050
:100D70001C002A4300D0ABE6C1E620210025091A59
:100D800019E500220025014C3AE5C046FF070000A6
:100D9000FFFF7FFFFE070000F0B5DE4645465746E1
:100DA0004E46E0B587B0009201930B031B0B9B46A8
:100DB000CA0F4B00040080465B0D029200D16AE12D
:100DC000D44A934200D18CE15946420FC9000A43EC
:100DD000802109041143C2009046CF4A89469246B9
:100DE0009A44002300240393009E019F3B031B0BA6
:100DF0009B467B0030005B0DFD0F002B00D128E1EE
:100E0000C44A934200D177E15946720FC9000A43A0
:100E10008021090411438B46BF49F2008C4651469C
:100E20006344CB1A9A460023029E6E400F2C27D8AB
:100E3000BA49A40009598F46CB464246029E039BFD
:100E4000022B16D0032B00D1A6E2012B00D0DFE04D
:100E500000220023002490461B052343F60733435A
:100E60004046190007B0F0BCBB46B246A946A046B2
:100E7000F0BD002200249046A64BEDE72E00DFE7F0
:100E8000CB4500D2D4E100D1CFE101235B429C46A7
:100E9000444648460027E2445B46150E1B021D43AC
:100EA000190C2B04120200951D0C9146029103951A
:100EB000FFF7B8F902006A430B04210C804619437E
:100EC0008A4209D9009D0123AC465B4261449C469D
:100ED000E0448D4200D8FBE1881A0299FFF7A2F99D
:100EE000039A240442430904240C03000C43A24245
:100EF00006D90099013B8C466444A14200D8E1E147
:100F0000A01A424612041A4393464B4659461B0CFC
:100F10001D0004930B0449460904090C0C001B0C2A
:100F20005C43120C6B43884651436A43250CAC4624
:100F30005B186344994203D9802149028C4662447C
:100F4000190C24041B04240C8A181C19904202D387
:100F500016D1A74214D25B46009D013B4F44059336
:100F60004F459B41AC465B426344C018854200D369
:100F7000A1E1824200D9F6E100D1F1E1059B9B4657
:100F80003C1BA742BF41009D801A7F42C01B854287
:100F900000D1D0E10299FFF745F9039A0B044243CF
:100FA000210C070019438A4200D978E1881A029976
:100FB000FFF738F9039A240442430904240C030080
:100FC0000C43A24200D95DE14146A41A3A041A43F7
:100FD000049D13041B0C594347466B439C46100C5D
:100FE00047430B0CBC44634468439F4203D98025AC
:100FF0006D02AC4660441F0C09041B04090C3F1829
:101000005B18BC4200D202E100D1FDE001231A438B
:10101000434B5344002B00DCAEE0510700D098E175
:101020005946C90106D559463E4B194080238B4687
:10103000DB0053443C498B4200DD1AE75946D20895
:10104000490711435A465B0554028846240B5B0D41
:1010500002E75A46009B1A4300D17EE05B46002B14
:1010600000D100E15846FFF70BFA020003000B3AEB
:101070001D27009EBA1A19005846D64008398840E4
:10108000320002439346009A8A40284953448A46D4
:101090009A440023C8E65B460343994656D05B4614
:1010A000002B00D1CDE05846FFF7EAF90B235B4255
:1010B0009C460200844466461D239B1B26001100AB
:1010C0005846DE40083988403300034399462300E0
:1010D0008B409846164B00249B1A9A460023039394
:1010E00082E65A46024391462AD100229A460223BA
:1010F00090460824039377E65A46009B1A430D4B0B
:101100009C46E244002A17D102231C4300239B463D
:10111000023389E6FF07000001FCFFFF80B50108EC
:10112000FF030000FFFFFFFEFE070000F3030000C7
:101130000DFCFFFF01F8FFFF032332001C4373E6A1
:101140009A460323D9460C2403934DE60023984680
:101150009A4601330424039346E601231C430023EB
:101160009B46013360E60023802498460026924B7C
:10117000240371E6012252420121C91A382900DDF7
:1011800066E61F2900DCABE01F204042C31A584628
:10119000D8400300202904D058468849514488404B
:1011A0000243511E8A411A430723190000241140AB
:1011B00013420CD00F231340042B00D1F9E0111D72
:1011C00091429B410A005B4259075B021C0BD2080B
:1011D0000A43904600233FE680244B4624032342E3
:1011E00009D05B46234206D11C4324032E009046BF
:1011F000714B240B30E680244B4624031C4324030C
:10120000029E6D4B240B27E6002B00D100E70098CF
:10121000511E84466444844200D284E0BC4200D221
:10122000AEE000D1C1E00A00F0E6424500D92CE66C
:101230004B46DC07580843465B081C434346DF0720
:101240002AE6FFF71DF915239C46844402006346F5
:1012500020321C2B00DC2EE72300083883409946FF
:101260000023984636E7FFF70BF90200030015321A
:1012700020331C2A00DCFBE600990838814000225C
:101280008B4602E70099013B8C466444A14200D999
:101290009AE6A24200D897E6831E644494E6AC46E0
:1012A0006144013F8D4200D980E68A4200D87DE644
:1012B000871E61447AE6854200D05FE6B94500D9D1
:1012C0005CE656E6A24200D81AE6831E644417E69E
:1012D0008A4200D800E6AC46831E98466144FBE58E
:1012E00037481400504482405B4617008340CC408E
:1012F0007A1E974123433B431A005B46CB4051077C
:1013000009D00F211140042905D0111D91429241AD
:1013100052429B180A00190200D455E7002201230B
:101320000024904698E50A00BC4200D06EE64B458A
:1013300000D06BE66CE6234B234A5344924500DA17
:1013400018E7012149420A1D8A42894149428B44DA
:1013500066E60F211140042900D161E61100F2E791
:10136000BC4200D80AE602235B429C4600994F44E7
:101370004F459B41E3448C465B426344C018FFE504
:101380004946009D480048458941AC464942614470
:101390008146023A6418C7E780245B4624031C4355
:1013A00024039046044B240B56E59945E8D30A00E4
:1013B000BDE7002308E7C046FF0700003E04000029
:1013C0001E040000FF03000002FCFFFFF0B55746BB
:1013D000DE464E464546E0B50D000400E80F834664
:1013E0000903D80F090B824619488C461F03690070
:1013F0005E00490D3F0B760D814218D086420FD01A
:101400000120B1420DD1BC450BD1944209D1D34545
:101410001CD0002905D160462043431E984100E0BE
:101420000120F0BCBB46B246A946A046F0BD012053
:101430008E42F6D1614639430F0017432743F0D15E
:101440005B465246981A431E9841EAE70020E8E7B7
:10145000FF070000F0B557464E464546DE46E0B56C
:101460000D000F03390B83B0040080460191580032
:10147000E90F314F400D8C466E00190382469146AC
:10148000760D090BD80FBE421FD0BA450FD0002EE3
:101490002FD15546019E3443002D27D10A433AD01F
:1014A000002C45D100281AD10120404217E01143F9
:1014B0003BD1002E02D1019F2743F3D0844509D1AF
:1014C0006346002BF0D0604609E0019F27432CD1F2
:1014D000B24524D063460220013B1840013803B0D6
:1014E000F0BCBB46B246A946A046F0BD002CD9D000
:1014F000E4E75446002CEDD08445EBD15645E9DCB9
:10150000DEDB019B8B42E5D8DAD1C845E2D800206A
:10151000C845E4D2D4E70020002CE0D0DAE711433C
:1015200003D18445D6D10020D9E702204042D6E736
:101530008445E6D0CEE7C046FF070000F0B5574629
:101540004E464546DE46E0B50D000F0304008046DA
:10155000E80F390B844683B05800304F400D01919D
:101560001E03690082469146490D360BD80FB942D9
:1015700020D0BA450FD000292BD101990C435146F8
:10158000002937D1324338D0002C44D1002819D15A
:101590000120404216E0164313D1002902D1019FD9
:1015A0002743F3D0844520D063460220013B1840F6
:1015B000013807E0019F274303D18A45F4D1164340
:1015C0001FD0022003B0F0BCBB46B246A946A046DD
:1015D000F0BD5446002CE7D08445E5D15145E3DC0D
:1015E00003DB019BB342DFD80FD06346002BCFD083
:1015F0006046E7E7002CC9D0D4E70020002CE1D0FA
:10160000D2E78445D0D10020DCE7C845CCD8002003
:10161000C845D7D2E9E78445E3D0C5E7FF07000016
:10162000F0B55746DE464E464546E0B51F000B0373
:101630001B0B16009A46CA0F4B000400934687B056
:101640005B0D00D1D5E0BB4A934200D1F8E0514692
:10165000420FC9000A43802109041143C200914688
:10166000B54A8A469D180023984602933C037B00A6
:10167000FA0F3000240B5B0D009200D196E0AD4ACA
:10168000934231D0720FE400224380242404144397
:10169000A94AF000944663445B195A1C01924246E1
:1016A00000260A2A42DC5A4600994A40934642469E
:1016B000022A32DC013A012A00D949E1022E00D186
:1016C000CAE0012E3DD100230024002210005A461A
:1016D0001B052343D2071343190007B0F0BCBB46D8
:1016E000B246A946A046F0BD924B2643EB18002E09
:1016F00000D1BBE00322414611435A468846009977
:101700004A40802109018C462900614401914146EB
:101710000A2900DD33E2934603264246012797401B
:10172000A6213A00C9000A400F4231D0029E022E83
:1017300000D135E2032E00D1D2E154464846012EB5
:10174000C1D0019A7D4B94466344002B00DCC0E07D
:10175000420709D00F220240042A05D0021D82420E
:101760008041404224181000E20106D5744B019AD2
:101770001C4080239446DB006344724A93426BDC36
:101780006207C00864025B050243240B5B0D9DE702
:10179000902189000F4263D188223A4200D1D7E0DC
:1017A000009BA2469B4681460296BFE72300334337
:1017B00000D17FE0002C00D1ADE12000FEF760FEFB
:1017C000020003000B3A1D201900821A300008396C
:1017D000D0408C400443300088405B4AEB1A94466A
:1017E00063445A1C0192424600260A2A00DC5AE74A
:1017F0009CE753460343994654D05346002B00D1EF
:1018000077E15046FEF73CFE0B235B429C4602000C
:10181000844411005046083988401D2380466046A4
:101820001B1A2000D8400300404603439A46230079
:101830008B4099460023444D9846AD1A029315E714
:1018400052460243914626D100221D0002239246B1
:1018500008329046029309E700240022354B35E711
:10186000002380249B462403324B2FE7022241466B
:1018700011438022120194462A0062448846019254
:101880000A2900DD52E75A460020009904004A4028
:10189000934602260BE70C221D0003238146904647
:1018A0000293E3E600239A4604339846033B00255F
:1018B0000293DBE6424601331A432B0090465A1C42
:1018C000019242460024002001260A2A00DCEAE6B2
:1018D0002CE70122D21A382A00DDF4E61F2A00DCA8
:1018E0002AE11F214942CB1A2100D9400B00202AAE
:1018F00005D0164A019D94466544AC402043421EE3
:1019000090411843072319000024014003420CD0E2
:101910000F230340042B00D140E1031D8342A44167
:101920001800644261076402240BC20800230A43C2
:10193000CCE6C046FF07000001FCFFFFFF030000EC
:10194000FFFFFFFEFE0700000DFCFFFF3E0400004E
:1019500049464A460904090C0D00160C020C000405
:10196000000C4543AC4605007543A84615000F0022
:101970007543009202952A00009D6F4365462D0C29
:10198000A94647444F44B84505D915008022520264
:101990009046454402953D0C039565462D043F0451
:1019A0002D0CAC463D0065440495250C2404240C04
:1019B000AC4625007543A84665460F00694341447F
:1019C00089466743390C49446E43884503D98022D0
:1019D0005202904646440D0CA846350045440595F4
:1019E000039D3F04A8463F0C0904C9198844454695
:1019F000039555462E04360C2F0C3500454378438D
:101A000081463800A8462D0CAA46009A50437243DE
:101A10004A445244914503D980256D02A946484461
:101A2000150CA94645462D042D0CA84665467D4358
:101A3000120448449044A9463200654662436E430E
:101A40007C43170C3619BF19BC4203D980246402A9
:101A5000A446E144029C039EA446059D66448E4232
:101A60008941AC4612043C04120CA218624449425B
:101A700054184644A4464645A44182466442A046C2
:101A8000AA4292418C458941E244D04449425242A3
:101A90000A43A045A44182458941644249420C431E
:101AA00041463F0CD2191219CC0D0499700208431B
:101AB000411E884141464A44F60D520230434902D4
:101AC00014430843D20135D5012243080240134391
:101AD000E0071843640834E6009BA2469B46814613
:101AE0008024534624031C4324034A462E4B240BD4
:101AF000ECE5FEF7C5FC15239C46844402006346D2
:101B000020321C2B00DC84E6002399462300083891
:101B100083409A468EE6FEF7B3FC020003001532BE
:101B200020331C2A00DC4EE602003400083A002074
:101B3000944052E6019304E61C4B21009C460300AE
:101B4000019DD3406544A94019430300AB40581E92
:101B5000834119430800D4404B0709D00F230B40A1
:101B6000042B05D00B1D8B428041404224181800E5
:101B7000230200D4D6E6012300240022A6E50F2983
:101B8000AAD1802352461B031A42A9D01C42A7D1D6
:101B90001C43009B02009B46034B97E50024C1E6D3
:101BA0000024014B220091E5FF0700001E04000005
:101BB000F0B54E464546DE465746E0B585B0009046
:101BC00001910C034F00CE0F610A009CB046640FD8
:101BD0000C4300997F0DC80011001A001B039C469E
:101BE0000091019251004B0D9946019B009DD90F28
:101BF00063466A0F5B0A1343EA0094469346C14A60
:101C000003900293914500D1CDE0012569404D46F6
:101C10007D1BAA468E4200D180E0002D00DC35E31A
:101C20004946002900D1DFE0974200D194E15246B5
:101C30000125382A19DC8022029B120413430293E7
:101C400052461F2A00DDE3E1534620226146029DF1
:101C5000D21A9540D9400D43614691400A00511E69
:101C60008A411543029ADA40A41A451BA8428041D2
:101C70004042241A230200D43DE16402640A002C8D
:101C800000D147E12000FEF7FBFB0300083B2021C9
:101C90002800CA1AD0409C4002009D4022439F4227
:101CA00000DD77E1D81B0130091A2C008D40C440BB
:101CB0006B1E9D411300C2408B402543002714003A
:101CC0001D436B0709D00F232B40042B05D02B1D80
:101CD000AB42AD416D4264191D00230200D440E1C6
:101CE000884A0137974200D101E1012643468649DF
:101CF000ED0821404A072A437C054D022D0B640D57
:101D00001E4024052C43F60734431000210005B083
:101D1000F0BCBB46B246A946A046F0BD002D00DC93
:101D2000D0E24946002900D0D4E06146029B194325
:101D300000D12BE1691E012D00D1D9E1954200D1DE
:101D40000AE10125382917DC8A4653461F2B00DD9E
:101D5000E7E12022D21A029B614693401D005346C0
:101D6000D940634693401A000D43511E8A415346A1
:101D70001543029ADA40A4182D188542804140424A
:101D80002418230200D4B6E05E4B01379F4200D1F5
:101D9000ADE001215C4B6A081C4029400A43E5077D
:101DA000154364088DE7594A029B92466246BA443D
:101DB0001A432CD08E422ED05246002A60D0002FDB
:101DC00000D1DBE063460E00029CD80862070243A4
:101DD000E4081300234300D154E280252D0325435A
:101DE0002D03484C2D0B8CE76146029B194300D113
:101DF000CCE029000139012D00D188E1954200D1C4
:101E0000AAE00125382900DD2FE78A4618E70122DC
:101E100051408E42D0D15346002B00D1BEE0002F5E
:101E200000D038E1CA462200024300D1E2E1534625
:101E3000591E012B00D10DE2324A924500D1D2E168
:101E40000127382913DC1F2900DDEEE12022029B47
:101E5000521A250007009A46CC4090409540CF404A
:101E6000A244421E904153462F43074302933D0034
:101E7000654465459241029B52424F46D41880E723
:101E8000234A7D1C154200D0AAE062462500029B31
:101E900005431A43002F00D0F5E0002D00D16BE17F
:101EA000002A00D152E16346C51A029BE21AA842F9
:101EB0009B415B42D31A1A0200D4D5E163461D1A36
:101EC000AC4592410126029B52421C1B8846A41A33
:101ED0000E40F6E697423FD052460125382A00DDF3
:101EE0004AE78022029B1204134302932DE73C0031
:101EF0000025002205E707232B40002B00D0E2E657
:101F00006BE0C046FF070000FFFF7FFF01F8FFFF07
:101F1000FE0700002800FEF7B3FA030018331F2B5A
:101F200000DCB4E62A00083882409F4200DDB9E0B8
:101F3000DB1B581C1F2800DCA0E115001F3BDD4007
:101F4000202805D040231B1A9A40531E9A4115435E
:101F5000072300272B40D0E7C00862070243E408AC
:101F600037E7EA0863071A43D34BE4089F4200D1DE
:101F70002FE72403250B7C05640DC2E6CA46220028
:101F8000024358D163460E00029C0393039B5746BD
:101F9000DA08E7E7C94CFF1A144092E6C84D7A1CEC
:101FA0002A4200D084E022000243002F00D0EFE05C
:101FB000002A00D1E5E0624602990A4300D1C5E05B
:101FC0006346C5188C4685428041644440422418CB
:101FD000230202D5B94B01371C40BA460395D5E719
:101FE0006246851AA842924152429146029BE31AE8
:101FF0001A004B46D21A130091461A026CD44A4674
:102000004C462A4300D03AE600260024002578E614
:10201000029953460D00203AD540202B06D040228D
:10202000D21A0B00934062461A4393465B465A1EEF
:1020300093411D4319E653465A1E012B00D1C6E0B9
:102040009D4EB24500D1BDE688460E000125382AD6
:1020500010DC1F2A7FDC20212500891A0700884018
:102060008D40D740D440411E8841029B3D431B1BFD
:10207000054302936246551BAC459241029B524276
:102080004F469C1AF6E5002D00D0B7E0002A00D19B
:10209000F0E001260E4063460298D90842070A4341
:1020A000C40896E6854CFF1A14406207E40860E70E
:1020B00081498A4200D1C9E06346C118814280410A
:1020C000029B4042E3181B18DD075C080723490800
:1020D0000D4317002B4010E763461D1AAC45924193
:1020E0000126029B52421C1B8846A41A0E40C6E5DC
:1020F0006346C518029B854280419C464042644429
:1021000024180127230200D4F5E6022741E663469E
:10211000C51AA8428041029B4042E41A0127241AB2
:10212000A8E5029D52462B00203AD34019005346A1
:10213000202B06D04022D21A2B00934062461A432D
:1021400093465D466B1E9D410D4315E66207C00830
:102150000243E4080DE7110027002039CF40202A70
:1021600005D040218A1A9440250005430395039D1C
:102170006A1E95413D437DE7002A00D144E70126D0
:102180000E406346D908029B5A070A43DC08F0E672
:10219000002A28D06246029FC0083A4300D1DCE6FC
:1021A000620710438022E4081203144209D0FD089C
:1021B000154206D1634601262C00D8087B07184338
:1021C0000E40420FC000C0085207024301E66346BA
:1021D0001D1AAC459241029B52421C1B0E008846C0
:1021E0000127A41A46E56346D908029B5A070A4309
:1021F000DC08EEE56346029C0393C7E6C008002AAC
:1022000000D1AAE6620710438022E40812031442B8
:10221000D7D0029FFD081542D3D163460126D808C6
:102220007B072C0018430E40CBE70A002700203A1A
:10223000D740202905D04022521A9440250005435A
:102240000395039D6A1E95412F4310E61400002557
:10225000002256E5029B60449946604592414C44F9
:1022600052420500A4184CE71A001C002A4300D073
:10227000B3E6C9E6802400262403AEE5202100252C
:10228000091A17E5002200250B4C3AE5002D00D174
:10229000F6E54B46DA1B9246002F00D16FE6382A4E
:1022A00005DC80263604344388460E00D1E6884695
:1022B0000E000125DEE6C046FF070000FFFF7FFF9E
:1022C000FE070000002D00D168E64B46D91B002F09
:1022D00001D18A46A7E50127382900DDC7E580221C
:1022E00012041443AFE5C046F0B5C6461E03360BD4
:1022F000B0460D4E0C034D005F0000B5240B6D0D74
:102300007F0DB5420BD0084900208F4204D14646CC
:1023100016433000431E984180BCB846F0BD0443CC
:102320000120002CF8D1EEE7FF0700000B000200AF
:1023300070B5164D0C0382B0490000200092019345
:10234000240B490DDE0FA94204DD1148814203DD53
:10235000104BF01802B070BD8020400320430E4C9B
:10236000641A1F2C08DD0D4B5B1AD840030058423D
:10237000002EEFD11800EDE7094B009A9C460300B0
:1023800061448B40E2401343F1E7C046FE03000086
:102390001D040000FFFFFF7F330400001304000052
:1023A000EDFBFFFF10B5041E10D0FEF769F80E4BD1
:1023B0001B1A5B055B0D0A280FDC0B222100121A89
:1023C000D14015300A038440120B01E000230022A3
:1023D0001B0513432000190010BD22000B3882405A
:1023E00012030024120BF3E71E04000010B50029AD
:1023F00003D1FEF745F8203002E00800FEF740F870
:1024000010BDC046B0B582B000AF786079680A00F0
:1024100000210B00D10ACC0200210B401D0022003C
:102420002B0010001900BD4602B0B0BD90B589B0B8
:1024300000AF7860C04610F0E3FE031EFBD110240D
:102440003B19180010231A00002118F05BFE210030
:102450007B180122DA607B187A689A607B18022266
:102460001A600023FB600C23FA187B181100180077
:1024700010F074FFC04610F0E7FE031EFBD1C0460B
:10248000C046BD4609B090BD90B587B000AFF860BA
:10249000B960FB1D1A70C04610F0B2FE031EFBD1DE
:1024A0001723FB1800221A7013E0F96817243B1950
:1024B0001B78DB00BA68D3181A685B68012010F03B
:1024C00051FEFB680833FB603B191A783B19013257
:1024D0001A701723FA18FB1D12781B789A42E4D35E
:1024E000C04610F0B1FE031EFBD1C046C046BD463B
:1024F00007B090BDF0B5C64600B5EA4CA54400AFA4
:10250000E94BEA4A3024121908218C46BC44624443
:102510001360E74B1B190822BA189A18802313700E
:10252000E4490B190822BA189A1801231370E24BD8
:102530001B190822BA189A187E231370DF4BE04A41
:1025400010190825AC46BC446044036013190822E6
:102550009446BC4463441B681A68D34B9A4225D006
:102560000B190822BA189A1800231370D54B95221C
:10257000D2009B183022944608229046B844C444A6
:10258000634418008023DB001A00002118F0BAFD14
:1025900090231B1908229446BC446344CA4A12196A
:1025A00008218C46BC446244136045E0C046C74BDA
:1025B000C34A3024111908208446BC4461440B608E
:1025C000131908229446BC4463441B681A68C04B24
:1025D0009A4200D15DE1BE4BB44A121908218C46E3
:1025E000BC4462441360BB4B9522D2009B1830223E
:1025F000944608229046B844C4446344180090238B
:102600001A00002118F07EFDA94B1B190822BA18E8
:102610009A18122313700823E318DB19AA4A121917
:1026200008218C46BC4462441360A34B1B1908224A
:10263000BA189A187F231370A74B30229B180822D0
:10264000BA189A1800231370D9E0984E3022B318A4
:1026500008218C46BC4463441B6819789E481400CA
:10266000831808229446BC4463441B78DA00964BD6
:102670001B190825AC46BC4463441B689B1839628F
:1026800000227A62396A7A6A19605A60031908224C
:102690009446BC4463441B78DA008B490B1908212B
:1026A000791859180B689B1818685968331908224B
:1026B000BA189A181368BB61DB17FB61BA6912007C
:1026C000FA620023BB62844B1B1908229446BC4467
:1026D00063441B78DA007C4B1B190825AC46BC44CC
:1026E00063441B689B18BA6A02433A61FA6A0A4358
:1026F0007A6139697A6919605A6021007318082271
:10270000BA189A181268754B9A425BD3694A5318E3
:1027100008229446BC4463441B78002B52D07318A3
:102720000822BA189A1813680133721808208446D0
:10273000BC4462441360684B08005B18082294464E
:10274000BC4463441B78DA005F490400091808237D
:10275000FB18C81803689B181868596823001C00E8
:10276000F21808239C46BC44624413681B783B6300
:1027700000237B633A6B130E7A6B12027A607A68DD
:102780001A437A603A6B13023B60534B26009B1945
:1027900008229446BC4463441B78DA004A4B9B19D8
:1027A0000824A446BC4463441B689B1802003C6890
:1027B0002243BA600A0079680A43FA60B968FA6885
:1027C00019605A60394A3021531808208446BC44A5
:1027D00063441B680133521808208446BC44624499
:1027E00013603D4A531808208446BC4463441B7858
:1027F000521808218C46BC44624401331370364B96
:1028000030215B180822BA189A18294E731808202C
:102810008446BC44634412781B789A4200D214E781
:10282000254B0C005B1808229446BC4463441B787B
:102830001800FFF7FBFD224B22009B1808218C4655
:10284000BC4463441B68181F1400331908229446C3
:10285000BC4463441A781C4B1B1908218C46BC44A9
:1028600063441B681900FFF70FFE124920000B1884
:1028700008229446BC4463441A7801235340DBB2D7
:10288000002B07D00B180822BA189A1801231370CE
:102890008DE6C046BD469C23DB009D4480BCB84607
:1028A000F0BDC04620FBFFFF00F00308A4040000B9
:1028B000A30400009B0400009A04000004F0030835
:1028C00094040000E8FBFFFF9C04000004F80308E8
:1028D00000F8030858FBFFFF9304000010F80308FA
:1028E000F0B5C24CA54400AFC14B9326F6009B192E
:1028F00058229446BC44634418008023DB001A002D
:10290000002118F0FFFBBB4B9B1958229446BC4496
:102910006344180090231A00002118F0F3FBB64B13
:10292000B64A58215218D2191360B54B58229B1839
:10293000DA190023137030E0B0485823C318DB19AC
:102940001B683B65DB177B65AD4E5823F318DB191D
:1029500019783B6D1B00FB640023BB64A44B9322DE
:10296000D2009B185822BA189A18CB00D318B96C09
:10297000FA6C19605A605823C318DB191B680133BD
:1029800058228218D21913605823F318DB191B78C8
:102990005822B218D21901331370994B58229B1840
:1029A000DB191B785BB2002BC6DA914B9320C00079
:1029B0001B1858229446BC4463441A685B68AA21D9
:1029C00011430C00002119430D00894B1B1858229C
:1029D0009446BC4463441C605D60854B05001B1835
:1029E0005822BA189A1882239B00D3181A685B6879
:1029F0006621114339640021194379647C4B5B19CA
:102A00005822BA189A1882239B00D318396C7A6C12
:102A100019605A60764B5B195822BA189A18FE232F
:102A20009B00D3181A685B68CC211143B96300215D
:102A30001943F9636E4B5B195822BA189A18FE2392
:102A40009B00D318B96BFA6B19605A60684B5B191D
:102A50005822BA189A18F6239B00D3181868596898
:102A6000684B1B783B6300237B633B6B7C6B1A00DA
:102A70000243BA6223000B43FB625D4B2C001B191F
:102A80005822BA189A18F6239B00D318B96AFA6A22
:102A900019605A60564B1B195822BA189A18F82315
:102AA0009B00D3181A685B6857490978396200217E
:102AB0007962386A796A05001543BD611943F96185
:102AC0004B4B1B195822BA189A18F8239B00D3189D
:102AD000B969FA6919605A604C4B484A5821521832
:102AE000D21913604A4B58229B18DB1900221A7026
:102AF0005AE0474C5823E318DB191B783D4A9326CC
:102B0000F600921958218C46BC446244DB00D3186D
:102B10001A685B68394858214118C9190968396130
:102B2000C917796139690900F9600021B960582134
:102B30006118C91909788C46BC68FD6821001143E9
:102B400039602900194379602A4B9B195822BA1819
:102B50009A186346DB00D31839687A6819605A609E
:102B60005823C318DB191A682A4B9A4208D35823F2
:102B7000C318DB191B68013358228218D21913605D
:102B80001E4A5823D318DB191B68013358215218E9
:102B9000D21913601E495823CB18DB191A78582311
:102BA000CB18DB1901321A70194B58229B18DB190C
:102BB0001B78112B9DD97E20FFF738FC7F20FFF773
:102BC00035FC902358229B18DB190B4880221900F2
:102BD000FFF75AFC5823FB180C4812221900FFF784
:102BE00053FCC046BD460C4B9D44F0BD0CFBFFFFA3
:102BF000F8FBFFFF68FBFFFF00F0030894040000F0
:102C000093040000F0E70108F1E7010800F8030869
:102C10009204000010F80308F404000080B584B0AA
:102C200000AF78607B681800FFF7ECFB02000B0038
:102C30001300BB60BB68134A94466344FB60BB68E7
:102C4000114A934203D9BB68104A93420ED901231B
:102C50005B4213E0FB68083BFB60FA68BB689A4282
:102C600004D2FFF73DFE01235B4207E0FB681B68CF
:102C70007A689A42EED1FB68043B1B681800BD4697
:102C800004B080BDFC070000FFEF0308FFFF03084E
:102C9000F0B58DB000AF78623962FA61002200238E
:102CA000BA62FB623B6A3B6100237B613B691B00AC
:102CB000FB600023BB60BA68FB68BA62FB62FB6919
:102CC0003B6000237B60BA6AFB6A3868796806005B
:102CD0001643340019430D00BC62FD621023182214
:102CE0009B18D9197B6A01221800FFF7CDFBC0465B
:102CF000BD460DB0F0BDB0B584B000AF78607B6864
:102D0000FF22D20094466344FB6002E0FB68083B6C
:102D1000FB60FB681A685B68511C01D10133F5D078
:102D2000FB680833FB60FB681C00DB171D002200FA
:102D30002B0010001900BD4604B0B0BDB0B58CB07A
:102D400000AF786039602F243B1901221A702E25BC
:102D50007B1912221A707B681800FFF753FB0200E0
:102D60000B001300FB61FB69554A934205D13B19E7
:102D700000221A707B1980221A70FB69BB61FB6903
:102D80001800FFF7B8FF02000B001300BB62BB691D
:102D9000FF22D200944663447B61BB6A083B7A6998
:102DA0009A4200D082E02E23FB181B78180018F0FE
:102DB000D5F803003B61FB697B622323FB180022EB
:102DC0001A7023E0796A2323FB181B789B003A6969
:102DD000D4180800FFF722FF030023607B6A013349
:102DE0007B627B6A374A9A429B415B42DBB21A00A4
:102DF0002F23FB181B78134002D07B6A01337B62C0
:102E000023217B181A787B1801321A702323FA18B1
:102E10002E23FB1812781B789A42D3D3FB69F82231
:102E2000120694466344FB60FB68DB0ABB60BB6828
:102E30001800FFF7FBFAFB69BB62FB697B62222388
:102E4000FB1800221A701EE0796A2223FB181B78F7
:102E50009B003A69D3181A68BB6A1800FFF718FF7D
:102E60007B6A01337B627A6A164B9A4202D97B6A8B
:102E700001337B62BB6A0833BB6222217B181A785C
:102E80007B1801321A702223FA182E23FB181278AD
:102E90001B789A42D8D33A687968BB6A1800FFF762
:102EA000F7FE3B69180018F063F805E03A687968A6
:102EB000BB6A1800FFF7ECFEC046BD460CB0B0BDC3
:102EC00000F0030810F8030880B582B000AFFB1CC7
:102ED00000221A70BB1C00221A703B0000221A80CC
:102EE00000237B60D8E07B680233704AD35C302BD0
:102EF00002D1FB1C00221A707B6802336B4AD35C40
:102F0000312B02D1FB1C01221A707B680233674A05
:102F1000D35C322B02D1FB1C02221A707B68023375
:102F2000624AD35C332B02D1FB1C03221A707B68EC
:102F300002335E4AD35C342B02D1FB1C04221A708C
:102F40007B680233594AD35C352B02D1FB1C052226
:102F50001A707B680233554AD35C362B02D1FB1CB6
:102F600006221A707B680233504AD35C372B02D199
:102F7000FB1C07221A707B6802334C4AD35C382B47
:102F800002D1FB1C08221A707B680233474AD35CCB
:102F9000392B02D1FB1C09221A707B680233434A89
:102FA000D35C412B02D1FB1C0A221A707B680233CE
:102FB0003E4AD35C422B02D1FB1C0B221A707B6869
:102FC00002333A4AD35C432B02D1FB1C0C221A7009
:102FD0007B680233354AD35C442B02D1FB1C0D22A3
:102FE0001A707B680233314AD35C452B02D1FB1C3B
:102FF0000E221A707B6802332C4AD35C462B02D116
:10300000FB1C0F221A707B680122134005D1BB1CE8
:10301000FA1C127812011A703BE0BB1CB91CFA1C96
:10302000097812780A431A707B68012B05D07B68F7
:10303000052B02D07B68092B05D1BB1C1B789AB2EB
:103040003B0012021A807B68032B05D07B68072B9C
:1030500002D07B680B2B07D1BB1C1B7899B23B00BD
:103060003A0012880A431A807B68032B03D1104B65
:103070003A0012881A807B68072B03D10C4B3A0068
:1030800012885A807B680B2B03D1094B3A001288B7
:103090009A807B6801337B607B680B2B00DC22E726
:1030A000C046C046BD4602B080BDC046E00D00200F
:1030B0008800002090B585B000AF3A60BB1D021CAF
:1030C0001A803B1D0A1C1A800D217B1800221A70E1
:1030D0000F203B1800221A702C4B1B88BA1D128837
:1030E0009A424BD8294B1B883A1D12889A4245D3E5
:1030F0003B1801221A703B1D1B88DAB2234B1B8838
:10310000DBB2D31ADAB27B1801321A707B181B7843
:103110009AB21F4B1B889A422DD30E217B18002296
:103120001A707B1800221A7017E00E243B191878C9
:10313000164B1B881A00BB1D1B88D21A3B191B7823
:10314000D3185B003A68D3181B88190001F078F88F
:103150003B191A783B1901321A700E23FB181B78A1
:103160009AB20B4B1B889A42DFD30A4B1B7818008C
:1031700001F084F802E0032001F0A8F90F23FB1806
:103180001B781800BD4605B090BDC0466603002000
:1031900068030020B403002090B583B000AFFB1D8E
:1031A00000221A70784BDA78784B5B781343DAB2E6
:1031B000764B9B781343DBB201225340DBB2002BEA
:1031C00003D0734B00221A8016E0704B5B78002B03
:1031D00003D06F4B01221A800EE06C4B5B78002B02
:1031E00003D06B4B02221A8006E0674BDB78002B82
:1031F00002D0674B06221A80664B5B781A00644B3C
:103200005A80654B1B781A00614B9A80614B9B7802
:103210001A005F4BDA805F4B1B781A005C4B1A81F7
:103220005A4B5B781A005A4B5A81594B00229A81AB
:10323000574B1B88002B03D1554B0122DA8102E04A
:10324000534B0022DA81514B5B781A00504B1A82A3
:103250004E4B9B781A004E4B5A824D4B00229A825D
:103260004B4B0022DA82484BDB781A00484B1A831A
:10327000474B00225A83494B1B781B029BB2484A9A
:1032800012789B189AB2474B1A80474B1B781B0247
:103290009BB2464A12789B189AB2424B5A80444BD2
:1032A0001B781A1C9200D318DB189AB23D4B9A80F7
:1032B0003C4BDC22DA803F4BDB791A003E4B1A8014
:1032C0003C4B9B791A003C4B5A803A4B1B791A00B5
:1032D000394B9A80374B9A78364BDB781343DBB205
:1032E0001A00354BDA80344B00221A81314B1A78A0
:1032F000304B5B781343DBB21A002F4B5A812F4BB4
:103300005B781A002C4B9A812C4B9B791A002A4B24
:10331000DA81284B1A78274B5B781343DBB21A000B
:10332000254B1A82264B274A1A80254B264A5A805B
:10333000234BFF229A80FFF7C7FD244B1800FFF7AD
:103340006DFC03009BB21B029CB2214B1800FFF7DF
:1033500065FC03009BB2E3189AB21E4B1A8001F081
:1033600069F90200FB1D1A70FB1D1B78002B01D0B0
:1033700000F075FEC046184B1B78032B2ED0062B91
:1033800000D195E100F02EFE780B00203C0C0020CF
:1033900050000020A40B0020E00B0020B00B002008
:1033A000B10B00206C000020B20B0020B30B0020FA
:1033B000CE0B0020880B002074000020800B002022
:1033C00088000020A2B4FFFF4FEBFFFF7BF0030853
:1033D0007CF0030890000020B4030020C046D64BC8
:1033E00000221A80D54B1800FFF718FC0300202B91
:1033F00002D1D14B01221A80D14B1800FFF70EFCED
:1034000003009BB21B029CB2CE4B1800FFF706FCD8
:1034100003009BB2E3189AB2CB4B1A80CB4B180037
:10342000FFF7FCFB03009BB21B029CB2C84B1800C9
:10343000FFF7F4FB03009BB2E3189AB2C54B1A8066
:10344000C54B1800FFF7EAFB03009AB2C34B1A8082
:10345000C34B1800FFF7E2FB03009AB2C14B1A807E
:10346000C14A0E23FF33190080235B001800FFF7C9
:1034700021FE031E01D000F0B9FDBC4ABC498023E7
:103480009B011800FFF716FE031E01D000F0B0FDEF
:10349000B84A8223990080239B001800FFF70AFE98
:1034A000031E01D000F0A6FDB34AB449C0239B001F
:1034B0001800FFF7FFFD031E01D000F09DFDB04A8C
:1034C000C4239900C4239B001800FFF7F3FD031EDB
:1034D00001D000F093FDAB4B1A0010211020FFF734
:1034E000E9FD031E01D000F08BFDA74AC02399011E
:1034F000C0239B011800FFF7DDFD031E01D000F083
:1035000081FD8D4BA149A1481A00FFF7D3FD031E91
:1035100001D000F079FD8C4B9D499D481A00FFF7C2
:10352000C9FD031E01D000F071FD8A4B99499948ED
:103530001A00FFF7BFFD031E01D000F069FD964B96
:10354000964996481A00FFF7B5FD031E01D000F01A
:1035500061FD934B934993481A00FFF7ABFD031E9F
:1035600001D000F059FD904B904990481A00FFF7A8
:10357000A1FD031E01D000F051FD8D4B8D498D48FA
:103580001A00FFF797FD031E01D000F049FD8A4B9A
:103590008A498A481A00FFF78DFD031E01D000F00A
:1035A00041FD874B874987481A00FFF783FD031EBB
:1035B00001D000F039FD844B844984481A00FFF79C
:1035C00079FD031E01D000F031FD814B8149814816
:1035D0001A00FFF76FFD031E01D000F029FD7E4B9E
:1035E0007E497E481A00FFF765FD031E01D000F0FA
:1035F00021FD7B4B7B497B481A00FFF75BFD031ED7
:1036000001D000F019FD784B784978481A00FFF78F
:1036100051FD031E01D000F011FD504B7449744858
:103620001A00FFF747FD031E01D000F009FD4D4BC6
:10363000704970481A00FFF73DFD031E01D000F0ED
:1036400001FD6D4B6D496D481A00FFF733FD031EF8
:1036500001D000F0F9FC6A4B6A496A481A00FFF78A
:1036600029FD031E01D000F0F1FC674B6749674854
:103670001A00FFF71FFD031E01D000F0E9FC644BA8
:10368000644964481A00FFF715FD031E01D000F0DD
:10369000E1FC614B614961481A00FFF70BFD031E15
:1036A00001D000F0D9FC022000F010FF00F0D7FCA0
:1036B0005B4B1A88C0239B019A4210D3584B1A883F
:1036C000C0239B019A420AD8564B1B88DBB21A00D2
:1036D0002D4B1A80544B1B78180000F0CFFD504B37
:1036E0001B88524A934200D8C8E04D4B1B88274A9A
:1036F000934200D9C2E04B4B1B88DBB21A000E4B41
:103700001A800D4B1B88012B00D093E00B4B180047
:10371000FFF784FA0300202B01D1C0468AE0444B16
:1037200020221A70424B1B781A00044B190010001B
:1037300003F020FDC046FDE7040B002052F0030813
:1037400001F0030802F003089400002003F00308CE
:1037500004F003089600002072F00308AA0000207D
:1037600049F00308AC000020500000206C0000204D
:1037700003200000740000208800002002030000E5
:1037800090000020020B0020920000200230000078
:1037900004300000063000009800002008300000CF
:1037A000060B00200A3000009A0000200C300000B8
:1037B000080B00200E3000009C000020103000009C
:1037C0009E00002012300000A000002014300000F5
:1037D000A200002016300000A400002018300000D5
:1037E000A60000201A300000A80000201C300000B5
:1037F0001E30000004310000AE0000200631000041
:10380000B000002008310000B20000200A310000A2
:10381000B40000200C310000B60000200E31000082
:103820006A0300206C030020B40300200130000074
:10383000540B0020C14B1B88002B1AD101231A1CEA
:10384000BF4B202B01D000231A1CD3B21800FFF766
:10385000E5F9031E0CD0BB4B00221A70B94B1B7844
:103860001A00B74B1900100003F084FCC046FDE7B6
:10387000C046B54B1B78180000F000FDB34B1B8809
:10388000B34A934226D9B14B1B88B24A934221D8FE
:10389000B14B1A88B14B1A80B04B1B881B0A9BB2E4
:1038A000DAB2A84B1A70AD4B1B88DAB2AC4B1A7067
:1038B000A44B1B781A00AB4B1900100003F05AFC04
:1038C000A74B1B781A00A84B1900100003F052FCFC
:1038D000C046FDE79D4B1B88A44A934226D99B4BCB
:1038E0001B88A34A934221D89B4B1A88A14B1A806C
:1038F000A04B1B881B0A9BB2DAB2924B1A709D4BED
:103900001B88DAB2964B1A708E4B1B781A009A4BB2
:103910001900100003F02EFC914B1B781A00974BF6
:103920001900100003F026FCC046FDE7874B1B88FA
:10393000934A93420FD9854B1B88924A93420AD8E7
:10394000854B1B88DBB21A008F4B1A807E4B1B788D
:10395000180000F093FC7D4B1B888C4A93420FD9D2
:103960007A4B1B888A4A93420AD87B4B1B88DBB26E
:103970001A00884B1A80744B1B78180000F07EFCEC
:10398000724B1B88844A93420FD9704B1B88834A21
:1039900093420AD8704B1B88DBB21A00804B1A8006
:1039A000694B1B78180000F069FC684B1B887D4A46
:1039B00093420FD9654B1B887B4A93420AD8664BCA
:1039C0001B88DBB21A00794B1A805F4B1B781800FA
:1039D00000F054FC5D4B1B88754A93420FD95B4B3A
:1039E0001B88744A93420AD85B4B1B88DBB21A00CF
:1039F000714B1A80544B1B78180000F03FFC534B5E
:103A00001B886E4A93420FD9504B1B886C4A9342D5
:103A10000AD8514B1B88DBB21A006A4B1A804A4BFA
:103A20001B78180000F02AFC484B1B88664A93421A
:103A30000FD9464B1B88654A93420AD8464B1B88D0
:103A4000DBB21A00624B1A803F4B1B78180000F063
:103A500015FC3E4B1B885F4A93420FD93B4B1B889A
:103A60005D4A93420AD83C4B1B88DBB21A005B4B81
:103A70001A80354B1B78180000F000FC334B1B8874
:103A8000574A93420FD9314B1B88564A93420AD862
:103A9000314B1B88DBB21A00534B1A802A4B1B7820
:103AA000180000F0EBFB294B1B88504A93420FD9BA
:103AB000264B1B884E4A93420AD8274B1B88DBB201
:103AC0001A004C4B1A80204B1B78180000F0D6FBD4
:103AD0001E4B1B88484A93420FD91C4B1B88474AF0
:103AE00093420AD81C4B1B88DBB21A00444B1A8045
:103AF000154B1B78180000F0C1FB144B1B88414A82
:103B0000934200D886E0114B1B883F4A934200D96C
:103B100080E0114B1B88DBB21A003C4B1A803B4BF8
:103B20001B88DAB2074B1A70064B1B781A00384B09
:103B30001900100003F01EFBC046FDE7040B002037
:103B400052F00308540B0020B40300206A03002045
:103B500003300000043000006C03002094000020BB
:103B6000550B002001F0030802F0030805300000A7
:103B7000063000009600002003F0030804F003085C
:103B800007300000083000009800002009300000D5
:103B90000A300000060B00200B3000000C30000043
:103BA0009A0000200D3000000E300000080B0020AD
:103BB0000F300000103000009C0000201130000089
:103BC000123000009E00002013300000143000006E
:103BD000A00000201530000016300000A2000020D8
:103BE0001730000018300000A40000201930000039
:103BF0001A300000A60000201B3000001C3000001E
:103C0000A80000201D3000001E300000AA00002087
:103C100072F00308A74B1B88A74A934219D9A54BFA
:103C20001B88A64A934214D8A54B1B88DBB21A0006
:103C3000A44B1A80A34B1B88DAB2A34B1A70A24B79
:103C40001B781A00A14B1900100003F093FAC0462C
:103C5000FDE7984B1B889E4A93420FD9954B1B88D2
:103C60009C4A93420AD8964B1B88DBB21A009A4BA7
:103C70001A809A4B1B78180000F000FB8D4B1B88B4
:103C8000974A93420FD98B4B1B88964A93420AD886
:103C90008B4B1B88DBB21A00934B1A808F4B1B781F
:103CA000180000F0EBFA834B1B88904A93420FD91F
:103CB000804B1B888E4A93420AD8814B1B88DBB20B
:103CC0001A008C4B1A80854B1B78180000F0D6FA2E
:103CD000784B1B88884A93420FD9764B1B88874ABA
:103CE00093420AD8764B1B88DBB21A00844B1A80A9
:103CF0007A4B1B78180000F0C1FA6E4B1B88814A82
:103D000093420FD96B4B1B887F4A93420AD86C4B66
:103D10001B88DBB21A007D4B1A80704B1B78180091
:103D200000F0ACFA634B1A88C8239B019A4210D367
:103D3000604B1A88C8239B019A420AD8604B1B88A3
:103D4000DBB21A00724B1A80644B1B78180000F02B
:103D500095FA584B1B886F4A93420FD9554B1B88D5
:103D60006D4A93420AD8564B1B88DBB21A006B4B44
:103D70001A805A4B1B78180000F080FA4D4B1B88B4
:103D8000674A93420FD94B4B1B88664A93420AD825
:103D90004B4B1B88DBB21A00634B1A804F4B1B78CE
:103DA000180000F06BFA434B1B88604A93420FD90E
:103DB000404B1B885E4A93420AD8414B1B88DBB2BA
:103DC0001A005C4B1A80454B1B78180000F056FA1D
:103DD000384B1B88584A93420FD9364B1B88574A99
:103DE00093420AD8364B1B88DBB21A00544B1A8018
:103DF0003A4B1B78180000F041FA2E4B1B88514AB1
:103E000093420FD92B4B1B884F4A93420AD82C4B15
:103E10001B88DBB21A004D4B1A80304B1B78180000
:103E200000F02CFA234B1B88494A93420FD9214BAF
:103E30001B88484A93420AD8214B1B88DBB21A00E0
:103E4000454B1A80254B1B78180000F017FA194BC8
:103E50001B882F2B1AD9174B1B88302B16D8184BC1
:103E60001B88012B04D13D4BDB78002B00D0C046D2
:103E7000134B1B88002B04D1384BDB78002B00D16F
:103E8000C046164B1B78180000F0F8F9094B1B8848
:103E9000302B00D87BE0074B1B88312B00D976E014
:103EA000074B1B88012B64D12D4B5B78002B59D01D
:103EB000C0465EE06A0300200331000004310000C8
:103EC0006C030020AC000020540B002049F00308D4
:103ED0000531000006310000AE000020B4030020D0
:103EE0000731000008310000B00000200931000057
:103EF0000A310000B20000200B3100000C3100003C
:103F0000B40000200D3100000E310000B60000208A
:103F10000A0B002001320000023200000C0B0020CE
:103F200003320000043200000E0B002005320000B6
:103F300006320000100B002007320000083200009B
:103F4000120B0020093200000A320000140B00207E
:103F50000B3200000C320000160B0020780B002002
:103F6000A40B0020404B1B7801221343DAB23E4BD6
:103F70001A703E4B1B88002B04D13D4B5B78002B05
:103F800000D1C0463B4B1B78180000F077F93A4B44
:103F90001B88312B00D861E0374B1B88322B00D9AE
:103FA0005CE0324B1B88012B08D1314B9B78002BF6
:103FB00001D0C04602E0314B01221A702B4B1B8806
:103FC000002B09D12A4B9B78002B04D0C0462B4BE9
:103FD00000221A7000E0C046264B1B78180000F043
:103FE0004DF93BE0012000F071FA38E0C04636E0C0
:103FF000C04634E0C04632E0C04630E0C0462EE065
:10400000C0462CE0C0462AE0C04628E0C04626E074
:10401000C04624E0C04622E0C04620E0C0461EE084
:10402000C0461CE0C0461AE0C04618E0C04616E094
:10403000C04614E0C04612E0C04610E0C0460EE0A4
:10404000C0460CE0C0460AE0C04608E0C04606E0B4
:10405000C04604E0C04602E0C04600E0C046C0469C
:10406000BD4603B090BDC046500C00206C0300203C
:10407000A40B0020B40300206A030020E80B0020FA
:1040800080B582B000AFFB1D00221A703B1D1E22BE
:104090001A803B1D1A882949294B180015F00EFB80
:1040A000284B1B685A68BB1C1A80BA1C3B1D12881F
:1040B0001B889A423CD2244BDB691022134037D034
:1040C000C0461F4B180015F065FB1F4BDB69102223
:1040D000134003D01A4B1B6810221A62BB1D00222A
:1040E0001A700CE0BB1D1A78BB1D1B781349895C44
:1040F000164AD154BB1D1A78BB1D01321A70BB1D64
:104100001A78BB1C1B881E21CB1A9A42EAD3BB1D0E
:104110001B780E4A0021D1543B1D1B88D9B2BB1C11
:104120001B88DAB2FB1D8A1A1A70094B01221A7019
:10413000FB1D1B781800BD4602B080BDC40A0020DC
:10414000BC06002010080020004C0040E40A0020BB
:104150006403002080B582B000AF78600A00FB1CC9
:104160001A70C046FB1C1A787968084B180017F0C3
:1041700033F8FB1C1B789AB20449054B180015F064
:104180000BFAC046BD4602B080BDC046A40A00205E
:10419000BC06002080B584B000AF0200BB1D1A80B1
:1041A0007B1D0A1C1A707B1D1B7899B2BB1DBA1DA2
:1041B00012884A401A800023FB6015E0BB1D1B8853
:1041C0000122134008D0BB1D1B885B089AB2BB1D9F
:1041D0000A494A401A8004E0BB1DBA1D12885208E1
:1041E0001A80FB680133FB60FB68072BE6DDBB1D13
:1041F0001B881800BD4604B080BDC04601A0FFFF6B
:1042000080B500AFC046BD4680BD000080B582B01D
:1042100000AF0200FB1D1A70064BFA1D12781A70CF
:10422000054B00221A70054B00221A80C046BD467D
:1042300002B080BD65030020B0030020B20300205F
:1042400080B582B000AF0200FB1D1A703B1D0A1C36
:104250001A80FB1D1B781F2B08D8FB1D1A78064BF4
:104260005200391D0988D152002300E002231800B2
:10427000BD4602B080BDC04670030020F0B5C5B099
:1042800000AF0200884B88256D005B19DB191A709E
:104290001024FF343B1900221A70844B01220421A0
:1042A00018000FF066FB20003B181B783A18591CC9
:1042B00011701A007E4B19787E4B5B19DB199954EB
:1042C0003B181B783A18591C11701A007A4B197850
:1042D000784B5B19DB199954734B5B19DB191B780D
:1042E000042B02DC032B03DA77E0062B4FD074E0BB
:1042F000724B1B8859001022FF32BB181B78BA186A
:10430000581C10701A00C9B26A4B882040001B1854
:10431000DB19995487235B00FB1800221A702CE0EC
:10432000872464003B191A78654B5200D35A1B0A44
:1043300099B21025FF357B191B787A19581C10701B
:104340001A00C9B25B4B882676009B19DB19995479
:104350003B191A785A4B5200D15A7B191B787A199B
:10436000581C10701A00C9B2524B9B19DB19995492
:104370003B191A783B1901321A70504B1B88DBB27B
:1043800087225200BA1812789A42C9D325E08723AF
:104390005B00FB1802221A7018E0872464003B19A6
:1043A0001A781021FF317B181B787918581C087077
:1043B0001900444B9A5C3F4B882040001B18DB19C6
:1043C0005A543B191A783B1901321A7087235B0043
:1043D000FB181B78052BE0D9C04686235B00FB1831
:1043E000012252421A8087235B00FB1800221A70B8
:1043F00019E087256D007B191B782E4A882149001A
:104400005218D219D25C86235B00FC18FB181B885B
:1044100011001800FFF7BEFE030023807B191A78F5
:104420007B1901321A7087235B00FA181020FF30C5
:104430003B1812781B789A42DBD33B181B783A184A
:10444000591C11701A00862464003B191B88D9B2CC
:10445000184B88256D005B19DB1999543B191B8893
:104460001B0A99B23B181B7804003A18581C1070AC
:104470001A00C9B20F4B5B19DB1999543B191B7811
:104480000C4A5219D2190021D1543B191A780C2325
:10449000FB1811001800FFF75DFE0B4B46221A8037
:1044A000C046BD4645B0F0BDF7FEFFFF0008005016
:1044B00065030020FCFEFFFFB4030020680300201A
:1044C00070030020E40A0020B2100020B0B5C4B090
:1044D00000AF0200514B88256D005B19DB191A7083
:1044E0000C24FF343B1900221A70C0464C4B142296
:1044F0001A804C4B0122042118000FF03AFA3B19A4
:104500001B783A19591C11701A00474B1978474B00
:104510005B19DB199954464B1A783B191B783919EA
:10452000581C0870190080235B421343DAB23F4BDA
:104530005B19DB195A543B191B783A19591C117035
:1045400019003A4B5B19DB19344A5219D219127807
:104550005A5486235B00FB18012252421A80102312
:10456000FF33FB1800221A7019E01025FF357B1964
:104570001B782E4A882149005218D219D25C862312
:104580005B00FC18FB181B8811001800FFF702FEE7
:10459000030023807B191A787B1901321A701023CB
:1045A000FF33FA180C20FF303B1812781B789A4220
:1045B000DBD33B181B783A18591C11701A0086245B
:1045C00064003B191B88D9B2184B88256D005B1914
:1045D000DB1999543B191B881B0A99B23B181B78AD
:1045E00004003A18581C10701A00C9B20F4B5B191E
:1045F000DB1999543B191B780C4A5219D219002126
:10460000D1543B191A780823FB1811001800FFF742
:10461000A1FDC046BD4644B0B0BDC046F7FEFFFF99
:10462000B41000200008005065030020F8FEFFFFD2
:10463000B4030020B0B5C2B000AFFB1CFF330022B2
:104640001A703B1DFF33FF221A70FC1CFF34FFF76A
:1046500017FD03002370C046C0465A4B1B78002B41
:1046600000D1A8E0574B00221A703B1DFF330022F7
:104670001A70554B1A78554B1B789A4200D091E02E
:10468000514B5A78524B1A704F4B5B781A007F236C
:1046900013404F4A1278934203D03B1DFF33E1226F
:1046A0001A707B1DFF33012252421A800823FF3308
:1046B000FB1800221A7015E00825FF357B191B78BE
:1046C000414AD25C7C1DFF347B1DFF331B881100E7
:1046D0001800FFF75FFD030023807B191A787B1910
:1046E00001321A700823FF33FB181A78FB1CFF33C2
:1046F0001B78023B9A42DFDB3B1DFF331B78002B0C
:104700001DD17B1DFF331B88DAB2FB1CFF331B78E6
:10471000023B2D49CB5C9A420DD17B1DFF331B8898
:104720001B0A9BB2DAB2FB1CFF331B78013B264904
:10473000CB5C9A4203D03B1DFF33E3221A70244B1B
:104740001B78062B19D036DC042B34DC032B31DB31
:104750001D4B9B781B029BB21B4AD2789B189AB2C6
:104760001C4B1A80184B1B791B029BB2164A5279BC
:104770009B189AB2184B1A801DE0134B9B781B02B2
:104780009BB2114AD2789B189AB2144B1A800E4BE6
:104790001B791B029BB20C4A52799B189AB2104BA0
:1047A0001A8008E03B1DFF33E0221A700D4B1422E3
:1047B0001A8000E0C0463B1DFF331B781800BD4641
:1047C00042B0B0BD64030020E40A0020650300206D
:1047D000B403002066030020680300206A03002061
:1047E0006C030020B410002080B586B000AFF860E4
:1047F000B9607A6000237B610A4B1B78002B0CD0D8
:10480000084B00221A707A68074B1100180016F046
:104810008FFC031E01D0FB687B617B691800BD46DD
:1048200006B080BDB6030020140A002090B585B004
:1048300000AF7860C0467B681800FBF765FC02009B
:104840000E243B191A803B191A887968074B180007
:1048500016F0C2FC3B191A880449054B180014F0E5
:104860009BFEC046BD4605B090BDC046F408002082
:104870002806002090B585B000AF78600A00FB1CC8
:104880001A70C0460E217B18FA1C12781A800C0090
:104890007B181A887968074B180016F09DFC3B19A5
:1048A0001A880449044B180014F076FEC046BD4631
:1048B00005B090BDF40800202806002080B582B025
:1048C00000AF3B1D90221A803B1D1A8829492A4BB4
:1048D000180014F0F3FE294B1B685A68BB1C1A80A1
:1048E000BA1C3B1D12881B889A423FD2244BDB69BD
:1048F000102213403AD0C046204B1B685A68BB1C9C
:104900001A803B00391DBA1C098812888A1A1A803D
:10491000194B180014F03EFF194BDB6910221340AD
:1049200003D0154B1B6810221A62FB1D00221A705F
:104930000CE0FB1D1A78FB1D1B780E49895C114A9F
:10494000D154FB1D1A78FB1D01321A70FB1D1A7819
:10495000BB1C1B889021CB1A9A42EAD3FB1D1B7803
:10496000084A0021D154084B01221A70C046BD46A6
:1049700002B080BD840900202806002050070020D6
:1049800000440040140A0020B603002080B58AB01D
:1049900000AFF860B9607A603B6000237B62184B1F
:1049A0001B7801225340DBB2002B0CD0144B0122A8
:1049B0001A7004F0D1FC03001A00124B1A60FB6855
:1049C0001800FFF733FFFFF779FFBA6839687B6893
:1049D0001800FFF709FF03007B6204F0BDFC030031
:1049E0001A00084B1B68D31A3A6B9A4202D8044B40
:1049F00000221A707B6A1800BD460AB080BDC0460E
:104A0000B5030020B803002080B500AF00F010F817
:104A1000054B02221A70054B0022402118000EF0AF
:104A2000A8FFC046BD4680BD4C00002000080050D5
:104A300080B582B002AF234B1B78002B05D0224BF0
:104A40000022402118000EF094FF204B1B68012B20
:104A500002D0052B14D027E01C4B1B681A001C4900
:104A60001C48FA239B0000930023FFF78FFF0200EE
:104A7000164B1B689A421FD1052000F02DFB1BE04E
:104A8000124B1B681A0012491348FA23DB000093EB
:104A90000023FFF77BFF02000C4B1B689A420DD1ED
:104AA000062000F019FB09E00C4B02221A700120CD
:104AB00000F012FBC04602E0C04600E0C046C0461F
:104AC000BD4680BDD708002000080050000000202F
:104AD000C8B40108D4B40108E0B401084C000020B7
:104AE00080B584B002AFFB1D00221A70254B002256
:104AF000402118000EF03DFF234B1B68012B02D014
:104B0000022B33D03AE0204B1B681A001F49204883
:104B1000FA23DB0000930023FFF738FF02001A4B53
:104B20001B689A4229D11B4B3D21180016F0F2FA5E
:104B300003003B60FB1D00221A700FE0FB1D1B7879
:104B400001333A68D218FB1D1B7802331178124AE0
:104B5000D154FB1D1A78FB1D01321A70FB1D1B7806
:104B60000B2BEBD9084B02221A6006E00B4B0322F9
:104B70001A70054B01221A6000E0C046C046BD46CF
:104B800002B080BD0008005000000020FCB4010805
:104B900008B50108140A0020E00D00204C00002098
:104BA00080B582B000AFC0465B4B002240211800A8
:104BB0000EF0DFFEFFF782FE584B1B78002B00D172
:104BC000DBE1564B00221A70554B5B78002B02D06C
:104BD000534B01229A705349534B0222180016F08E
:104BE00083FA031E02D1514B21221A7050494E4BB9
:104BF0000222180016F078FA031E02D14B4B5C22F9
:104C00001A704C49484B0222180016F06DFA031E28
:104C100002D1464B80221A704749434B02221800AA
:104C200016F062FA031E02D1404B81221A704349EA
:104C30003D4B0222180016F057FA031E02D13B4BDF
:104C40003D221A703E49384B0222180016F04CFAE9
:104C5000031E06D13B4B72221A7000F053FA00F08B
:104C60005FFA3949304B0222180016F03DFA031E54
:104C700012D1C046354B1A78354B1A70344B1A781E
:104C8000344B1A70344B01221A70334B1A78314B63
:104C900011001800FFF7EEFD3049234B02221800E7
:104CA00016F022FA031E6DD1C046294B1A78FB1D5F
:104CB0000F210A401A70FB1D1B780B2B05D9244BC2
:104CC0001A78FB1D07210A401A70FB1D1B7802335E
:104CD000234AD25C1E4B1B78D31ADAB2BB1D013AB1
:104CE0001A70114B9B78BA1D12789A423AD1154B23
:104CF00072221A70174BF1221A70164B3D225A700D
:104D0000154B02221A70144B1A78124B110018001E
:104D1000FFF7B0FD36E0C04600080050B6030020A3
:104D2000DC0E002014B50108140A0020240E002017
:104D300018B501081CB5010820B5010824B5010803
:104D400028B50108F51000202CB50108C503002086
:104D5000C4030020380E0020320E002030B50108B8
:104D6000E00D0020984BF1221A70974B3E225A70AA
:104D7000964B02221A70954B1A78934B110018002B
:104D8000FFF778FD924B1B78722B04D0914B1B7868
:104D9000002B00D1F1E09049904B0222180016F050
:104DA000A3F9031E02D18E4B60221A708D498B4BE2
:104DB0000222180016F098F9031E02D1884B6122D6
:104DC0001A708949854B0222180016F08DF9031ECE
:104DD00002D1834B53221A708449804B022218005F
:104DE00016F082F9031E02D17D4B50221A708049C1
:104DF0007A4B0222180016F077F9031E02D1784B85
:104E000051221A707B49754B0222180016F06CF97A
:104E1000031E02D1724B46221A7077496F4B022251
:104E2000180016F061F9031E02D16D4B49221A7069
:104E300072496A4B0222180016F056F9031E02D17D
:104E4000674B4A221A706E49644B0222180016F012
:104E50004BF9031E02D1624B54221A7069495F4B11
:104E60000222180016F040F9031E02D15C4B80228A
:104E70001A706549594B0222180016F035F9031EC5
:104E800002D1574B3D221A706049544B0222180040
:104E900016F02AF9031E02D1514B55221A705C49B3
:104EA0004E4B0222180016F01FF9031E02D14C4B84
:104EB00056221A705749494B0222180016F014F96D
:104EC000031E02D1464B57221A705349434B02220C
:104ED000180016F009F9031E02D1414B58221A702E
:104EE0004E493E4B0222180016F0FEF8031E02D176
:104EF0003B4B59221A704A49384B0222180016F0CF
:104F0000F3F8031E02D1364B5A221A704549334B2F
:104F10000222180016F0E8F8031E02D1304B5B2283
:104F20001A7041492D4B0222180016F0DDF8031EBD
:104F300002D12B4B5C221A703C49284B02221800EC
:104F400016F0D2F8031E02D1254B5F221A703849A1
:104F5000224B0222180016F0C7F8031E02D1204B84
:104F600062221A7033491D4B0222180016F0BCF859
:104F7000031E02D11A4B63221A7004F0EDF90300EC
:104F80001A002D4B1B68D31A072B18D904F0E4F92B
:104F900003001A00284B1A60284B1B78552B02D1AE
:104FA000C04608F0AFFB254B1B78552B07D1C046F8
:104FB000064B1A78044B11001800FFF75BFCC04643
:104FC000BD4602B080BDC046380E0020320E002023
:104FD000F5100020F710002034B50108140A002055
:104FE000240E002038B501083CB5010840B5010881
:104FF00044B5010848B501084CB5010850B5010891
:1050000054B501081CB5010824B5010858B50108BC
:105010005CB5010860B5010864B5010868B5010810
:105020006CB5010870B5010818B5010874B5010820
:1050300078B501087CB50108C0030020190E0020D6
:1050400080B500AF1F4B1B78002B37D080231B018E
:105050001D4A190010000EF06FFC031E17D01B4BE9
:105060001B78322B05D8194B1B780133DAB2174B5A
:105070001A70164B1B78322B20D1154B01221A7057
:10508000124B33221A70134BFF221A7016E00F4B8B
:105090001B78002B05D00D4B1B78013BDAB20B4B74
:1050A0001A700A4B1B78012B08D1094B00221A7089
:1050B000064B00221A70074B00221A70C046BD46EC
:1050C00080BDC046D408002000040050BC0300206E
:1050D000D8080020F610002080B582B000AF020092
:1050E000FB1D1A70054B00221A70FB1D1A78044B29
:1050F0001A60C046BD4602B080BDC046B503002060
:105100000000002080B500AF044BF1221A70034B61
:105110003D225A70C046BD4680BDC046E00D00200D
:1051200080B500AF0B4B0C4A1A600C4B0A4A1A6050
:105130000B4B0C4A1A600C4B02221A700B4B0122CB
:10514000DA700B4B55221A700A4B00221A70C046B7
:10515000BD4680BD140E0020E00D00200C0E002086
:10516000100E0020E10D0020300E00201C0E00204B
:10517000190E0020240E002080B500AF404B5B7854
:10518000002B06D03F4B0122082118000EF0F1FB46
:1051900005E03C4B0022082118000EF0EAFB384BDA
:1051A0001B78002B08D080239900A023DB05012267
:1051B00018000EF0DEFB07E080239900A023DB053A
:1051C000002218000EF0D5FB2D4B9B78002B07D04A
:1051D00080239B002B48012219000EF0CAFB06E039
:1051E00080239B002748002219000EF0C2FB244BAD
:1051F0001B79002B08D080235900A023DB05012256
:1052000018000EF0B6FB07E080235900A023DB0551
:10521000002218000EF0ADFB1B4B1B780133DAB2F5
:10522000194B1A70164BDB78002B0ED0164B1B78DF
:105230001A000123134008D08023D900A023DB05E6
:10524000012218000EF095FB07E08023D900A0236F
:10525000DB05002218000EF08CFB0C4B1B78013391
:10526000DAB20A4B1A70094B1B78272B04D9C046B7
:10527000C046064B00221A70C046BD4680BDC046DF
:10528000580B002000080050490B0020BE0B0020E6
:1052900080B500AF464B1B7801225340DBB2002B98
:1052A00014D1444B5B78002B0AD1424B1B7801226E
:1052B0005340DBB2002B0ED13E4B01225A7000E06E
:1052C000C0463D4B180001F054FE05E0C046394B86
:1052D00001221A7000E0C046354B5B780122534032
:1052E000DBB2002B14D1334B9B78002B0AD1314B0E
:1052F0001B7801225340DBB2002B0ED12D4B012233
:105300009A7000E0C0462D4B180001F032FE05E017
:10531000C046284B00229A7000E0C046284B1B78FC
:1053200001225340DBB2002B14D1224BDB78002B3F
:105330000AD1204B1B7801225340DBB2002B0ED147
:105340001C4B0122DA7000E0C0461E4B180001F031
:1053500010FE05E0C046174B0022DA7000E0C046A0
:10536000134B9B7801225340DBB2002B14D1114B1D
:105370001B79002B0AD10F4B1B7801225340DBB263
:10538000002B0ED10B4B01221A7100E0C0460E4BD0
:10539000180001F0EEFD05E0C046064B00221A7130
:1053A00000E0C046034B00221A70C046BD4680BDD7
:1053B000A40B00205C0C0020560C0020570C002091
:1053C000E00B0020580C0020590C002080B500AFE5
:1053D000C0464B4B00221A604A4B1B8803221340E5
:1053E0009BB2002B09D1484B1B78022B05D9444BAB
:1053F0001B68464A9A18424B1A60434B1B78002B95
:1054000013D0414B1B785A1E414B9200D2581300C7
:105410005B009B181A01D21A13019B1ADB011A00B8
:10542000374B1B68D218364B1A60364B1B88394AEB
:105430009A1813005B029B189B009B18DB009B18BB
:105440001A01D21AD3011A0013001A002C4B1B6840
:10545000D2182B4B1A602B4B1B882F4A944663445F
:10546000002B00DA03339B10DAB22C4B1A702B4B53
:105470001B781A0013005B009B181A01D21A130143
:105480009B1ADB011A001E4B1B68D2181C4B1A60BA
:10549000234B1B785A1E13005B009B181A01D21A6B
:1054A00013019B1ADB011A00154B1B68D218144B11
:1054B0001A601C4B1B781A0013001B019B1A1A015F
:1054C000D21A13011A000E4B1B68D2180C4B1A602B
:1054D000154B1B781A0013001B019B1A9B001A0026
:1054E000074B1B68D218064B1A60104B1B781A002A
:1054F000034B1B68D218024B1A60C046BD4680BDE4
:10550000981000209010002092100020805101007F
:10551000B80100204EF8FFFF4FF8FFFF9C1000205D
:105520009310002094100020951000209610002069
:1055300090B585B000AF78600A00FB1C1A700E238E
:10554000FB1800221A800D23FB1800221A7011E0AC
:105550000D203B181B787A68D3181B7819000E228F
:10556000BB18BA1812888A181A803B181A783B1888
:1055700001321A700D23FA18FB1C12781B789A421C
:10558000E6D30E243B191A88FB1C1B781900100067
:10559000FAF74CFE03001A003B191A803B191B88CE
:1055A0001800BD4605B090BDB0B586B002AFDE4B69
:1055B0005B7801225340DBB2002B37D1DB4B012259
:1055C0005A70DB4B14221A70DA4B00221A70DA4B35
:1055D00000221A700F23FB1800221A700AE00F2015
:1055E0003B181B78D54A0021D1543B181A783B1838
:1055F00001321A700F23FB181B78072BEFD9D04B01
:10560000BB60D04B7B60BB681800FDF707FB030055
:10561000DAB27B681A70BB680133BB607B68013308
:105620007B607A68C84B9A4202D8ECE7C04600E03B
:10563000C046BE4B5B78002B01D100F02BFCC0466E
:10564000FB1C00221A700DE0FB1C1B78BF4AD35CC8
:1056500001225340DBB2002B0CD1FB1C1A78FB1C3F
:1056600001321A70FB1C1B78072BEDD9B04B1422AA
:105670001A7000E0C046AE4B1B78002B01D100F041
:10568000F4FBC046A94B9B7801225340DBB2002BB0
:1056900014D1A64B1B79002B00D16AE2C046C0464C
:1056A000AB4B1B7807221340DAB2AA4B1A70A94BF6
:1056B0001B78042B01D900F0C6FB05E3C0469B4BC9
:1056C000DB7801225340DBB2002B00D1CCE0C04696
:1056D0009E4B00225A709D4B00225A71964B1A78AD
:1056E0009C4B1A709C4B09221A809C4B00221A80FA
:1056F00000F0DCFB9A4B1A788F4B1A708E4B1B789C
:105700000F221340DAB2934B1A70924B1B78092B7D
:1057100040D89A00934BD3181B689F46C04625215A
:10572000052001F03BFD3AE0C0460F210D2001F0BD
:1057300035FD34E0C0460A21202001F02FFD2EE087
:10574000C0460B21202001F029FD28E0C0460F2192
:10575000002001F023FD22E0C0460521252001F0B4
:105760001DFD1CE0C04627210F2001F017FD16E0AB
:10577000C0460A210F2001F011FD10E0C0460E21A5
:10578000052001F00BFD0AE0C0460E211F2001F0AC
:1057900005FD04E0C0462621262001F0FFFC01F0B3
:1057A00017FD6A4B9B7801225340DBB2002B57D187
:1057B0005E4B0122DA70604B1B78092B00D156E357
:1057C000C0465D4B1B78082B4CD15C4B1B780122EB
:1057D0005340DBB2002B03D1634B01221A7000E06F
:1057E000C046564B5B7801225340DBB2002B2FD1D1
:1057F000524B00225A70534B39229A5C514B5A70CB
:10580000504B3A229A5C4F4B9A704E4B3B229A5C1B
:105810004C4BDA704B4B3C229A5C4A4B1A71494B09
:105820003D22995C474B2D229954464B3E22995C70
:10583000444B2E229954434B3F22995C414B2F22DB
:105840009954404B4022995C3E4B3022995400E0E1
:10585000C046464B00221A70454BAA221A7009E333
:10586000C04618E3C04616E3C046334B1B780F22F0
:105870001340DAB2374B1A70364B1B78092B00D91C
:1058800034E19A003B4BD3181B689F46C0463A4B05
:10589000180000F0E5FB03001C00384B180000F076
:1058A000DFFB03001D00364B180000F0D9FB03009E
:1058B0001A000223009301232900200001F0C2FCFA
:1058C00019E1C0462F4B180000F0CAFB03001A0074
:1058D0000423009303230021632001F0B3FC0AE1B9
:1058E000C046254B180000F0BBFB030096331C009C
:1058F000234B180000F0B4FB03001D00214B1800DF
:1059000000F0AEFB0300EB180A331D001E4B18001D
:1059100000F0A6FB03001A002E2300932D2329007C
:10592000200001F08FFCE6E0180C0020E80B0020BE
:10593000720B0020000C0020FF0B0020480C002000
:1059400000F0030838010020B7010020F00B002010
:10595000FE0B0020D0080020020C0020040C0020C8
:10596000550B0020C0B50108500C0020640C00202D
:10597000630C0020E8B50108470100204501002024
:10598000390100203B01002065010020C046D64BB4
:10599000180000F065FB03000A3B1C00D34B180005
:1059A00000F05EFB0300963B1D00D14B180000F099
:1059B00057FB03001A00302300932F2329002000F7
:1059C00001F040FC97E0C046CA4B1B78002B04D185
:1059D000C84B1B79002B0CD000E0C046C64B1B788F
:1059E00001225340DBB25A1E9341DAB2C24B1A7005
:1059F00000E0C0460121282001F0D0FBBE4B1B78FF
:105A000001225340DBB2002B04D11D21002001F004
:105A1000C5FB00E0C04601F0DBFB6CE0C0460521A1
:105A2000252001F0BBFBB54B63221A80B44B00224A
:105A30001A80B44B1A78B44B1A7000F037FAB34B93
:105A40001A78B04B1A7000F03FFD01F0C1FB52E034
:105A5000C046AF4B1800FDF7E1F80300DCB2AD4BD8
:105A60001800FDF7DBF803000A211800FAF754FBD1
:105A70000300DBB21900200001F090FB3BE0C046C0
:105A80009C4B1B78002B04D19A4B1B79002B0CD01C
:105A900000E0C046984B5B7801225340DBB25A1EAF
:105AA0009341DAB2944B5A7000E0C046012128209D
:105AB00001F074FB904B5B7801225340DBB2002B6A
:105AC00004D11D21002001F069FB00E0C04601F077
:105AD0007FFB10E0C0460E21052001F05FFB0AE0CD
