:020000040800F2
:1000000000800020D1DC0008ED920008F592000885
:1000100000000000000000000000000000000000E0
:10002000000000000000000000000000FD92000839
:100030000000000000000000079300081193000872
:1000400021DD000821DD00082193000821DD0008E2
:1000500021DD000821DD000821DD000839930008BA
:1000600021DD000821DD00084D9300087193000890
:1000700021DD000821DD000821DD000821DD000868
:1000800021DD000821DD000821DD000821DD000858
:1000900021DD000821DD000821DD0008AD93000806
:1000A00021DD000821DD000821DD000821DD000838
:1000B000DD93000821DD0008F593000821DD00082C
:1000C00010B5064C2378002B07D1054B002B02D02E
:1000D000044800E000BF0123237010BDB4020020DB
:1000E00000000000607C0108044B10B5002B03D019
:1000F0000349044800E000BF10BDC04600000000F6
:10010000B8020020607C01080023C25C0133002A91
:10011000FBD1581E70470000002243088B4274D365
:1001200003098B425FD3030A8B4244D3030B8B42F8
:1001300028D3030C8B420DD3FF22090212BA030C01
:100140008B4202D31212090265D0030B8B4219D3E2
:1001500000E0090AC30B8B4201D3CB03C01A524102
:10016000830B8B4201D38B03C01A5241430B8B424A
:1001700001D34B03C01A5241030B8B4201D30B0333
:10018000C01A5241C30A8B4201D3CB02C01A52415A
:10019000830A8B4201D38B02C01A5241430A8B421D
:1001A00001D34B02C01A5241030A8B4201D30B0206
:1001B000C01A5241CDD2C3098B4201D3CB01C01A20
:1001C000524183098B4201D38B01C01A524143092A
:1001D0008B4201D34B01C01A524103098B4201D318
:1001E0000B01C01A5241C3088B4201D3CB00C01A85
:1001F000524183088B4201D38B00C01A52414308FD
:100200008B4201D34B00C01A5241411A00D2014621
:10021000524110467047FFE701B5002000F0F0F8AA
:1002200002BDC0460029F7D076E7704703460B436E
:100230007FD4002243088B4274D303098B425FD3DF
:10024000030A8B4244D3030B8B4228D3030C8B420B
:100250000DD3FF22090212BA030C8B4202D31212F1
:10026000090265D0030B8B4219D300E0090AC30BC6
:100270008B4201D3CB03C01A5241830B8B4201D373
:100280008B03C01A5241430B8B4201D34B03C01A5C
:100290005241030B8B4201D30B03C01A5241C30AD4
:1002A0008B4201D3CB02C01A5241830A8B4201D345
:1002B0008B02C01A5241430A8B4201D34B02C01A2F
:1002C0005241030A8B4201D30B02C01A5241CDD2D4
:1002D000C3098B4201D3CB01C01A524183098B421F
:1002E00001D38B01C01A524143098B4201D34B0108
:1002F000C01A524103098B4201D30B01C01A52416B
:10030000C3088B4201D3CB00C01A524183088B42F1
:1003100001D38B00C01A524143088B4201D34B00DA
:10032000C01A5241411A00D201465241104670474C
:100330005DE0CA0F00D04942031000D34042534051
:1003400000229C4603098B422DD3030A8B4212D311
:10035000FC22890112BA030A8B420CD38901921143
:100360008B4208D3890192118B4204D389013AD080
:10037000921100E08909C3098B4201D3CB01C01A55
:10038000524183098B4201D38B01C01A5241430968
:100390008B4201D34B01C01A524103098B4201D356
:1003A0000B01C01A5241C3088B4201D3CB00C01AC3
:1003B000524183088B4201D38B00C01A5241D9D2DB
:1003C00043088B4201D34B00C01A5241411A00D25C
:1003D0000146634652415B10104601D34042002B58
:1003E00000D54942704763465B1000D3404201B5D7
:1003F000002000F005F802BD0029F8D016E770478C
:100400007047C0461C2101231B04984201D3000CF5
:1004100010391B0A984201D3000A08391B09984277
:1004200001D30009043902A2105C40187047C0468D
:1004300004030202010101010000000000000000AD
:10044000002B11D1002A0FD1002900D1002802D0A1
:100450000021C943080007B4024802A140180290D5
:1004600003BDC0469DFFFFFF03B4684601B5029877
:1004700000F006F8019B9E4602B00CBC7047C046D7
:10048000F0B557464E464546DE46E0B504000D0041
:100490009246994683B08B4230D82DD0494650467B
:1004A00000F0BAF829000600200000F0B5F8331A71
:1004B0009846203B34D49B4653465A469340424686
:1004C0001F00534693401E00AF423BD8AF4200D1BD
:1004D00079E05B46A41BBD41002B00DA76E00022E8
:1004E00000230092019301235A4693400193012374
:1004F00042469340009329E08242CFD90022002354
:10050000009201930C9B002B01D01C605D60009851
:10051000019903B0F0BCBB46B246A946A046F0BD67
:1005200042469B4620239B1A5246DA40414613001E
:100530004A468A40170042461F43534693401E00D6
:10054000AF42C3D900220023009201934346002BFF
:10055000D8D0FB0772081A4346467B080EE0AB4230
:1005600001D1A2420CD8A41A9D41012024196D4149
:100570000021013E24184D41002E06D0AB42EED999
:10058000013E24196D41002EF8D1009801995B4677
:1005900000196941002B24DB2B005A464446D34006
:1005A0002A00E2401C005B461500002B2ADB2600D7
:1005B0009E40330026004746BE403200801A9941D3
:1005C000009001919EE7A342BCD882E742462023D7
:1005D00000219B1A0022009101920122DA4001922F
:1005E00085E7424620239B1A2A0046469A4023006C
:1005F000F340444613432A00E2401C005B461500CA
:10060000002BD4DA42462F002023260097409B1A65
:10061000DE403B003343CDE710B5002903D1FFF79F
:10062000F1FE203002E00800FFF7ECFE10BDC046EE
:1006300080B582B000AFFB1C00221A70BB1C0022E8
:100640001A703B0000221A8000237B60D8E07B6890
:100650000233704AD35C302B02D1FB1C00221A708B
:100660007B6802336B4AD35C312B02D1FB1C012225
:100670001A707B680233674AD35C322B02D1FB1CB1
:1006800002221A707B680233624AD35C332B02D198
:10069000FB1C03221A707B6802335E4AD35C342B46
:1006A00002D1FB1C04221A707B680233594AD35CC6
:1006B000352B02D1FB1C05221A707B680233554A88
:1006C000D35C362B02D1FB1C06221A707B680233E6
:1006D000504AD35C372B02D1FB1C07221A707B686F
:1006E00002334C4AD35C382B02D1FB1C08221A700F
:1006F0007B680233474AD35C392B02D1FB1C0922A9
:100700001A707B680233434AD35C412B02D1FB1C35
:100710000A221A707B6802333E4AD35C422B02D114
:10072000FB1C0B221A707B6802333A4AD35C432BC2
:1007300002D1FB1C0C221A707B680233354AD35C51
:10074000442B02D1FB1C0D221A707B680233314A04
:10075000D35C452B02D1FB1C0E221A707B6802333E
:100760002C4AD35C462B02D1FB1C0F221A707B68EB
:100770000122134005D1BB1CFA1C127812011A7019
:100780003BE0BB1CB91CFA1C097812780A431A70AA
:100790007B68012B05D07B68052B02D07B68092B79
:1007A00005D1BB1C1B789AB23B0012021A807B68F1
:1007B000032B05D07B68072B02D07B680B2B07D15E
:1007C000BB1C1B7899B23B003A0012880A431A807E
:1007D0007B68032B03D1104B3A0012881A807B6888
:1007E000072B03D10C4B3A0012885A807B680B2BE5
:1007F00003D1094B3A0012889A807B6801337B60F1
:100800007B680B2B00DC22E7C046C046BD4602B029
:1008100080BDC0461C0D00208C00002090B585B026
:1008200000AF3A60BB1D021C1A803B1D0A1C1A80D7
:100830000D217B1800221A700F203B1800221A701D
:100840002C4B1B88BA1D12889A424BD8294B1B8807
:100850003A1D12889A4245D33B1801221A703B1D5B
:100860001B88DAB2234B1B88DBB2D31ADAB27B18AF
:1008700001321A707B181B789AB21F4B1B889A4260
:100880002DD30E217B1800221A707B1800221A70BB
:1008900017E00E243B191878164B1B881A00BB1D55
:1008A0001B88D21A3B191B78D3185B003A68D318FF
:1008B0001B88190001F03AF83B191A783B190132EC
:1008C0001A700E23FB181B789AB20B4B1B889A42A6
:1008D000DFD30A4B1B78180001F046F802E0032032
:1008E00001F06AF90F23FB181B781800BD4605B00C
:1008F00090BDC046D2020020D40200202003002078
:1009000080B582B000AFFB1D00221A70754BDA78FB
:10091000754B5B781343DAB2734B9B781343DBB2AE
:1009200001225340DBB2002B03D0704B00221A800F
:1009300016E06D4B5B78002B03D06C4B01221A80C4
:100940000EE0694B5B78002B03D0684B02221A80C3
:1009500006E0644BDB78002B02D0644B06221A8041
:10096000634B5B781A00614B5A80624B1B781A000C
:100970005E4B9A805E4B9B781A005C4BDA805C4B36
:100980001B781A00594B1A81574B5B781A00574B4A
:100990005A81564B00229A81544B1B88002B03D15D
:1009A000524B0122DA8102E0504B0022DA814E4B99
:1009B0005B781A004D4B1A824B4B9B781A004B4BBD
:1009C0005A824A4B00229A82484B0022DA82454BD7
:1009D000DB781A00454B1A83444B00225A83464B5E
:1009E0001B781B029BB2454A12789B189AB2444B63
:1009F0001A80444B1B781B029BB2434A12789B1807
:100A00009AB23F4B5A80414B1B781A1C9200D31864
:100A1000DB189AB23A4B9A80394BDC22DA803C4B95
:100A2000DB791A003B4B1A80394B9B791A00394B02
:100A30005A80374B1B791A00364B9A80344B9A7880
:100A4000334BDB781343DBB21A00324BDA80314B85
:100A500000221A812E4B1A782D4B5B781343DBB2A0
:100A60001A002C4B5A812C4B5B781A00294B9A8127
:100A7000294B9B791A00274BDA81254B1A78244B96
:100A80005B781343DBB21A00224B1A82234B244AB1
:100A90001A80224B234A5A80204BFF229A80FFF76C
:100AA000C7FD214B7B229B5C1B029BB21E4A7C2113
:100AB000525C9B189AB21D4B1A8001F031F902006A
:100AC000FB1D1A70FB1D1B78002B01D000F049FEA6
:100AD000C046174B1B78032B2CD0062B00D17DE191
:100AE00000F002FEB40A0020780B00205400002021
:100AF000E00A00201C0B0020EC0A0020ED0A002078
:100B000070000020EE0A0020EF0A00200A0B0020EF
:100B1000C40A002078000020BC0A00208C000020BD
:100B2000A2B4FFFF4FEBFFFF00F00308940000208A
:100B300020030020C046D64B00221A80D54B5222FB
:100B40009B5C202B02D1D24B01221A80D14B5B78C7
:100B50001B029BB2CF4A92789B189AB2CE4B1A8056
:100B6000CC4BDB781B029BB2CA4A12799B189AB213
:100B7000CA4B1A80C74B72229B5C1A00C84B1A8062
:100B8000C44B49229B5C1A00C64B1A80C64A0E23EE
:100B9000FF33190080235B001800FFF73FFE031EA0
:100BA00001D000F0A5FDC14AC14980239B01180076
:100BB000FFF734FE031E01D000F09CFDBD4A8223E6
:100BC000990080239B001800FFF728FE031E01D028
:100BD00000F092FDB84AB949C0239B001800FFF706
:100BE0001DFE031E01D000F089FDB54AC423990003
:100BF000C4239B001800FFF711FE031E01D000F074
:100C00007FFDB04B1A0010211020FFF707FE031ED6
:100C100001D000F077FDAC4AC0239901C0239B01AD
:100C20001800FFF7FBFD031E01D000F06DFD984B8F
:100C3000A649A6481A00FFF7F1FD031E01D000F0F7
:100C400065FD954BA249A2481A00FFF7E7FD031E78
:100C500001D000F05DFD914B9E499E481A00FFF7C0
:100C6000DDFD031E01D000F055FD9B4B9B499B48C9
:100C70001A00FFF7D3FD031E01D000F04DFD984B85
:100C8000984998481A00FFF7C9FD031E01D000F0EB
:100C900045FD954B954995481A00FFF7BFFD031E8A
:100CA00001D000F03DFD924B924992481A00FFF7A7
:100CB000B5FD031E01D000F035FD8F4B8F498F48E5
:100CC0001A00FFF7ABFD031E01D000F02DFD8C4B89
:100CD0008C498C481A00FFF7A1FD031E01D000F0DB
:100CE00025FD894B894989481A00FFF797FD031EA6
:100CF00001D000F01DFD864B864986481A00FFF79B
:100D00008DFD031E01D000F015FD834B8349834800
:100D10001A00FFF783FD031E01D000F00DFD804B8C
:100D2000804980481A00FFF779FD031E01D000F0CA
:100D300005FD7D4B7D497D481A00FFF76FFD031EC1
:100D400001D000F0FDFC564B794979481A00FFF7B5
:100D500065FD031E01D000F0F5FC524B7549754846
:100D60001A00FFF75BFD031E01D000F0EDFC724B93
:100D7000724972481A00FFF751FD031E01D000F0BE
:100D8000E5FC6F4B6F496F481A00FFF747FD031EE4
:100D900001D000F0DDFC6C4B6C496C481A00FFF789
:100DA0003DFD031E01D000F0D5FC694B694969483F
:100DB0001A00FFF733FD031E01D000F0CDFC664B97
:100DC000664966481A00FFF729FD031E01D000F0AE
:100DD000C5FC022000F0F0FE00F0C3FC604B1A8856
:100DE000C0239B019A4210D35D4B1A88C0239B01FC
:100DF0009A420AD85B4B1B88DBB21A00324B1A802E
:100E0000594B1B78180000F0AFFD554B1B88574A13
:100E1000934200D8B6E0524B1B882C4A934200D92B
:100E2000B0E0504B1B88DBB21A00194B1A80184BEC
:100E30001B88012B13D1174B52229B5C202B01D115
:100E4000C0460CE04A4B20221A70494B1B781A000E
:100E5000484B1900100003F097FDC046FDE70C4B0E
:100E60001B88002B00D088E00A4B52229B5C202B71
:100E700000D081E03E4B00221A703D4B1B781A00D7
:100E80003C4B1900100003F07FFDC046FDE7C04653
:100E9000700A002000F00308980000209A0000204B
:100EA000AE000020B00000205400002070000020A0
:100EB00003200000780000208C00002002030000C6
:100EC000940000206E0A00209600002002300000EE
:100ED00004300000063000009C00002008300000B4
:100EE000720A00200A3000009E0000200C30000032
:100EF000740A00200E300000A00000201030000016
:100F0000A200002012300000A400002014300000D5
:100F1000A600002016300000A800002018300000B5
:100F2000AA0000201A300000AC0000201C30000095
:100F30001E30000004310000B20000200631000025
:100F4000B400002008310000B60000200A31000083
:100F5000B80000200C310000BA0000200E31000063
:100F6000D6020020D802002020030020013000001B
:100F7000920A002052F00308C046C24B1B781800AA
:100F800000F0F2FCC04B1B88C04A934226D9BE4BEE
:100F90001B88BF4A934221D8BE4B1A88BE4B1A8089
:100FA000BD4B1B881B0A9BB2DAB2BC4B1A70BA4B02
:100FB0001B88DAB2BA4B1A70B84B1B781A00B94BBF
:100FC0001900100003F0E0FCB54B1B781A00B64B7B
:100FD0001900100003F0D8FCC046FDE7AA4B1B889F
:100FE000B24A934226D9A84B1B88B14A934221D8D2
:100FF000A84B1A88AF4B1A80AE4B1B881B0A9BB2BA
:10100000DAB2A64B1A70AB4B1B88DAB2A44B1A703B
:10101000A24B1B781A00A84B1900100003F0B4FC77
:101020009F4B1B781A00A54B1900100003F0ACFC75
:10103000C046FDE7944B1B88A14A93420FD9924BBF
:101040001B88A04A93420AD8924B1B88DBB21A0035
:101050009D4B1A808B4B1B78180000F085FC8A4B47
:101060001B889A4A93420FD9874B1B88984A934210
:101070000AD8884B1B88DBB21A00964B1A80814B2A
:101080001B78180000F070FC7F4B1B88924A93423B
:101090000FD97D4B1B88914A93420AD87D4B1B8800
:1010A000DBB21A008E4B1A80764B1B78180000F0CA
:1010B0005BFC754B1B888B4A93420FD9724B1B8884
:1010C000894A93420AD8734B1B88DBB21A00874BBC
:1010D0001A806C4B1B78180000F046FC6A4B1B888A
:1010E000834A93420FD9684B1B88824A93420AD89D
:1010F000684B1B88DBB21A007F4B1A80614B1B7850
:10110000180000F031FC604B1B887C4A93420FD9D9
:101110005D4B1B887A4A93420AD85E4B1B88DBB230
:101120001A00784B1A80574B1B78180000F01CFCF3
:10113000554B1B88744A93420FD9534B1B88734AF3
:1011400093420AD8534B1B88DBB21A00704B1A80AB
:101150004C4B1B78180000F007FC4B4B1B886D4A6A
:1011600093420FD9484B1B886B4A93420AD8494B8C
:101170001B88DBB21A00694B1A80424B1B7818009F
:1011800000F0F2FB404B1B88654A93420FD93E4B5F
:101190001B88644A93420AD83E4B1B88DBB21A0074
:1011A000614B1A80374B1B78180000F0DDFB364B83
:1011B0001B885E4A93420FD9334B1B885C4A93428B
:1011C0000AD8344B1B88DBB21A005A4B1A802D4BBD
:1011D0001B78180000F0C8FB2B4B1B88564A934223
:1011E0000FD9294B1B88554A93420AD8294B1B8893
:1011F000DBB21A00524B1A80224B1B78180000F009
:10120000B3FB214B1B884F4A934219D91E4B1B88B5
:101210004D4A934214D81F4B1B88DBB21A004B4B2C
:101220001A804A4B1B88DAB21C4B1A701B4B1B7876
:101230001A00474B1900100003F0A6FBC046FDE75B
:10124000114B1B88434A934200D88BE00E4B1B88FE
:10125000414A934200D985E00E4B1B88DBB21A004D
:101260003E4B1A803D4B1B88DAB20C4B1A700B4B6D
:101270001B781A003A4B1900100003F085FBC0469A
:10128000FDE7C04620030020D60200200330000006
:1012900004300000D802002098000020920A0020AC
:1012A000930A002001F0030802F003080530000053
:1012B000063000009A00002003F0030804F0030841
:1012C00007300000083000009C00002009300000BA
:1012D0000A300000720A00200B3000000C300000C1
:1012E0009E0000200D3000000E300000740A002027
:1012F0000F30000010300000A0000020113000006E
:1013000012300000A2000020133000001430000052
:10131000A40000201530000016300000A6000020B8
:101320001730000018300000A8000020193000001D
:101330001A300000AA0000201B3000001C30000002
:10134000AC0000201D3000001E300000AE00002068
:1013500072F003080331000004310000B0000020E7
:1013600049F00308B74B1B88B74A93420FD9B54BD6
:101370001B88B64A93420AD8B54B1B88DBB21A00C9
:10138000B44B1A80B44B1B78180000F0EDFAAD4B4B
:101390001B88B24A93420FD9AA4B1B88B04A93428A
:1013A0000AD8AB4B1B88DBB21A00AE4B1A80AA4B93
:1013B0001B78180000F0D8FAA24B1B88AA4A934267
:1013C0000FD9A04B1B88A94A93420AD8A04B1B886F
:1013D000DBB21A00A64B1A809F4B1B78180000F056
:1013E000C3FA984B1B88A34A93420FD9954B1B888D
:1013F000A14A93420AD8964B1B88DBB21A009F4B36
:101400001A80954B1B78180000F0AEFA8D4B1B88A4
:101410009B4A93420FD98B4B1B889A4A93420AD816
:101420008B4B1B88DBB21A00974B1A808A4B1B78B8
:10143000180000F099FA834B1A88C8239B019A423E
:1014400010D3804B1A88C8239B019A420AD8804B3C
:101450001B88DBB21A008D4B1A807F4B1B7818005B
:1014600000F082FA774B1B88894A93420FD9754B5B
:101470001B88884A93420AD8754B1B88DBB21A0036
:10148000854B1A80744B1B78180000F06DFA6D4B79
:101490001B88824A93420FD96A4B1B88804A934229
:1014A0000AD86B4B1B88DBB21A007E4B1A806A4B42
:1014B0001B78180000F058FA624B1B887A4A934256
:1014C0000FD9604B1B88794A93420AD8604B1B881E
:1014D000DBB21A00764B1A805F4B1B78180000F0C5
:1014E00043FA584B1B88734A93420FD9554B1B88BC
:1014F000714A93420AD8564B1B88DBB21A006F4BD5
:101500001A80554B1B78180000F02EFA4D4B1B88A3
:101510006B4A93420FD94B4B1B886A4A93420AD8B5
:101520004B4B1B88DBB21A00674B1A804A4B1B7867
:10153000180000F019FA434B1B88644A93420FD9F4
:10154000404B1B88624A93420AD8414B1B88DBB24E
:101550001A00604B1A80404B1B78180000F004FA08
:10156000384B1B882F2B1AD9364B1B88302B16D89B
:10157000374B1B88012B04D1574BDB78002B00D055
:10158000C046334B1B88002B04D1534BDB78002B18
:1015900000D1C046304B1B78180000F0E5F9294B0C
:1015A0001B88302B22D9274B1B88312B1ED8284B68
:1015B0001B88012B0CD1494B5B78002B01D0C04616
:1015C00006E0474B1B7801221343DAB2444B1A70F2
:1015D0001F4B1B88002B04D1404B5B78002B00D1A4
:1015E000C0461D4B1B78180000F0BEF9154B1B8838
:1015F000312B00D8B4E0134B1B88322B00D9AFE05D
:10160000134B1B88012B08D1344B9B78002B01D046
:10161000C04602E0334B01221A700D4B1B88002B91
:1016200009D12E4B9B78002B04D0C0462D4B0022B5
:101630001A7000E0C046084B1B78180000F094F9BF
:101640008EE0C046D60200200531000006310000C1
:10165000D8020020B2000020200300200731000043
:1016600008310000B4000020093100000A310000F8
:10167000B60000200B3100000C310000B800002043
:101680000D3100000E310000BA000020760A002063
:101690000132000002320000780A0020033200000C
:1016A000043200007A0A00200532000006320000F1
:1016B0007C0A002007320000083200007E0A002069
:1016C000093200000A320000800A00200B320000BC
:1016D0000C320000820A0020B40A0020E00A002038
:1016E0008C0B0020240B0020012000F065FA38E06C
:1016F000C04636E0C04634E0C04632E0C04630E086
:10170000C0462EE0C0462CE0C0462AE0C04628E095
:10171000C04626E0C04624E0C04622E0C04620E0A5
:10172000C0461EE0C0461CE0C0461AE0C04618E0B5
:10173000C04616E0C04614E0C04612E0C04610E0C5
:10174000C0460EE0C0460CE0C0460AE0C04608E0D5
:10175000C04606E0C04604E0C04602E0C04600E0E5
:10176000C046C046BD4602B080BDC04680B582B00E
:1017700000AFFB1D00221A703B1D1E221A803B1D6C
:101780001A882949294B180014F0B2FD284B1B6810
:101790005A68BB1C1A80BA1C3B1D12881B889A42CF
:1017A0003CD2244BDB691022134037D0C0461F4B7C
:1017B000180014F009FE1F4BDB691022134003D000
:1017C0001A4B1B6810221A62BB1D00221A700CE013
:1017D000BB1D1A78BB1D1B781349895C164AD1546E
:1017E000BB1D1A78BB1D01321A70BB1D1A78BB1CB9
:1017F0001B881E21CB1A9A42EAD3BB1D1B780E4AC6
:101800000021D1543B1D1B88D9B2BB1C1B88DAB206
:10181000FB1D8A1A1A70094B01221A70FB1D1B78D6
:101820001800BD4602B080BD300A00202806002006
:101830007C070020004C0040500A0020D00200200D
:1018400080B582B000AF78600A00FB1C1A70C046F9
:10185000FB1C1A787968084B180016F0F7F9FB1C86
:101860001B789AB20449054B180014F0AFFCC0462F
:10187000BD4602B080BDC046100A002028060020E8
:1018800080B584B000AF0200BB1D1A807B1D0A1C0E
:101890001A707B1D1B7899B2BB1DBA1D12884A4075
:1018A0001A800023FB6015E0BB1D1B88012213403A
:1018B00008D0BB1D1B885B089AB2BB1D0A494A4071
:1018C0001A8004E0BB1DBA1D128852081A80FB68FA
:1018D0000133FB60FB68072BE6DDBB1D1B8818008E
:1018E000BD4604B080BDC04601A0FFFF80B500AF7B
:1018F000C046BD4680BD000080B582B000AF02008A
:10190000FB1D1A70064BFA1D12781A70054B002247
:101910001A70054B00221A80C046BD4602B080BD39
:10192000D10200201C0300201E03002080B582B0DD
:1019300000AF0200FB1D1A703B1D0A1C1A80FB1D24
:101940001B781F2B08D8FB1D1A78064B5200391D37
:101950000988D152002300E002231800BD4602B0DE
:1019600080BDC046DC020020F0B5C5B000AF02006B
:10197000884B88256D005B19DB191A701024FF3421
:101980003B1900221A70844B0122042118000EF02A
:1019900080FE20003B181B783A18591C11701A0061
:1019A0007E4B19787E4B5B19DB1999543B181B78D9
:1019B0003A18591C11701A007A4B1978784B5B1938
:1019C000DB199954734B5B19DB191B78042B02DC70
:1019D000032B03DA77E0062B4FD074E0724B1B88A1
:1019E00059001022FF32BB181B78BA18581C10700F
:1019F0001A00C9B26A4B882040001B18DB199954A1
:101A000087235B00FB1800221A702CE087246400F7
:101A10003B191A78654B5200D35A1B0A99B210250C
:101A2000FF357B191B787A19581C10701A00C9B23F
:101A30005B4B882676009B19DB1999543B191A7861
:101A40005A4B5200D15A7B191B787A19581C1070C6
:101A50001A00C9B2524B9B19DB1999543B191A78D9
:101A60003B1901321A70504B1B88DBB2872252009F
:101A7000BA1812789A42C9D325E087235B00FB1875
:101A800002221A7018E0872464003B191A7810218A
:101A9000FF317B181B787918581C08701900444BCB
:101AA0009A5C3F4B882040001B18DB195A543B19A5
:101AB0001A783B1901321A7087235B00FB181B78D8
:101AC000052BE0D9C04686235B00FB180122524259
:101AD0001A8087235B00FB1800221A7019E0872503
:101AE0006D007B191B782E4A882149005218D219A3
:101AF000D25C86235B00FC18FB181B8811001800C1
:101B0000FFF7BEFE030023807B191A787B19013290
:101B10001A7087235B00FA181020FF303B181278E8
:101B20001B789A42DBD33B181B783A18591C11706A
:101B30001A00862464003B191B88D9B2184B8825EB
:101B40006D005B19DB1999543B191B881B0A99B26C
:101B50003B181B7804003A18581C10701A00C9B2C0
:101B60000F4B5B19DB1999543B191B780C4A52191E
:101B7000D2190021D1543B191A780C23FB181100FB
:101B80001800FFF75DFE0B4B46221A80C046BD468B
:101B900045B0F0BDF7FEFFFF00080050D102002065
:101BA000FCFEFFFF20030020D4020020DC02002006
:101BB000500A0020EE0F0020B0B5C4B000AF020004
:101BC000514B88256D005B19DB191A700C24FF340A
:101BD0003B1900221A70C0464C4B14221A804C4B01
:101BE0000122042118000EF054FD3B191B783A190C
:101BF000591C11701A00474B1978474B5B19DB19B8
:101C00009954464B1A783B191B783919581C08709F
:101C1000190080235B421343DAB23F4B5B19DB1997
:101C20005A543B191B783A19591C117019003A4B38
:101C30005B19DB19344A5219D21912785A54862387
:101C40005B00FB18012252421A801023FF33FB185D
:101C500000221A7019E01025FF357B191B782E4AD7
:101C6000882149005218D219D25C86235B00FC18E7
:101C7000FB181B8811001800FFF702FE03002380E9
:101C80007B191A787B1901321A701023FF33FA1866
:101C90000C20FF303B1812781B789A42DBD33B189C
:101CA0001B783A18591C11701A00862464003B19DD
:101CB0001B88D9B2184B88256D005B19DB19995424
:101CC0003B191B881B0A99B23B181B7804003A1871
:101CD000581C10701A00C9B20F4B5B19DB199954CC
:101CE0003B191B780C4A5219D2190021D1543B19C7
:101CF0001A780823FB1811001800FFF7A1FDC04651
:101D0000BD4644B0B0BDC046F7FEFFFFF00F002057
:101D100000080050D1020020F8FEFFFF2003002041
:101D2000B0B5C2B000AFFB1CFF3300221A703B1DE0
:101D3000FF33FF221A70FC1CFF34FFF717FD03006E
:101D40002370C046C0465A4B1B78002B00D1A8E038
:101D5000574B00221A703B1DFF3300221A70554B5F
:101D60001A78554B1B789A4200D091E0514B5A7823
:101D7000524B1A704F4B5B781A007F2313404F4A27
:101D80001278934203D03B1DFF33E1221A707B1D72
:101D9000FF33012252421A800823FF33FB1800222E
:101DA0001A7015E00825FF357B191B78414AD25C73
:101DB0007C1DFF347B1DFF331B8811001800FFF7CB
:101DC0005FFD030023807B191A787B1901321A709A
:101DD0000823FF33FB181A78FB1CFF331B78023BE8
:101DE0009A42DFDB3B1DFF331B78002B1DD17B1D8F
:101DF000FF331B88DAB2FB1CFF331B78023B2D49F3
:101E0000CB5C9A420DD17B1DFF331B881B0A9BB212
:101E1000DAB2FB1CFF331B78013B2649CB5C9A42AC
:101E200003D03B1DFF33E3221A70244B1B78062B93
:101E300019D036DC042B34DC032B31DB1D4B9B78B3
:101E40001B029BB21B4AD2789B189AB21C4B1A8079
:101E5000184B1B791B029BB2164A52799B189AB2F7
:101E6000184B1A801DE0134B9B781B029BB2114A42
:101E7000D2789B189AB2144B1A800E4B1B791B0216
:101E80009BB20C4A52799B189AB2104B1A8008E008
:101E90003B1DFF33E0221A700D4B14221A8000E024
:101EA000C0463B1DFF331B781800BD4642B0B0BD95
:101EB000D0020020500A0020D10200202003002080
:101EC000D2020020D4020020D6020020D802002036
:101ED000F00F002080B586B000AFF860B9607A607E
:101EE00000237B610A4B1B78002B0CD0084B00228F
:101EF0001A707A68074B1100180015F06DFE031E6A
:101F000001D0FB687B617B691800BD4606B080BDCF
:101F1000220300208009002090B585B000AF7860D2
:101F2000C0467B681800FEF7EFF802000E243B194C
:101F30001A803B191A887968074B180015F086FE3D
:101F40003B191A880449054B180014F03FF9C046A4
:101F5000BD4605B090BDC046600800209405002035
:101F600090B585B000AF78600A00FB1C1A70C046BF
:101F70000E217B18FA1C12781A800C007B181A8824
:101F80007968074B180015F061FE3B191A8804495F
:101F9000044B180014F01AF9C046BD4605B090BDB8
:101FA000600800209405002080B582B000AF3B1D82
:101FB00090221A803B1D1A8829492A4B180014F0D8
:101FC00097F9294B1B685A68BB1C1A80BA1C3B1D29
:101FD00012881B889A423FD2244BDB69102213409F
:101FE0003AD0C046204B1B685A68BB1C1A803B0085
:101FF000391DBA1C098812888A1A1A80194B1800D0
:1020000014F0E2F9194BDB691022134003D0154B91
:102010001B6810221A62FB1D00221A700CE0FB1DC7
:102020001A78FB1D1B780E49895C114AD154FB1D9F
:102030001A78FB1D01321A70FB1D1A78BB1C1B8815
:102040009021CB1A9A42EAD3FB1D1B78084A002143
:10205000D154084B01221A70C046BD4602B080BD63
:10206000F008002094050020BC0600200044004039
:10207000800900202203002080B58AB000AFF860FC
:10208000B9607A603B6000237B62184B1B780122A9
:102090005340DBB2002B0CD0144B01221A7004F019
:1020A000A3FC03001A00124B1A60FB681800FFF72C
:1020B00033FFFFF779FFBA6839687B681800FFF7CC
:1020C00009FF03007B6204F08FFC03001A00084B39
:1020D0001B68D31A3A6B9A4202D8044B00221A703A
:1020E0007B6A1800BD460AB080BDC04621030020AF
:1020F0002403002080B500AF0B4B61229B5C002BBA
:1021000002D100F019F80CE0084B1B78002B08D026
:10211000074B02221A70074B0022402118000EF0D4
:10212000B8FAC046BD4680BD00F003084308002051
:10213000500000200008005080B582B002AF5B4B19
:102140001B78002B05D05A4B0022402118000EF0BE
:10215000A0FA584B1B68052B00D993E09A00564B08
:10216000D3181B689F46534B1B681A0053495448A9
:10217000FA239B0000930023FFF77EFF02004D4BE4
:102180001B689A4200D085E0052000F077FB81E0D3
:10219000C046484B1B681A004A494A48FA23DB00EC
:1021A00000930023FFF768FF0200424B1B689A422E
:1021B00003D1032000F062FB6EE0434B1B78012249
:1021C0005340DBB2002B67D03A4B03221A6063E026
:1021D000C046384B1B681A003C493D48FA231B0196
:1021E00000930023FFF748FF0200324B1B689A421E
:1021F00003D1052000F042FB50E0334B1B78012255
:102200005340DBB2002B49D02A4B04221A6045E030
:10221000284B1B681A002D492E482F4B0093002392
:10222000FFF72AFF0200234B1B689A420BD10120C3
:1022300000F024FB294B08221A60E1235B021800FE
:1022400000F052F82CE0204B1B7801225340DBB207
:10225000002B25D0174B01221A6021E0154B1B687B
:102260001A0016491E48FA23DB0000930023FFF7EB
:1022700003FF02000F4B1B689A4213D1062000F0A7
:10228000FDFA0FE0174B02221A70012000F0F6FA57
:10229000C04608E0C04606E0C04604E0C04602E092
:1022A000C04600E0C046C046BD4680BD4308002091
:1022B0000008005000000020587D0108887C0108BB
:1022C000947C0108A07C010821030020A47C010863
:1022D000AC7C0108B87C0108B80B000004000020A9
:1022E000C47C01085000002080B582B000AF786047
:1022F000C046BD4602B080BD80B584B002AFFB1DB4
:1023000000221A70244B0022402118000EF0C1F95F
:10231000224B1B68012B02D0022B33D037E01F4B1E
:102320001B681A001E491F48FA23DB000093002394
:10233000FFF7A2FE0200194B1B689A4226D11A4BE6
:102340003D21180015F03AFC03003B60FB1D002204
:102350001A700FE0FB1D1B7801333A68D218FB1D81
:102360001B7802331178114AD154FB1D1A78FB1DDA
:1023700001321A70FB1D1B780B2BEBD9074B022285
:102380001A6003E00A4B03221A7000E0C046C04600
:10239000BD4602B080BDC0460008005000000020CD
:1023A000E07C0108EC7C0108800900201C0D002065
:1023B0005000002080B582B000AFC046554B0022CF
:1023C000402118000EF065F9FFF7EEFD524B1B7827
:1023D000002B00D1B9E1504B00221A704F4B5B78B3
:1023E000002B02D04D4B01229A704D494D4B0222D9
:1023F000180015F0CDFB031E02D14B4B21221A70A1
:102400004A49484B0222180015F0C2FB031E02D1B4
:10241000454B5C221A704649424B0222180015F0C7
:10242000B7FB031E02D1404B80221A7041493D4B3D
:102430000222180015F0ACFB031E02D13A4B3D22DC
:102440001A703D49374B0222180015F0A1FB031EFC
:1024500006D13A4BFF221A7000F026FA00F032FA49
:102460003749304B0222180015F092FB031E12D19F
:10247000C046344B1A78344B1A70334B1A78334BAE
:102480001A70334B01221A70314B1A782F4B1100FE
:102490001800FFF765FD2F49224B0222180015F0A6
:1024A00077FB031E6CD1C046274B1A78FB1D0F210A
:1024B0000A401A70FB1D1B780B2B05D9224B1A788A
:1024C000FB1D07210A401A70FB1D1B780233224AAC
:1024D000D25C1D4B1B78D31ADAB2BB1D013A1A70BD
:1024E000104B9B78BA1D12789A4239D11B4B72223D
:1024F0001A70164BF1221A70144B3D225A70144B6D
:1025000002221A70124B1A78104B11001800FFF7B4
:1025100027FD35E00008005022030020180E00209F
:10252000F87C010880090020600D0020FC7C010877
:10253000007D0108047D0108087D0108230E0020AC
:102540000C7D01083103002030030020740D0020B1
:102550006E0D0020107D01081C0D002032030020AC
:102560008D4BF1221A708C4B3E225A708B4B0222FB
:102570001A708A4B1A78884B11001800FFF7F0FC8C
:10258000874B1B78722B04D0864B1B78002B00D115
:10259000DBE08549854B0222180015F0F9FA031E8D
:1025A00002D1834B60221A708249804B02221800AC
:1025B00015F0EEFA031E02D17D4B61221A707E499E
:1025C0007A4B0222180015F0E3FA031E02D1784B71
:1025D00053221A707949754B0222180015F0D8FA67
:1025E000031E02D1724B50221A7075496F4B0222A2
:1025F000180015F0CDFA031E02D16D4B51221A704E
:1026000070496A4B0222180015F0C2FA031E02D16B
:10261000674B46221A706C49644B0222180015F071
:10262000B7FA031E02D1624B49221A7067495F4B09
:102630000222180015F0ACFA031E02D15C4B4A22AC
:102640001A706349594B0222180015F0A1FA031EB3
:1026500002D1574B54221A705E49544B0222180083
:1026600015F096FA031E02D1514B80221A705A4976
:102670004E4B0222180015F08BFA031E02D14C4B70
:102680003D221A705549494B0222180015F080FA74
:10269000031E02D1464B55221A705149434B022268
:1026A000180015F075FA031E02D1414B56221A701C
:1026B0004C493E4B0222180015F06AFA031E02D163
:1026C0003B4B57221A704849384B0222180015F02C
:1026D0005FFA031E02D1364B58221A704349334B1E
:1026E0000222180015F054FA031E02D1304B592271
:1026F0001A703F492D4B0222180015F049FA031EAB
:1027000002D12B4B5A221A703A49284B0222180048
:1027100015F03EFA031E02D1254B5B221A70364992
:10272000224B0222180015F033FA031E02D1204B6F
:102730005C221A7031491D4B0222180015F028FA4C
:10274000031E02D11A4B5F221A7004F04DF90300E8
:102750001A002B4B1B68D31A072B18D904F044F925
:1027600003001A00264B1A60264B1B78552B02D10A
:10277000C04607F0F7FF234B1B78552B07D1C04607
:10278000064B1A78044B11001800FFF7E9FBC0460E
:10279000BD4602B080BDC046740D00206E0D002005
:1027A00032030020230E0020147D01088009002040
:1027B000600D0020187D01081C7D0108207D0108A6
:1027C000247D0108287D01082C7D0108307D010849
:1027D000347D0108007D0108047D0108387D010871
:1027E0003C7D0108407D0108447D0108487D0108C9
:1027F0004C7D0108507D0108FC7C0108547D0108D6
:102800002C030020550D002080B500AF164B1B781F
:10281000002B26D080231B01144A190010000DF054
:102820001BFF031E14D0124B1B78322B05D8104B04
:102830001B780133DAB20E4B1A700D4B1B78322B1A
:102840000FD10C4B01221A70094B33221A7008E089
:10285000074B00221A70074B00221A70064B002209
:102860001A70C046BD4680BD4008002000040050DC
:1028700028030020440800203203002080B582B0E5
:1028800000AF0200FB1D1A70054B00221A70FB1DE1
:102890001A78044B1A60C046BD4602B080BDC046DF
:1028A000210300200000002080B500AF044BF1227E
:1028B0001A70034B3D225A70C046BD4680BDC046CB
:1028C0001C0D002080B500AF0B4B0C4A1A600C4B5E
:1028D0000A4A1A600B4B0C4A1A600C4B02221A70FF
:1028E0000B4B0122DA700B4B55221A700A4B002257
:1028F0001A70C046BD4680BD500D00201C0D002042
:10290000480D00204C0D00201D0D00206C0D0020F6
:10291000580D0020550D0020600D002080B500AF3F
:10292000404B5B78002B06D03F4B0122082118005A
:102930000DF0AFFE05E03C4B0022082118000DF021
:10294000A8FE384B1B78002B08D080239900A023C9
:10295000DB05012218000DF09CFE07E080239900A2
:10296000A023DB05002218000DF093FE2D4B9B7871
:10297000002B07D080239B002B48012219000DF06B
:1029800088FE06E080239B002748002219000DF0F6
:1029900080FE244B1B79002B08D080235900A023F4
:1029A000DB05012218000DF074FE07E080235900BA
:1029B000A023DB05002218000DF06BFE1B4B1B78DB
:1029C0000133DAB2194B1A70164BDB78002B0ED09C
:1029D000164B1B781A000123134008D08023D9001E
:1029E000A023DB05012218000DF053FE07E0802331
:1029F000D900A023DB05002218000DF04AFE0C4B85
:102A00001B780133DAB20A4B1A70094B1B78272B5B
:102A100004D9C046C046064B00221A70C046BD46C7
:102A200080BDC046940A002000080050870A00209C
:102A3000FA0A002080B500AF464B1B7801225340B4
:102A4000DBB2002B14D1444B5B78002B0AD1424BF4
:102A50001B7801225340DBB2002B0ED13E4B0122EA
:102A60005A7000E0C0463D4B180001F090FE05E0B2
:102A7000C046394B01221A7000E0C046354B5B78E6
:102A800001225340DBB2002B14D1334B9B78002B37
:102A90000AD1314B1B7801225340DBB2002B0ED1FF
:102AA0002D4B01229A7000E0C0462D4B180001F01A
:102AB0006EFE05E0C046284B00229A7000E0C0463A
:102AC000284B1B7801225340DBB2002B14D1224B40
:102AD000DB78002B0AD1204B1B7801225340DBB25C
:102AE000002B0ED11C4B0122DA7000E0C0461E4BB9
:102AF000180001F04CFE05E0C046174B0022DA70CA
:102B000000E0C046134B9B7801225340DBB2002B00
:102B100014D1114B1B79002B0AD10F4B1B780122CA
:102B20005340DBB2002B0ED10B4B01221A7100E097
:102B3000C0460E4B180001F02AFE05E0C046064BC9
:102B400000221A7100E0C046034B00221A70C046F2
:102B5000BD4680BDE00A0020980B0020920B0020AB
:102B6000930B00201C0B0020940B0020950B0020E1
:102B700080B500AFC0464B4B00221A604A4B1B8801
:102B8000032213409BB2002B09D1484B1B78022B28
:102B900005D9444B1B68464A9A18424B1A60434B6E
:102BA0001B78002B13D0414B1B785A1E414B9200CF
:102BB000D25813005B009B181A01D21A13019B1AFA
:102BC000DB011A00374B1B68D218364B1A60364BA4
:102BD0001B88394A9A1813005B029B189B009B18AC
:102BE000DB009B181A01D21AD3011A0013001A0035
:102BF0002C4B1B68D2182B4B1A602B4B1B882F4A6F
:102C000094466344002B00DA03339B10DAB22C4B5A
:102C10001A702B4B1B781A0013005B009B181A01CB
:102C2000D21A13019B1ADB011A001E4B1B68D21823
:102C30001C4B1A60234B1B785A1E13005B009B1819
:102C40001A01D21A13019B1ADB011A00154B1B68DB
:102C5000D218144B1A601C4B1B781A0013001B016E
:102C60009B1A1A01D21A13011A000E4B1B68D218B4
:102C70000C4B1A60154B1B781A0013001B019B1A92
:102C80009B001A00074B1B68D218064B1A60104BAA
:102C90001B781A00034B1B68D218024B1A60C046FF
:102CA000BD4680BDD40F0020CC0F0020CE0F0020E9
:102CB00080510100BC0100204EF8FFFF4FF8FFFFDC
:102CC000D80F0020CF0F0020D00F0020D10F002000
:102CD000D20F002090B585B000AF78600A00FB1CD1
:102CE0001A700E23FB1800221A800D23FB180022F5
:102CF0001A7011E00D203B181B787A68D3181B78E6
:102D000019000E22BB18BA1812888A181A803B18AC
:102D10001A783B1801321A700D23FA18FB1C12782E
:102D20001B789A42E6D30E243B191A88FB1C1B78A9
:102D300019001000FDF77AFA03001A003B191A80F7
:102D40003B191B881800BD4605B090BDB0B586B0D4
:102D500002AFDC4B5B7801225340DBB2002B33D156
:102D6000D94B01225A70D94B14221A70D84B002229
:102D70001A70D84B00221A700F23FB1800221A7009
:102D80000AE00F203B181B78D34A0021D1543B188E
:102D90001A783B1801321A700F23FB181B78072B87
:102DA000EFD9CE4BBB60CE4B7B60BB681A787B689B
:102DB0001A70BB680133BB607B6801337B607A6843
:102DC000C84B9A4202D8F0E7C04600E0C046BE4B6E
:102DD0005B78002B01D100F021FCC046FB1C0022D7
:102DE0001A700DE0FB1C1B78BF4AD35C01225340D4
:102DF000DBB2002B0CD1FB1C1A78FB1C01321A70C1
:102E0000FB1C1B78072BEDD9B04B14221A7000E085
:102E1000C046AE4B1B78002B01D100F0EAFBC04648
:102E2000A94B9B7801225340DBB2002B14D1A64B57
:102E30001B79002B00D165E2C046C046AB4B1B7826
:102E400007221340DAB2AA4B1A70A94B1B78042B45
:102E500001D900F0BCFBFDE2C0469B4BDB780122B0
:102E60005340DBB2002B00D1CCE0C0469E4B002289
:102E70005A709D4B00225A71964B1A789C4B1A70CF
:102E80009C4B09221A809C4B00221A8000F0D2FB36
:102E90009A4B1A788F4B1A708E4B1B780F22134067
:102EA000DAB2934B1A70924B1B78092B40D89A00D8
:102EB000934BD3181B689F46C0462521052001F07F
:102EC00071FD3AE0C0460F210D2001F06BFD34E0AA
:102ED000C0460A21202001F065FD2EE0C0460B21EE
:102EE000202001F05FFD28E0C0460F21002001F006
:102EF00059FD22E0C0460521252001F053FD1CE0CC
:102F0000C04627210F2001F04DFD16E0C0460A21E2
:102F10000F2001F047FD10E0C0460E21052001F012
:102F200041FD0AE0C0460E211F2001F03BFD04E0F8
:102F3000C0462621262001F035FD01F04DFD6A4BEB
:102F40009B7801225340DBB2002B57D15E4B01220C
:102F5000DA70604B1B78092B00D14CE3C0465D4B07
:102F60001B78082B4CD15C4B1B7801225340DBB201
:102F7000002B03D1634B01221A7000E0C046564B70
:102F80005B7801225340DBB2002B2FD1524B002241
:102F90005A70534B39229A5C514B5A70504B3A221B
:102FA0009A5C4F4B9A704E4B3B229A5C4C4BDA70BA
:102FB0004B4B3C229A5C4A4B1A71494B3D22995C1F
:102FC000474B2D229954464B3E22995C444B2E226E
:102FD0009954434B3F22995C414B2F229954404BCB
:102FE0004022995C3E4B3022995400E0C046464B4B
:102FF00000221A70454BAA221A70FFE2C0460EE367
:10300000C0460CE3C046334B1B780F221340DAB2A4
:10301000374B1A70364B1B78092B00D92FE19A00D9
:103020003B4BD3181B689F46C0463A4B180000F034
:10303000DBFB03001C00384B180000F0D5FB03003D
:103040001D00364B180000F0CFFB03001A000223CE
:10305000009301232900200001F0F8FC14E1C04690
:103060002F4B180000F0C0FB03001A00042300934C
:1030700003230021632001F0E9FC05E1C046254B54
:10308000180000F0B1FB030096331C00234B18001E
:1030900000F0AAFB03001D00214B180000F0A4FB68
:1030A0000300EB180A331D001E4B180000F09CFBB8
:1030B00003001A002E2300932D232900200001F085
:1030C000C5FCE1E0540B0020240B0020AE0A0020D8
:1030D0003C0B00203B0B0020840B002000F0030879
:1030E0003C010020BB0100202C0B00203A0B0020EB
:1030F0003C0800203E0B0020400B0020930A0020DB
:10310000707D01088C0B0020A00B00209F0B00207D
:10311000987D01084B010020490100203D0100205D
:103120003F01002069010020C046D84B180000F084
:103130005BFB03000A3B1C00D54B180000F054FB5E
:103140000300963B1D00D34B180000F04DFB03001D
:103150001A00302300932F232900200001F076FC71
:1031600092E0C046CC4B1B78002B04D1CA4B1B7994
:10317000002B0CD000E0C046C84B1B780122534006
:10318000DBB25A1E9341DAB2C44B1A7000E0C0465B
:103190000121282001F006FCC04B1B78012253407E
:1031A000DBB2002B04D11D21002001F0FBFB00E06D
:1031B000C04601F011FC67E0C0460521252001F062
:1031C000F1FBB74B63221A80B64B00221A80B64B34
:1031D0001A78B64B1A7000F02DFAB54B1A78B24B2C
:1031E0001A7000F035FD01F0F7FB4DE0C046B14B21
:1031F0007B229C5CAF4B7C229B5C0A211800FCF775
:103200008BFF0300DBB21900200001F0CBFB3BE099
:10321000C046A14B1B78002B04D19F4B1B79002B80
:103220000CD000E0C0469D4B5B7801225340DBB2DE
:103230005A1E9341DAB2994B5A7000E0C046012100
:10324000282001F0AFFB954B5B7801225340DBB2A5
:10325000002B04D11D21002001F0A4FB00E0C0469A
:1032600001F0BAFB10E0C0460E21052001F09AFBE8
:103270000AE0C0460E211F2001F094FB04E0C04686
:103280002621262001F08EFB834B9B7801225340A0
:10329000DBB2002B2ED1884B0022DA70874B1B78D3
:1032A000052B29D1864B73229A5C7F4B1B789A425F
:1032B00024D17A4980480323022206F0DBFF814BA8
:1032C00000221A707C4B1B7801225340DBB2002B8A
:1032D00003D1724B0122DA7000E0C0466F4B00222E
:1032E0001A71774B52229B5C202B09D16B4B012228
:1032F0001A7194E1C04692E1C04690E1C0468EE169
:10330000C0468CE1C046644963480523012206F0AB
:10331000CCFF6C4B1A78654B1A70614B04221A80F3
:10332000604B00221A8000F085F9614B1A78654BDA
:103330001A70644B1B7807221340DAB25B4B1A7089
:103340005A4B1B78042B22D89A005F4BD3181B686A
:103350009F46C0460F21002001F024FB1CE0C04620
:103360002721112001F01EFB16E0C0461D21272059
:1033700001F018FB10E0C0460E21052001F012FB01
:103380000AE0C0460E211F2001F00CFB04E0C046FD
:103390002621262001F006FB01F01EFB3E4B9B7808
:1033A00001225340DBB2002B50D1434B01221A7152
:1033B000444B1B78042B00D11FE1C046414B1B78C6
:1033C000032B45D13C4B00221A70344BDB78012291
:1033D0005340DBB2002B03D1374B01221A7000E0BF
:1033E000C0462E4B9B7801225340DBB2002B03D109
:1033F000364B78221A7000E0C046354B522200212D
:103400009954264B1B7901225340DBB2002B04D187
:103410002F4B52222021995400E0C0462C4B5222BF
:103420009A5C244B52215B5C9A420DD0284B52226D
:103430009A5C284B1A70274B1B781A00264B1900F0
:10344000100001F0A1FAD9E0C046D7E0C046E6E09E
:10345000C046E4E09A00214BD3181B689F46C04643
:103460000D4B1B78002B04D10B4B1B79002B37D055
:1034700000E0C046094B9B781A00022353405A1EB5
:103480009341DAB2054B9A702BE0C0463D01002013
:10349000490100206B0100202C0B0020840B002030
:1034A0003E0B0020400B00203C0B00203C0800207D
:1034B000930A002000F00308240B00203B0B00209F
:1034C000BC0000203A0B0020C07D01088D0B0020BD
:1034D0003C010020920A002052F00308D47D01082C
:1034E000C0460121282001F05DFA4F4B9B78012254
:1034F0005340DBB2002B04D11D21002001F052FA11
:1035000000E0C04601F068FA66E0C046474B1B7811
:10351000002B04D1454B1B79002B0CD000E0C0469A
:10352000414BDB7801225340DBB25A1E9341DAB2A1
:103530003D4BDA7000E0C0460F21002001F032FA66
:10354000394BDB7801225340DBB2002B04D11D2123
:10355000002001F027FA00E0C04601F03DFA3BE010
:10356000C046324B1B78002B04D1304B1B79002B0B
:103570000CD000E0C0462C4B1B7901225340DBB23B
:103580005A1E9341DAB2284B1A7100E0C0460C2152
:10359000292001F007FA244B1B7901225340DBB2AA
:1035A000002B04D10F21292001F0FCF900E0C046D6
:1035B00001F012FA10E0C0460E21052001F0F2F9E8
:1035C0000AE0C0460E211F2001F0ECF904E0C046DD
:1035D0002621262001F0E6F9144B9B780122534066
:1035E000DBB2002B03D1124B00221A7117E0C04648
:1035F00015E0C04602E0C04600E0C0460C490C4859
:103600000323012206F051FE09490948022305223D
:1036100006F04BFE064B00221A7100E0C046C04681
:10362000BD4604B0B0BDC046840B00202C0B00206A
:10363000240B002080B500AF064B01229A71064B87
:103640001B781A00054B1A8000F00AF8C046BD46E8
:1036500080BDC046240B00203C0800203E0800200E
:1036600080B500AF4B4B1B78002B21D1494B1B7908
:10367000002B4FD1484B1B78002B17D1464B1922FA
:103680001A70464B1B78002B03D1434B0A221A7049
:1036900000E0C0463F4B5B78002B0BD13D4B5B7984
:1036A000002B39D13D4B05221A7067E0C04665E01A
:1036B000C04600E0C0463A4B1B881AB2394B1B8803
:1036C0001BB29A4204DB384B1A88354B1A8052E001
:1036D000C046364B9B79002B0AD1314B1B881BB25D
:1036E000632B0DDC2E4B1B881BB264330ADB00E01E
:1036F000C0462B4B1B8801339AB2294B1A803AE003
:10370000C04600E0C046264B1B880A339AB2244BC1
:103710001A8030E0C04600E0C046214B1B881AB238
:10372000214B1B881BB29A4204DC1E4B1A881C4B8F
:103730001A8020E0C0461D4B9B79002B0AD1184B04
:103740001B881BB2642B0DDC154B1B881BB263332B
:103750000ADB00E0C046124B1B88013B9AB2104BBB
:103760001A8008E0C04600E0C0460D4B1B880A3BAB
:103770009AB20B4B1A800E4B1E221A700B4B002272
:103780009A71074B1B88DAB20A4B1A70C046BD46C5
:1037900080BDC0462C0B00205E0B0020AF0A00202D
:1037A0003E0800203E0B0020400B0020240B002090
:1037B000AE0A0020930A002080B582B000AF084B0B
:1037C0001B781B029AB2074B1B781900BB1D5218BD
:1037D0001A80BB1D1B881800BD4602B080BDC046C4
:1037E000EC0A0020ED0A002080B584B000AF7860BC
:1037F0007B681B781B029AB27B6801331B78190027
:103800000E203B1852181A803B181B881800BD4622
:1038100004B080BD80B500AFC046C046C046BD46BE
:1038200080BD000080B500AF054B49229B5C1A00AB
:103830003C2353439AB2034B1A80C046BD4680BD19
:10384000BC000020A20A002080B500AF0B4B46222E
:103850009B5C1B01DAB20A4B1A70084B56229B5C28
:103860001A00074B1B78DB08DBB253439AB2054BB7
:103870001A80C046C046BD4680BDC046BC00002080
:10388000F20A0020F80A002080B582B000AFBB1D0C
:1038900000221A80BB1D0E4A12881A80BA1DBB1D59
:1038A0001B88DB181380BA1DBB1D1B88DB18138017
:1038B000BB1D1B88DAB2074B1A70BB1D1B881B0A85
:1038C0009BB2DAB2044B1A70C046BD4602B080BD4E
:1038D0008A0A0020920A0020930A002080B500AFD7
:1038E000034B1B88180000F0AFF8C046BD4680BDF2
:1038F000E80A002080B582B000AFBB1D00221A800C
:10390000074B1988074B1A88BB1D8A1A1A80BB1DE2
:103910001B88180000F098F8C046BD4602B080BD74
:10392000EA0A0020E80A002080B500AF094B6522B2
:103930009A5C094B1A7000F09FF9084B1B781B0228
:103940009BB2074A12789B189AB2064B1A80C0465F
:10395000BD4680BDBC000020930A0020850A0020DF
:10396000860A00209E0A002090B583B000AFBB1DE0
:1039700000221A80BB1D314A12881A80304B180071
:10398000FFF732FF03001900BB1DBA1D12888A1809
:103990001A802C4B52229B5C202B45D1BB1D002250
:1039A0009B5E002B22DABB1DBA1D128852421A8080
:1039B000BB1DBA1D128852081A80BA1DBB1D1B8878
:1039C000191CC900CB18DB181380BC1DBB1D1B883C
:1039D00005211800FCF7A0FB03002380BB1DBA1DC6
:1039E0001288A02149008A1A1A801EE0C046BB1D19
:1039F000BA1D128852081A80BA1DBB1D1B88191CDB
:103A0000C900CB18DB181380BC1DBB1D1B8805210A
:103A10001800FCF781FB03002380BB1DBA1D128830
:103A20004132FF321A8000E0C046BB1D1B881800DF
:103A300000F00AF8C046BD4603B090BDF00A002071
:103A4000C1000020BC00002080B584B000AF02009F
:103A5000BB1D1A8000F0CEFA0F23FB1800221A704B
:103A60000E23FB1800221A70BB1D00229B5E002B48
:103A700008DABB1DBA1D128852421A80454B01223A
:103A80005A7000E0C046BB1D1B880A211800FCF7D5
:103A9000C9FB0B009AB20E23FB181A70BB1D1B88C2
:103AA0000A211800FCF738FB03009AB20F23FB1819
:103AB0001A70384B5B7801225340DBB2002B16D1D1
:103AC000354B23221A70354B5B7801225340DBB211
:103AD000002B03D1304B64221A7000E0C0462E4BFD
:103AE0001B780F22BA1812789A4218D33DE0C046CC
:103AF000294B63221A70294B5B7801225340DBB2B9
:103B0000002B03D1244B64221A7000E0C046224BE4
:103B10001B780F22BA1812789A4225D200E0C046CC
:103B20000F217B181B78092B0DD8C046194B012299
:103B30001A700E23FB181A787B181B7811001800D6
:103B400000F030FF21E0C046134B0F22BA18127864
:103B50001A7000F091F8124B1A780F4B1B7819006D
:103B6000100000F01FFF10E0C0460E4B1B88DBB2B8
:103B70001A002023134002D100F03CFA05E0C046B1
:103B80001121102000F00EFFC046C046BD4604B013
:103B900080BDC046CC0A0020930A0020240B0020E0
:103BA000920A00208A0A002080B584B000AF02008B
:103BB000FB1D1A700F217B1800221A70FB1D1B7849
:103BC000092B0CD8C046104B01221A707B181A78AA
:103BD000FB1D1B781100180000F0E4FE0FE0C0464A
:103BE0000A4BFA1D12781A7000F046F8084B1A7842
:103BF000064B1B781900100000F0D4FEC046C046EA
:103C0000BD4604B080BDC046CC0A0020930A002007
:103C1000920A002080B582B000AF0200FB1D1A702E
:103C2000094BFA1D12781A7000F026F8074B1A7823
:103C3000054B1B781900100000F0B4FEC046C046CA
:103C4000BD4602B080BDC046930A0020920A002003
:103C500080B500AF00F010F8054B1A78054B1B78C3
:103C60001900100000F09EFEC046C046BD4680BD53
:103C7000920A0020930A002080B500AF114B002269
:103C80001A70114B1B781A00104B1A800F4B1B88AF
:103C9000DBB20A211800FCF7C5FA0B00DAB20A4BB6
:103CA0001A700A4B1B88DBB20A211800FCF734FAA1
:103CB0000300DAB2034B1A7000F00AF8C046BD46A2
:103CC00080BDC046920A0020930A00203E080020D2
:103CD00080B582B000AFBB1D00221A80114B1B784B
:103CE000BA1D191C0B1CDB185B18DB1813800E4B5C
:103CF0001B781A003C23534399B2BB1DBA1D12888E
:103D00008A181A80BB1D1B881B0A9BB2DAB2074BAC
:103D10001A70BB1D1B88DAB2054B1A70C046BD462F
:103D200002B080BD930A0020920A0020850A00207C
:103D3000860A002080B582B000AFA34B00221A7023
:103D4000A24B1B78002B01D1C04638E1C0469F4BE7
:103D50001B78012B03D09E4B00225A7100E0C04615
:103D600000237B6014E09B4A7B68D3181A789A4939
:103D70007B68CB181B781343DAB298497B68CB1861
:103D80001B781343DBB2002B07D17B6801337B60C8
:103D90007B68072BE7DDC046D7E7C046904B1B7812
:103DA000002B2CD18A4B01225A71874B01221A70A9
:103DB0008C4B1F221A70874B1B7801225340DBB2B9
:103DC000002B09D0C046834B5B78002B19D0C0462E
:103DD000844B1F221A7000E0C04600F01DFB00F06B
:103DE00037FB00F0F9FD804B13221A707D4B1A78D7
:103DF0007D4B1B781900100000F0D4FDDFE0C046B9
:103E0000DDE0C046734BDB7901225340DBB2002B6F
:103E100005D1012227211F2000F0ECFD00E0C04663
:103E20006C4B9B7901225340DBB2002B05D1012260
:103E30002721262000F0DEFD00E0C046664B1B78FF
:103E400001225340DBB2002B05D100222F210E208E
:103E500000F0D0FD00E0C046604B1B7801225340CB
:103E6000DBB2002B05D101220A210B2000F0C2FD9C
:103E700000E0C046574B5B79002B07D1564BDB79EE
:103E800001225340DBB2002B07D100E0C0460122E3
:103E900013211F2000F0AEFD00E0C0464E4B1B7901
:103EA000002B07D14C4B5B7901225340DBB2002B36
:103EB00007D100E0C046012213211F2000F09AFD27
:103EC00000E0C046434B9B78002B07D1414BDB7889
:103ED00001225340DBB2002B07D100E0C046012293
:103EE00013211F2000F086FD00E0C046394B1B79EE
:103EF00001225340DBB2002B05D101221E211F20DD
:103F000000F078FD00E0C046334B9B79012253401E
:103F1000DBB2002B05D101220A211F2000F06AFD2F
:103F200000E0C0462C4B9B7801225340DBB2002BB3
:103F300005D101220C21202000F05CFD00E0C046EC
:103F4000254BDB7801225340DBB2002B05D1012247
:103F50000B21202000F04EFD00E0C0461E4B5B7898
:103F600001225340DBB2002B05D101220C211F207E
:103F700000F040FD00E0C046144B1B78012B0CD034
:103F80001A4B1B881B0A9BB2DBB2194A5A21525C9E
:103F90001340DBB2002B11D100E0C046C046124BEB
:103FA0001A78104B1B781900100000F0FBFC084B2E
:103FB00000221A70064B00225A7000E0C046C0462C
:103FC0001800BD4602B080BDD40E0020D40A0020E7
:103FD000CC0A0020C40A0020BC0A0020E40F002004
:103FE000140B0020920A0020930A00208A0A002065
:103FF000BC00002080B500AF1F211F2000F0D2FCC4
:10400000044B00221A70034B00225A70C046BD4672
:1040100080BDC046CC0A0020F0B5ADB000AFBA4BB1
:104020001B78AA2B00D062E1C046B84B18000EF0F6
:1040300003FDB74B1B68F822120694466344A42282
:10404000B9180B60BB181B685B055B0D30D1BB1842
:104050001B68DB0AA0257A19136000239422BA1882
:10406000136084243B19180010231A00002113F058
:104070009DFD21007A180123D3607A187B191B68F3
:1040800093607A1802231360C0460BF0A7FD031E4D
:10409000FBD1142380229B18DA198423FB1811000A
:1040A00018000BF08FFEC0460BF0BCFD031EFBD1C9
:1040B000974B1B68AC22BA1813602B2380229B18E5
:1040C000DA190023137008E1924B1B681B789824BF
:1040D0003A19136000239C22BA1813608D4B1B6899
:1040E0005A1C8C4B1A608B4B1B681B78BB660023D9
:1040F000FB66B96EFA6E0B001B0E10000002F8672B
:10410000F86F1843F8670B001B02BB673B191A686E
:104110005B68B86FF96F12184B4139190A604B6030
:104120007C4B1B685A1C7B4B1A607A4B1B681B78B4
:104130003B6600237B66396E7A6E0B001B0C100009
:1041400000047867786F184378670B001B043B679F
:104150003B191A685B68386F796F12184B41210060
:104160003819026043606B4B1B685A1C694B1A601C
:10417000684B1B681B78BB650023FB65BB6DFC6D42
:104180001A00120A7A651B063B650C007B181A6838
:104190005B68386D796D12184B4121007818026008
:1041A00043605C4B1B685A1C5A4B1A60594B1B6886
:1041B0001B78BB640023FB64BB6C1B007B64002387
:1041C0003B640C007B181A685B68386C796C1218B9
:1041D0004B4121007818026043604E4B1B685A1C0B
:1041E0004C4B1A604B4B1B681B78BB630023FB6373
:1041F000BB6B1B027B6300233B630C007B181A68BC
:104200005B68386B796B12184B412100781802609B
:104210004360404B1B685A1C3E4B1A603D4B1B6869
:104220001B78BB620023FB62BB6A1B047B6200231A
:104230003B620C007B181A685B68386A796A12184E
:104240004B412100781802604360324B1B685A1CB6
:10425000304B1A602F4B1B681B78BB610023FB613E
:10426000BB691B067B6100233B610C007B181A684D
:104270005B683869796912184B4139190A604B60DB
:10428000244B1B685A1C234B1A60C0460BF0A6FC3B
:10429000031EFBD1AC23FB1819689823FB181A687E
:1042A0005B6801200BF04CFCC0460BF0BBFC031E0E
:1042B000FBD1AC22BB181B680833BA181360134B30
:1042C00018000EF0B9FBC0462B2280215318DB19D1
:1042D0001B785218D219013313702B2380229B189C
:1042E000DB191B780F2B00D8EEE6C04686E0C046EF
:1042F000064B18000EF0A0FB2A2380229B18DB1926
:1043000000221A7072E0C046C80C0020B8040020D9
:10431000CC0C0020D00C00203C4B1B68AC22BA18FF
:1043200013603B4B1B681B7898217A18136000239D
:104330009C22BA181360364B1B685A1C344B1A6007
:10434000334B1B681B781B021C0000231D007B18CD
:104350001A685B6812196B417818026043602C4B35
:104360001B685A1C2A4B1A60294B1B681B781B04BC
:10437000BB600023FB600E007B181A685B68B8689E
:10438000F96812184B413100781802604360204BE5
:104390001B685A1C1E4B1A601D4B1B681B781B06A2
:1043A0003B6000237B600E007B181A685B683868EE
:1043B000796812184B41B9190A604B60144B1B689D
:1043C0005A1C134B1A60114B1B681A1D0F4B1A60B5
:1043D000104B18000EF030FBC0462A2180200B182D
:1043E000DB191A780B18DB1901321A702A23802284
:1043F0009B18DB191B781F2B8ED9C046054B180064
:104400000EF01AFBC046BD462DB0F0BDCC0C00200E
:10441000D00C0020B804002080B582B000AFBB1DD6
:1044200000221A80084B6F229B5C1900BB1DB4222E
:1044300052004A431A80054BBA1D12881A80C046A2
:10444000BD4602B080BDC04600F003086C0B0020E2
:1044500080B582B000AFBB1D00221A80084B7022CD
:104460009B5C1900BB1DB42252004A431A80054BC5
:10447000BA1D12881A80C046BD4602B080BDC04633
:1044800000F003086E0B002080B500AF054B4B22F7
:104490009B5C1A003C2353439AB2034B1A80C046DC
:1044A000BD4680BD00F00308800B002080B582B0BF
:1044B00000AF164B1B683B60154B1B78DB019AB2B3
:1044C000144B1A80144B1B68124A12889B187B608D
:1044D000124B00221A707B681A783B681A707B684E
:1044E00001337B603B6801333B600C4B1B7801332D
:1044F000DAB20A4B1A70094B1B785BB2002B00DB57
:10450000E9E7C046C046BD4602B080BDE00C0020D1
:10451000D60C00203E080020DC0C0020930A00206E
:1045200080B582B000AF174B1B687B60164B1B88B1
:104530001B0A9BB2DAB2154B1A70144B1B781A0087
:104540007B681900100000F01FFA114B18000EF0E4
:1045500073FA0D4B1B88DAB20C4B1A707B6804336C
:104560007B600A4B1B781A007B681900100000F072
:104570000BFA074B18000EF05FFAC046BD4602B0BA
:1045800080BDC0467C0F00207A0F0020920A0020D8
:10459000B804002080B500AF254B1B881B0A9BB2D6
:1045A000DAB2244B1A70234B1B781A00224B1900E5
:1045B000100000F0E9F9214B18000EF03DFA1C4BF9
:1045C0001B88DAB21B4B1A701A4B1B781A001C4B53
:1045D0001900100000F0D8F9184B18000EF02CFA52
:1045E000184B1B881B0A9BB2DAB2124B1A70114B84
:1045F0001B781A00144B1900100000F0C5F90F4B7E
:1046000018000EF019FA0F4B1B88DAB2094B1A701A
:10461000084B1B781A000D4B1900100000F0B4F97C
:10462000064B18000EF008FAC046BD4680BDC046D5
:10463000EC0C0020920A002084F00308B80400204B
:1046400085F00308EE0C002086F0030887F00308CD
:1046500080B584B000AF78600A00FB1C1A7011E0CE
:104660000F217B187A6812781A707B181B78180053
:1046700000F060F87B6801337B60FB1C1A78FB1C40
:10468000013A1A70FB1C1B78002BE9D1C046C046CA
:10469000BD4604B080BD000080B500AF054B4E2282
:1046A0009B5C1A003C2353439AB2034B1A80C046CA
:1046B000BD4680BDBC000020DC0E002080B582B06D
:1046C00000AF00237B6007E0074A7B68D318002215
:1046D0001A707B6801337B607B687F2BF4DDC046FA
:1046E000C046BD4602B080BDC80B002080B584B076
:1046F00000AF786039600023FB600CE07B681A78BB
:104700003B681A707B6801337B603B6801333B6018
:10471000FB680133FB60064B1B781A00FB68934271
:10472000ECDB034B00221A70C046BD4604B080BDCE
:10473000930A002080B582B000AF0200FB1D1A7002
:10474000C046FB1D1A78044B1B68D218024B1A6036
:10475000C046BD4602B080BD700D002080B500AFE0
:10476000FFF75AFCC046BD4680BD80B582B000AFA1
:1047700078607B681B88002B05D07B681B88013B19
:104780009AB27B681A80C046BD4602B080BD80B533
:1047900082B000AF78607B681B78002B05D07B6807
:1047A0001B78013BDAB27B681A70C046BD4602B086
:1047B00080BD000080B582B000AF404B00221A706F
:1047C0003F4B1B88002B07D13C4B1B780122134326
:1047D000DAB23A4B1A7000E0C046BB1D00221A80C4
:1047E000384B23229B5C1B029BB2364A2421525C2D
:1047F0009B189AB2BB1D1A80334B1B781B029BB2CD
:10480000324A12789B189AB2314B1A80304B1B886F
:104810001BB2BA1D0021525E9A4207DC274B1B785F
:1048200002221343DAB2254B1A7000E0C046254B32
:1048300059229B5C012B25D0264B1B781B029BB277
:10484000254A12789B189AB2214B1A801D4B2122BF
:104850009B5C1B029BB21B4A2221525C9B189AB2A2
:10486000BB1D1A801A4B1B881BB2BA1D0021525E59
:104870009A4209DC114B1B7810221343DAB20F4B1A
:104880001A7002E0C04600E0C046144B1B780122BB
:104890005340DBB2002B08D1084B1B7880225242D8
:1048A0001343DAB2054B1A7000E0C046034B1A7886
:1048B0000B4B1A70C046BD4602B080BD920A002064
:1048C000F60A0020BC000020EC0A0020ED0A0020BF
:1048D0003E080020EE0A0020EF0A0020B40A002063
:1048E000900A002080B582B000AF224B7B60224B43
:1048F0003B60224B1B78AA2B15D1C0461D4B1A7862
:104900001F4B1B789A421CD01D4B1B781A001D4B65
:104910009B5C18001A4B1B781A00174BD318190010
:1049200000F032F80EE0C046154B1B781A003B68C9
:104930009A18134B1B7819007B685B1812781A7051
:1049400000E0C0460E4B1B780133DAB20C4B1A70F4
:104950000B4B1B785BB2002B06DA084B00221A7057
:10496000074B00221A7000E0C046C046BD4602B0A8
:1049700080BDC046BC00002000F003089F0B002053
:10498000A00B00203C01002080B584B000AF0200E5
:104990003960FB1D1A70FB1D1B78FB60C046BD46CD
:1049A00004B080BD80B582B000AF0200FB1D1A705C
:1049B000BB1D0A1C1A70064BFA1D12781A70054BA3
:1049C000BA1D12781A70C046BD4602B080BDC046FE
:1049D0008F0A00208E0A002080B500AF044B002211
:1049E0001A70034B00225A70C046BD4680BDC046B7
:1049F000CC0A002090B583B000AF0400080011007D
:104A0000FB1D221C1A70BB1D021C1A707B1D0A1C88
:104A10001A700B4BFA1D12781A700A4BBA1D1278D5
:104A20001A707B1D1B78002B03D0074B01221A70D4
:104A300002E0054B00221A70C046BD4603B090BD8F
:104A4000930A0020920A0020D40E0020B0B582B054
:104A500000AF05000C0010001900BB1D2A1C1A80B5
:104A60003B1D221C1A80BB1C021C1A807B1C0A1CCA
:104A70001A70144BBA1D12881A80134B3A1D1288F3
:104A80001A80124BBA1C12881A80FEF7E9FD0F4BF0
:104A90001B881B0A9AB27B1C1B78D1B20C4AD154DA
:104AA0000A4B1A881823FB181B78D1B2084AD15434
:104AB000064B1B881800FEF7C7FFC046BD4602B074
:104AC000B0BDC0463E0B0020400B00203E08002039
:104AD0003C01002080B584B000AF794B1B78013BCE
:104AE000DAB2774B1A70764B1B78FF2B03D1754BDC
:104AF00000225A70DDE0724B1B78FE2B03D1714B04
:104B000001225A70D5E06E4B1B78002B00D0CDE00F
:104B1000C0466B4B05221A706B4B18000CF0DDF988
:104B20000300202B00D0AEE0684B00221A70684BC7
:104B30001B68BB60664B00221A600F23FB18002223
:104B40001A700AE00F203B181B78624A0021D154EA
:104B50003B181A783B1801321A700F23FB181B7888
:104B6000062BEFD95B4B07221A705A4B09225A7059
:104B7000594B1A78574B9A70584B1A78554BDA7034
:104B8000544B00221A710E23FB1800221A7015E0F4
:104B9000504B1A790E203B181B785149CB5C1900F9
:104BA0003B181B7899400B00DBB21343DAB2494B38
:104BB0001A713B181A783B1801321A700E23FB1831
:104BC0001B78072BE4D9434B00225A71414B7B6081
:104BD0007B6806211800FFF73BFD3D4B1B68DAB2EE
:104BE0003C4B9A713A4BBA681A603E4B1B78002BCB
:104BF00034D03D4A3448092354210BF09DFF031E55
:104C000023D10D23FB1800221A7015E0364B9B7937
:104C10001A000D203B181B781A41130001221A407C
:104C20003B181B78511E8A41D1B2304AD1543B18EF
:104C30001A783B1801321A700D23FB181B78072BCA
:104C4000E4D9284B00221A7033E01F4B18000BF0F8
:104C50003DFE1D4B18000BF093FD2AE01D4A1A483B
:104C6000072354210BF062FE031E03D11D4B0122CA
:104C70001A701EE0144B18000BF028FE124B18009F
:104C80000BF07EFD15E0114B1B780133DAB20F4BB0
:104C90001A700E4B1B78002B0AD10B4B18000BF02F
:104CA00015FE094B18000BF06BFD02E0C04600E05A
:104CB000C04600F01DF8C046BD4604B080BDC046E9
:104CC000B40B0020940A0020A4030020F20F00205F
:104CD000700D002008000020B50B0020B60B00204E
:104CE000B80B00203303002034030020C00B002049
:104CF00090B583B000AFB04B1B78012B01D100F011
:104D000033FCC046AD4B5B229B5C1A000123134071
:104D100004D0FFF781FBFFF79BFBCCE1C046A74B1C
:104D200053229B5C1A000823134045D0C046FB1D4C
:104D300000221A703AE0FB1D1A78A14B9200D0585D
:104D4000FB1D1B789F4AD35C012219000BF0A1FCCC
:104D5000BB1D00221A7013E0BB1D1A78984B9200FD
:104D6000D058BB1D1B78974AD35C19000BF074FC1C
:104D7000031E00D1CEE1BB1D1A78BB1D01321A7093
:104D8000BB1D1B78042BE7D9FB1D1A788C4B9200B6
:104D9000D058FB1D1B788B4AD35C002219000BF006
:104DA00078FCFB1D1A78FB1D01321A70FB1D1B7865
:104DB000032BC0D9C04674E1C046834B1B785A42CE
:104DC0005341DBB21A00814B1B78134022D0804B39
:104DD0005868804B5B78012219000BF05AFC0A20BE
:104DE00009F01AF8764B1A68764B1B7819001000F8
:104DF0000BF032FC031E02D0774B01221A71744B68
:104E00005868744B5B78012219000BF042FC6F4B21
:104E100000221A706C4B1B780A2B00D083E07B1D9C
:104E200000221A7048E07B1D1A78654B9200D0581A
:104E30007B1D1B78634AD35C19000BF00DFC031E2D
:104E40000FD0664B1B781A0013009B009A187B1D2D
:104E50001B78D318624AD25C0132D1B2604AD15475
:104E600025E07B1D1A78564B9200D0587B1D1B788D
:104E7000544AD35C19000BF0EFFB031E17D1574BBC
:104E80001B781A0013009B009A187B1D1B78D318FF
:104E9000514A0021D154514B1B781A0013009B003A
:104EA0009A187B1D1B78D3184D4A0021D1547B1DC5
:104EB0001A787B1D01321A707B1D1B78042BB2D926
:104EC000464B1B781A00424B9200D058434B1B783C
:104ED0001A00404B9B5C002219000BF0DAFB3F4BA1
:104EE0001B78032B05D83D4B1B780133DAB23B4BC3
:104EF0001A703A4B1B78042B02D1384B00221A70DF
:104F0000364B1B781A00324B9200D058334B1B782B
:104F10001A00304B9B5C012219000BF0BAFB2A4BA4
:104F200000221A7009E0284B1B78092B05D8264B64
:104F30001B780133DAB2244B1A703B1D00221A7021
:104F4000A5E0FB1C00221A7097E03B1D1A781300A5
:104F50009B009A18FB1C1B78D318214AD35C5A1E5D
:104F60009341DAB2184B19780920002388425B413B
:104F7000DBB21340DBB2002B00D179E0FB1C1A78C6
:104F80000F4B9200D058FB1C1B780E4AD35C1900C3
:104F90000BF062FB031E25D03B1D1A7813009B000B
:104FA0009A18FB1C1B78D3180D4AD25C0132D1B27F
:104FB0000B4AD1543AE0C046D40A0020BC0000207D
:104FC000EC010020000200201C1000201C02002028
:104FD0000802002018020020F40F00201D100020FD
:104FE00008100020FB1C1A78CD4B9200D058FB1CF7
:104FF0001B78CC4AD35C19000BF02EFB031E15D195
:105000003B1D1A7813009B009A18FB1C1B78D318C1
:10501000C54A0021D1543B1D1A7813009B009A18F1
:10502000FB1C1B78D318C14A0021D1543B1D1A78B0
:1050300013009B009A18FB1C1B78D318BB4AD35C47
:105040000A2B15D13B1D1A7813009B009A18FB1CE4
:105050001B78D318B44A0121D1543B1D1A78130090
:105060009B009A18FB1C1B78D318B04A0021D1541E
:10507000FB1C1A78FB1C01321A70FB1C1B78042BDA
:1050800000D862E73B1D1A783B1D01321A703B1DA8
:105090001B78032B00D854E7A34B1B79002B3BD183
:1050A000C046A34B1800FFF772FBA14B1B78002BE7
:1050B00000D0A5E0C0469F4B00221A709E4B4822AC
:1050C0009A5C9E4B1A709E4B00221A71FEF7AAFB47
:1050D0009C4B5B78002B00D194E0C046994B00229A
:1050E0005A70984BDB7801225340DBB2002B00D181
:1050F0008AE0C046FFF7C8F9934B00221A70934B21
:1051000000221A708F4B0122DA70914B01221A7122
:10511000C0465EE0C04600E0C046854B1B785BB2EF
:10512000002B06DB824B1B780133DAB2804B1A70FE
:1051300000E0C0467E4B1B785BB2002B29DA7D4B2A
:1051400001221A70834B05221A707B4B4F229A5C06
:10515000814B1A70814B05221A70814B48229B5C4F
:10516000002B03D1754B63221A7000E0C046754BCB
:10517000DB78002B0FD0C0467A4B01221A70714B9E
:105180000022DA70724B00221A71774B00221A80CB
:105190001FE0C04600E0C046744B1B88002B13D1B3
:1051A000664B1B78002B08D0634B49229B5C002B7D
:1051B00005D0634B01221A710BE0C04600E0C046E7
:1051C0005F4B00221A7104E0C04602E0C04600E0D6
:1051D000C046584B5B7801225340DBB2002B03D111
:1051E000634BF0221A7000E0C046524B00225A7006
:1051F000504B00229A70FFF70FF9FFF729F947E0AB
:10520000C04602E0C04600E0C0464A4B5B78002B37
:105210000CD1FEF7D1FA03001CB2564B1800FEF772
:10522000E3FA03001BB29C42D0DA00E0C046414BD7
:10523000DB79002BCCD0C0464F4B1B88002B08D00D
:10524000FFF706F93B4B00225A703A4B00229A7046
:105250001EE0C046374B5B78002B03D1444BF02255
:105260001A7000E0C046334B01225A70434B1B8832
:10527000002B0CD12F4B9B78002B03D13C4BF02201
:105280001A7000E0C0462B4B01229A7000E0C04625
:10529000BB1C00221A7013E0BB1C1B78384A00218B
:1052A000D154BB1C1B78374A0021D154BB1C1B783E
:1052B000354A0021D154BB1C1A78BB1C01321A702C
:1052C000BB1C1B78072BE7D9264B5B78002B17D12B
:1052D0002E4B1B7801225340DBB2002B12D12B4BFB
:1052E0009B7801225340DBB2002B0DD1284B1B7859
:1052F000002B03D1244B01225A703EE1C0463CE111
:10530000C04602E0C04600E0C046214B1B78952B0A
:1053100040D81F4B1B780333DAB21D4B1A703AE0AA
:10532000EC01002000020020F40F002008100020F3
:10533000FD0A0020780B0020BC000020630B002039
:10534000C40A0020B40A0020F40A0020F30A002056
:10535000CC0A0020A20F0020EC0F0020A60A00209B
:1053600000F00308240B0020800B0020A20A00207C
:10537000FE0A0020E50000206C0B00206E0B0020D0
:105380002C0B0020D80A0020540B0020C00B00205A
:10539000520B0020C0469E4B5B78002B14D19D4BD6
:1053A0005B7801225340DBB2002B0FD19A4B1B7864
:1053B000002B17D1994B01229A70994B0022DA7178
:1053C000954B1E221A709AE7C04600E0C046924BE9
:1053D0001B781D2B08D8904B1B780133DAB28E4B0B
:1053E0001A7002E0C04600E0C0468A4B1B780122DA
:1053F0005340DBB2002B2AD18A4B1B78002B06D1FD
:10540000894B01221A70894B14221A7000E0C046A1
:105410007F4B5B7801225340DBB2002B07D1844BDA
:105420001B786E2B22D8804B01225A70A5E0C04613
:10543000804B1B78002B1BD17D4B1B78002B19D187
:10544000794B01225A707B4B01221A7095E0C046BD
:10545000784B00221A70764B1B78952B0CD8744B26
:105460001B780333DAB2724B1A7006E0C04604E0D0
:10547000C04602E0C04600E0C046664B5B780122B1
:105480005340DBB2002B1AD1664B5B78002B06D160
:10549000654B01229A70654B14221A7000E0C046D9
:1054A000644B9B78002B19D1634B1B78002B17D1D1
:1054B0005D4B0122DA705F4B01229A705DE0C046BD
:1054C0005C4B00229A705C4B1B78952B0AD85A4B88
:1054D0001B780333DAB2584B1A7004E0C04602E07E
:1054E000C04600E0C0464B4B9B7801225340DBB2E4
:1054F000002B2AD14B4B9B78002B06D14A4B012223
:105500001A714A4B14221A7000E0C046404B5B7877
:1055100001225340DBB2002B07D1484B1B786E2B86
:1055200024D8414B01225A7127E0C046414B1B79D8
:10553000002B1DD1414B1B78002B1BD13A4B012274
:105540005A713C4B01221A7117E0C046394B0022B8
:105550001A713A4B1B78952B0ED8384B1B780333B6
:10556000DAB2364B1A7008E0C04606E0C04604E0E6
:10557000C04602E0C04600E0C0467B1C00221A7014
:105580000CE07B1C1A787B1C1B782249895C254A1D
:10559000D1547B1C1A787B1C01321A707B1C1B783F
:1055A000072BEED91A4B5B7801225340DBB2002B5C
:1055B0001AD13B0000221A7011E03B001A783B0020
:1055C0001B781949895C1E4AD1543B001B78164A46
:1055D0000021D1543B001A783B0001321A703B0085
:1055E0001B78072BE9D900E0C046164B1B78012237
:1055F0005340DBB2002B06D10B4B00229A700A4BB2
:1056000000221A7100E0C046C046BD4603B090BDFE
:10561000240B0020C00B0020E00F0020540B0020C2
:10562000780B0020440B0020D80A0020D90F00205E
:105630004C0B00200C0B00204D0B00204E0B0020CB
:105640002C0B0020E40F002080B584B000AFC046D2
:10565000C54B1B78002B00D18FE0C44B1B78002B6F
:105660000DD1C34BDB7901225340DBB2002B08D1B3
:1056700011210B20FFF796F9FFF7AEF91FE0C046A6
:1056800000E0C046BB4B1B781A000123134006D133
:1056900010211120FFF786F9FFF79EF900E0C046C0
:1056A000B54BDB7801225340DBB2002B06D11D2124
:1056B0001F20FFF777F9FFF78FF900E0C046AF4BE7
:1056C0001B78002B5BD0AD4B1B78C72B00D9A1E01A
:1056D000AA4B1B78312B00D89EE0FFF77DF9A84B31
:1056E0001B78012B10D1C04610211120FFF75AF969
:1056F000A04B1B781A000123134003D0A14B0122B9
:105700005A70A2E0C046A0E0C0469D4B1B78022B19
:1057100010D1C04601211120FFF744F9954B1B78A9
:105720001A000423134003D0974B02221A708CE016
:10573000C0468AE0C046924B1B78032B10D1C0466E
:1057400000211120FFF72EF98A4B1B781A00402305
:10575000134003D18B4B01225A7076E0C04674E0AF
:10576000C046874B1B78042B05D1C0461D211F2046
:10577000FFF718F969E0C04667E0C04600E0C046A0
:10578000FDF7E4FA784B1B78012B18D07F4BDB79BF
:1057900001225340DBB2002B13D10A210A20FFF76C
:1057A00001F97B4B1B88DBB21A004023134004D164
:1057B0001F211F20FFF7F6F847E0C04645E0C0462E
:1057C00000E0C0466C4B1B7801225340DBB2002B3B
:1057D0002CD0C0466F4B1B78002B19D06D4B1B781B
:1057E000C72B1BD86B4B1B78952B02D9FEF776F88D
:1057F0002BE0C046674B1B78632B11D8654B1B7899
:10580000312B0FD9FEF776F85E4B00225A701CE060
:10581000C0460CE0C04606E0C04604E0C04602E0D8
:10582000C04600E0C046FEF7E5FB0EE0C046574B21
:10583000DB78002B06D1584B5B78002B04D1FEF7A8
:1058400079FA02E0C04600E0C046544B1B781A00CB
:10585000534B9A5C534B1A704B4B1B781A00504BAE
:105860009A5C514B1A700F23FB1800221A7011E03A
:105870000F217B181B784D4AD35C002B13D17B186A
:105880001B784B4AD35C002B0FD17B181A787B18FE
:1058900001321A700F23FB181B78072BE8D9454BF0
:1058A00000221A800DE0C04600E0C046424B1B7843
:1058B00001225340DBB2002B02D1FEF7EDFE00E0E7
:1058C000C0463C4B1B88002B03D03C4B01221A7076
:1058D00000E0C0463A4B1B78002B0ED0374B5B786C
:1058E000002B08D1374B042118000FF08DFC334BEF
:1058F00001225A7084E1C04682E1C0462F4B5B789A
:1059000001225340DBB2002B13D12F4B00221A701F
:105910002E4B00221A702B4B042118000FF056FD5D
:105920002B4B1B882B4A944663449AB22A4B1A800D
:1059300000E0C046214B00225A70204B1B78002B00
:105940004CD1214B00221A70204B00221A701D4BA3
:10595000042118000FF03AFD1D4B1B8864339AB2E6
:105960001D4B1A804CE1C046D40A0020E40F0020F1
:10597000580D002083F00308B40A0020A00F002077
:10598000A10F0020CC0A00208E0A0020140B00205A
:105990008A0A0020FE0A0020240B00208F0A002023
:1059A00010000020B50B0020B60B0020C40A002018
:1059B000BC0A0020DC0E0020D80A0020D40E0020F3
:1059C000D90F0020FC040020CC0E0020C40E0020C3
:1059D000C00E002088130000C20E0020C046CA4B33
:1059E00001221A70C94BDB7901225340DBB2002B34
:1059F00003D1C54B02221A7000E0C046C34B9B790D
:105A000001225340DBB2002B03D1BF4B02221A709C
:105A100000E0C046BE4B1B7801225340DBB2002B96
:105A200003D1B94B02221A7000E0C046B94B1B7873
:105A300001225340DBB2002B03D1B34B02221A7078
:105A400000E0C046B34B5B7801225340DBB2002B31
:105A500003D1AD4B03221A7000E0C046AD4B9B78DA
:105A600001225340DBB2002B03D1A74B01221A7055
:105A700000E0C046A64B5B7801225340DBB2002B0E
:105A800003D1A14B01221A7000E0C0460E23FB187F
:105A900000221A700D23FB1800221A7015E00D2049
:105AA0003B181B78994AD35C1A003B181B789A4024
:105AB0001300D9B20E22BB18BA1812780A431A7012
:105AC0003B181A783B1801321A700D23FB181B780B
:105AD000072BE4D90E23FB181B783F22134003D079
